{
  "contractName": "ElvenHunt",
  "abi": [
    {
      "inputs": [],
      "stateMutability": "nonpayable",
      "type": "constructor"
    },
    {
      "anonymous": false,
      "inputs": [
        {
          "indexed": true,
          "internalType": "address",
          "name": "account",
          "type": "address"
        },
        {
          "indexed": true,
          "internalType": "address",
          "name": "operator",
          "type": "address"
        },
        {
          "indexed": false,
          "internalType": "bool",
          "name": "approved",
          "type": "bool"
        }
      ],
      "name": "ApprovalForAll",
      "type": "event"
    },
    {
      "anonymous": false,
      "inputs": [
        {
          "indexed": false,
          "internalType": "uint256",
          "name": "id",
          "type": "uint256"
        },
        {
          "indexed": false,
          "internalType": "uint256",
          "name": "circulatingSupply",
          "type": "uint256"
        },
        {
          "components": [
            {
              "internalType": "uint256",
              "name": "id",
              "type": "uint256"
            },
            {
              "internalType": "string",
              "name": "tokenURI",
              "type": "string"
            }
          ],
          "indexed": false,
          "internalType": "struct ElvenHunt.Card",
          "name": "card",
          "type": "tuple"
        }
      ],
      "name": "ItemMinted",
      "type": "event"
    },
    {
      "anonymous": false,
      "inputs": [
        {
          "indexed": true,
          "internalType": "address",
          "name": "previousOwner",
          "type": "address"
        },
        {
          "indexed": true,
          "internalType": "address",
          "name": "newOwner",
          "type": "address"
        }
      ],
      "name": "OwnershipTransferred",
      "type": "event"
    },
    {
      "anonymous": false,
      "inputs": [
        {
          "indexed": true,
          "internalType": "address",
          "name": "operator",
          "type": "address"
        },
        {
          "indexed": true,
          "internalType": "address",
          "name": "from",
          "type": "address"
        },
        {
          "indexed": true,
          "internalType": "address",
          "name": "to",
          "type": "address"
        },
        {
          "indexed": false,
          "internalType": "uint256[]",
          "name": "ids",
          "type": "uint256[]"
        },
        {
          "indexed": false,
          "internalType": "uint256[]",
          "name": "values",
          "type": "uint256[]"
        }
      ],
      "name": "TransferBatch",
      "type": "event"
    },
    {
      "anonymous": false,
      "inputs": [
        {
          "indexed": true,
          "internalType": "address",
          "name": "operator",
          "type": "address"
        },
        {
          "indexed": true,
          "internalType": "address",
          "name": "from",
          "type": "address"
        },
        {
          "indexed": true,
          "internalType": "address",
          "name": "to",
          "type": "address"
        },
        {
          "indexed": false,
          "internalType": "uint256",
          "name": "id",
          "type": "uint256"
        },
        {
          "indexed": false,
          "internalType": "uint256",
          "name": "value",
          "type": "uint256"
        }
      ],
      "name": "TransferSingle",
      "type": "event"
    },
    {
      "anonymous": false,
      "inputs": [
        {
          "indexed": false,
          "internalType": "string",
          "name": "value",
          "type": "string"
        },
        {
          "indexed": true,
          "internalType": "uint256",
          "name": "id",
          "type": "uint256"
        }
      ],
      "name": "URI",
      "type": "event"
    },
    {
      "inputs": [
        {
          "internalType": "address",
          "name": "account",
          "type": "address"
        },
        {
          "internalType": "uint256",
          "name": "id",
          "type": "uint256"
        }
      ],
      "name": "balanceOf",
      "outputs": [
        {
          "internalType": "uint256",
          "name": "",
          "type": "uint256"
        }
      ],
      "stateMutability": "view",
      "type": "function",
      "constant": true
    },
    {
      "inputs": [
        {
          "internalType": "address[]",
          "name": "accounts",
          "type": "address[]"
        },
        {
          "internalType": "uint256[]",
          "name": "ids",
          "type": "uint256[]"
        }
      ],
      "name": "balanceOfBatch",
      "outputs": [
        {
          "internalType": "uint256[]",
          "name": "",
          "type": "uint256[]"
        }
      ],
      "stateMutability": "view",
      "type": "function",
      "constant": true
    },
    {
      "inputs": [
        {
          "internalType": "uint256",
          "name": "",
          "type": "uint256"
        },
        {
          "internalType": "uint256",
          "name": "",
          "type": "uint256"
        }
      ],
      "name": "circulatingSupplyPerItem",
      "outputs": [
        {
          "internalType": "uint256",
          "name": "",
          "type": "uint256"
        }
      ],
      "stateMutability": "view",
      "type": "function",
      "constant": true
    },
    {
      "inputs": [
        {
          "internalType": "address",
          "name": "account",
          "type": "address"
        },
        {
          "internalType": "address",
          "name": "operator",
          "type": "address"
        }
      ],
      "name": "isApprovedForAll",
      "outputs": [
        {
          "internalType": "bool",
          "name": "",
          "type": "bool"
        }
      ],
      "stateMutability": "view",
      "type": "function",
      "constant": true
    },
    {
      "inputs": [],
      "name": "mintRate_Normal",
      "outputs": [
        {
          "internalType": "uint256",
          "name": "",
          "type": "uint256"
        }
      ],
      "stateMutability": "view",
      "type": "function",
      "constant": true
    },
    {
      "inputs": [],
      "name": "mintRate_Premium",
      "outputs": [
        {
          "internalType": "uint256",
          "name": "",
          "type": "uint256"
        }
      ],
      "stateMutability": "view",
      "type": "function",
      "constant": true
    },
    {
      "inputs": [],
      "name": "mintRate_Rare",
      "outputs": [
        {
          "internalType": "uint256",
          "name": "",
          "type": "uint256"
        }
      ],
      "stateMutability": "view",
      "type": "function",
      "constant": true
    },
    {
      "inputs": [],
      "name": "owner",
      "outputs": [
        {
          "internalType": "address",
          "name": "",
          "type": "address"
        }
      ],
      "stateMutability": "view",
      "type": "function",
      "constant": true
    },
    {
      "inputs": [],
      "name": "renounceOwnership",
      "outputs": [],
      "stateMutability": "nonpayable",
      "type": "function"
    },
    {
      "inputs": [
        {
          "internalType": "address",
          "name": "from",
          "type": "address"
        },
        {
          "internalType": "address",
          "name": "to",
          "type": "address"
        },
        {
          "internalType": "uint256[]",
          "name": "ids",
          "type": "uint256[]"
        },
        {
          "internalType": "uint256[]",
          "name": "amounts",
          "type": "uint256[]"
        },
        {
          "internalType": "bytes",
          "name": "data",
          "type": "bytes"
        }
      ],
      "name": "safeBatchTransferFrom",
      "outputs": [],
      "stateMutability": "nonpayable",
      "type": "function"
    },
    {
      "inputs": [
        {
          "internalType": "address",
          "name": "from",
          "type": "address"
        },
        {
          "internalType": "address",
          "name": "to",
          "type": "address"
        },
        {
          "internalType": "uint256",
          "name": "id",
          "type": "uint256"
        },
        {
          "internalType": "uint256",
          "name": "amount",
          "type": "uint256"
        },
        {
          "internalType": "bytes",
          "name": "data",
          "type": "bytes"
        }
      ],
      "name": "safeTransferFrom",
      "outputs": [],
      "stateMutability": "nonpayable",
      "type": "function"
    },
    {
      "inputs": [
        {
          "internalType": "address",
          "name": "operator",
          "type": "address"
        },
        {
          "internalType": "bool",
          "name": "approved",
          "type": "bool"
        }
      ],
      "name": "setApprovalForAll",
      "outputs": [],
      "stateMutability": "nonpayable",
      "type": "function"
    },
    {
      "inputs": [
        {
          "internalType": "bytes4",
          "name": "interfaceId",
          "type": "bytes4"
        }
      ],
      "name": "supportsInterface",
      "outputs": [
        {
          "internalType": "bool",
          "name": "",
          "type": "bool"
        }
      ],
      "stateMutability": "view",
      "type": "function",
      "constant": true
    },
    {
      "inputs": [
        {
          "internalType": "address",
          "name": "newOwner",
          "type": "address"
        }
      ],
      "name": "transferOwnership",
      "outputs": [],
      "stateMutability": "nonpayable",
      "type": "function"
    },
    {
      "inputs": [
        {
          "internalType": "uint256",
          "name": "",
          "type": "uint256"
        }
      ],
      "name": "uri",
      "outputs": [
        {
          "internalType": "string",
          "name": "",
          "type": "string"
        }
      ],
      "stateMutability": "view",
      "type": "function",
      "constant": true
    },
    {
      "inputs": [
        {
          "internalType": "string",
          "name": "_drawType",
          "type": "string"
        }
      ],
      "name": "mintCard",
      "outputs": [],
      "stateMutability": "payable",
      "type": "function",
      "payable": true
    }
  ],
  "bytecode": "0x608060405266b1a2bc2ec5000060045567016345785d8a00006005556702c68af0bb14000060065560006008553480156200003957600080fd5b50604051806020016040528060008152506200005b81620001fe60201b60201c565b506200007c620000706200021a60201b60201c565b6200022260201b60201c565b6040518060600160405280600060ff168152602001600060ff168152602001600060ff168152506007600060018152602001908152602001600020906003620000c7929190620002e8565b506040518060600160405280600060ff168152602001600060ff168152602001600060ff16815250600760006002815260200190815260200160002090600362000113929190620002e8565b506040518060600160405280600060ff168152602001600060ff168152602001600060ff1681525060076000600381526020019081526020016000209060036200015f929190620002e8565b506040518060600160405280600060ff168152602001600060ff168152602001600060ff168152506007600060048152602001908152602001600020906003620001ab929190620002e8565b506040518060600160405280600060ff168152602001600060ff168152602001600060ff168152506007600060058152602001908152602001600020906003620001f7929190620002e8565b5062000454565b8060029080519060200190620002169291906200033f565b5050565b600033905090565b6000600360009054906101000a900473ffffffffffffffffffffffffffffffffffffffff16905081600360006101000a81548173ffffffffffffffffffffffffffffffffffffffff021916908373ffffffffffffffffffffffffffffffffffffffff1602179055508173ffffffffffffffffffffffffffffffffffffffff168173ffffffffffffffffffffffffffffffffffffffff167f8be0079c531659141344cd1fd0a4f28419497f9722a3daafe3b4186f6b6457e060405160405180910390a35050565b8280548282559060005260206000209081019282156200032c579160200282015b828111156200032b578251829060ff1690559160200191906001019062000309565b5b5090506200033b9190620003d0565b5090565b8280546200034d90620003ef565b90600052602060002090601f016020900481019282620003715760008555620003bd565b82601f106200038c57805160ff1916838001178555620003bd565b82800160010185558215620003bd579182015b82811115620003bc5782518255916020019190600101906200039f565b5b509050620003cc9190620003d0565b5090565b5b80821115620003eb576000816000905550600101620003d1565b5090565b600060028204905060018216806200040857607f821691505b602082108114156200041f576200041e62000425565b5b50919050565b7f4e487b7100000000000000000000000000000000000000000000000000000000600052602260045260246000fd5b61385b80620004646000396000f3fe6080604052600436106100f25760003560e01c8063a22cb4651161008a578063e985e9c511610059578063e985e9c51461033d578063f0ce51201461037a578063f242432a14610396578063f2fde38b146103bf576100f2565b8063a22cb46514610281578063aa553909146102aa578063b7cecb16146102e7578063c4ff21ca14610312576100f2565b80632f0b4183116100c65780632f0b4183146101d75780634e1273f414610202578063715018a61461023f5780638da5cb5b14610256576100f2565b8062fdd58e146100f757806301ffc9a7146101345780630e89341c146101715780632eb2c2d6146101ae575b600080fd5b34801561010357600080fd5b5061011e60048036038101906101199190612428565b6103e8565b60405161012b9190612d23565b60405180910390f35b34801561014057600080fd5b5061015b600480360381019061015691906124d0565b6104b1565b6040516101689190612b26565b60405180910390f35b34801561017d57600080fd5b5061019860048036038101906101939190612563565b610593565b6040516101a59190612b41565b60405180910390f35b3480156101ba57600080fd5b506101d560048036038101906101d0919061229e565b610627565b005b3480156101e357600080fd5b506101ec6106c8565b6040516101f99190612d23565b60405180910390f35b34801561020e57600080fd5b5061022960048036038101906102249190612464565b6106ce565b6040516102369190612acd565b60405180910390f35b34801561024b57600080fd5b5061025461087f565b005b34801561026257600080fd5b5061026b610907565b60405161027891906129f0565b60405180910390f35b34801561028d57600080fd5b506102a860048036038101906102a391906123ec565b610931565b005b3480156102b657600080fd5b506102d160048036038101906102cc919061258c565b610ab2565b6040516102de9190612d23565b60405180910390f35b3480156102f357600080fd5b506102fc610ae3565b6040516103099190612d23565b60405180910390f35b34801561031e57600080fd5b50610327610ae9565b6040516103349190612d23565b60405180910390f35b34801561034957600080fd5b50610364600480360381019061035f9190612262565b610aef565b6040516103719190612b26565b60405180910390f35b610394600480360381019061038f9190612522565b610b83565b005b3480156103a257600080fd5b506103bd60048036038101906103b8919061235d565b610e72565b005b3480156103cb57600080fd5b506103e660048036038101906103e19190612239565b610f13565b005b60008073ffffffffffffffffffffffffffffffffffffffff168373ffffffffffffffffffffffffffffffffffffffff161415610459576040517f08c379a000000000000000000000000000000000000000000000000000000000815260040161045090612ba3565b60405180910390fd5b60008083815260200190815260200160002060008473ffffffffffffffffffffffffffffffffffffffff1673ffffffffffffffffffffffffffffffffffffffff16815260200190815260200160002054905092915050565b60007fd9b67a26000000000000000000000000000000000000000000000000000000007bffffffffffffffffffffffffffffffffffffffffffffffffffffffff1916827bffffffffffffffffffffffffffffffffffffffffffffffffffffffff1916148061057c57507f0e89341c000000000000000000000000000000000000000000000000000000007bffffffffffffffffffffffffffffffffffffffffffffffffffffffff1916827bffffffffffffffffffffffffffffffffffffffffffffffffffffffff1916145b8061058c575061058b8261100b565b5b9050919050565b6060600280546105a2906130dc565b80601f01602080910402602001604051908101604052809291908181526020018280546105ce906130dc565b801561061b5780601f106105f05761010080835404028352916020019161061b565b820191906000526020600020905b8154815290600101906020018083116105fe57829003601f168201915b50505050509050919050565b61062f611075565b73ffffffffffffffffffffffffffffffffffffffff168573ffffffffffffffffffffffffffffffffffffffff16148061067557506106748561066f611075565b610aef565b5b6106b4576040517f08c379a00000000000000000000000000000000000000000000000000000000081526004016106ab90612c23565b60405180910390fd5b6106c1858585858561107d565b5050505050565b60045481565b60608151835114610714576040517f08c379a000000000000000000000000000000000000000000000000000000000815260040161070b90612cc3565b60405180910390fd5b6000835167ffffffffffffffff811115610757577f4e487b7100000000000000000000000000000000000000000000000000000000600052604160045260246000fd5b6040519080825280602002602001820160405280156107855781602001602082028036833780820191505090505b50905060005b84518110156108745761081e8582815181106107d0577f4e487b7100000000000000000000000000000000000000000000000000000000600052603260045260246000fd5b6020026020010151858381518110610811577f4e487b7100000000000000000000000000000000000000000000000000000000600052603260045260246000fd5b60200260200101516103e8565b828281518110610857577f4e487b7100000000000000000000000000000000000000000000000000000000600052603260045260246000fd5b6020026020010181815250508061086d9061313f565b905061078b565b508091505092915050565b610887611075565b73ffffffffffffffffffffffffffffffffffffffff166108a5610907565b73ffffffffffffffffffffffffffffffffffffffff16146108fb576040517f08c379a00000000000000000000000000000000000000000000000000000000081526004016108f290612c63565b60405180910390fd5b61090560006113dd565b565b6000600360009054906101000a900473ffffffffffffffffffffffffffffffffffffffff16905090565b8173ffffffffffffffffffffffffffffffffffffffff16610950611075565b73ffffffffffffffffffffffffffffffffffffffff1614156109a7576040517f08c379a000000000000000000000000000000000000000000000000000000000815260040161099e90612ca3565b60405180910390fd5b80600160006109b4611075565b73ffffffffffffffffffffffffffffffffffffffff1673ffffffffffffffffffffffffffffffffffffffff16815260200190815260200160002060008473ffffffffffffffffffffffffffffffffffffffff1673ffffffffffffffffffffffffffffffffffffffff16815260200190815260200160002060006101000a81548160ff0219169083151502179055508173ffffffffffffffffffffffffffffffffffffffff16610a61611075565b73ffffffffffffffffffffffffffffffffffffffff167f17307eab39ab6107e8899845ad3d59bd9653f200f220920489ca2b5937696c3183604051610aa69190612b26565b60405180910390a35050565b60076020528160005260406000208181548110610ace57600080fd5b90600052602060002001600091509150505481565b60065481565b60055481565b6000600160008473ffffffffffffffffffffffffffffffffffffffff1673ffffffffffffffffffffffffffffffffffffffff16815260200190815260200160002060008373ffffffffffffffffffffffffffffffffffffffff1673ffffffffffffffffffffffffffffffffffffffff16815260200190815260200160002060009054906101000a900460ff16905092915050565b6000600190506000806005905060006040518060400160405280600681526020017f6e6f726d616c00000000000000000000000000000000000000000000000000008152508051906020012085805190602001201415610be7576004549250610c99565b6040518060400160405280600481526020017f72617265000000000000000000000000000000000000000000000000000000008152508051906020012085805190602001201415610c3c576005549250610c98565b6040518060400160405280600781526020017f7072656d69756d000000000000000000000000000000000000000000000000008152508051906020012085805190602001201415610c91576006549250610c97565b60065492505b5b5b8284610ca59190612f98565b341015610ce7576040517f08c379a0000000000000000000000000000000000000000000000000000000008152600401610cde90612c83565b60405180910390fd5b600081606484610cf79190612f98565b610d019190612f11565b90506000610d0e826114a3565b604051602001610d1e91906129c3565b6040516020818303038152906040529050610d3881611650565b610d533383886040518060200160405280600081525061166a565b85600760008681526020019081526020016000208481548110610d9f577f4e487b7100000000000000000000000000000000000000000000000000000000600052603260045260246000fd5b906000526020600020016000828254610db89190612f11565b92505081905550600060405180604001604052808481526020018381525090507fa82fb03fc7b60927b6471a51b8a6ebd67ce2fa84da5099c6b587c9f73c104ac083600760008881526020019081526020016000208681548110610e45577f4e487b7100000000000000000000000000000000000000000000000000000000600052603260045260246000fd5b906000526020600020015483604051610e6093929190612d67565b60405180910390a15050505050505050565b610e7a611075565b73ffffffffffffffffffffffffffffffffffffffff168573ffffffffffffffffffffffffffffffffffffffff161480610ec05750610ebf85610eba611075565b610aef565b5b610eff576040517f08c379a0000000000000000000000000000000000000000000000000000000008152600401610ef690612be3565b60405180910390fd5b610f0c8585858585611800565b5050505050565b610f1b611075565b73ffffffffffffffffffffffffffffffffffffffff16610f39610907565b73ffffffffffffffffffffffffffffffffffffffff1614610f8f576040517f08c379a0000000000000000000000000000000000000000000000000000000008152600401610f8690612c63565b60405180910390fd5b600073ffffffffffffffffffffffffffffffffffffffff168173ffffffffffffffffffffffffffffffffffffffff161415610fff576040517f08c379a0000000000000000000000000000000000000000000000000000000008152600401610ff690612bc3565b60405180910390fd5b611008816113dd565b50565b60007f01ffc9a7000000000000000000000000000000000000000000000000000000007bffffffffffffffffffffffffffffffffffffffffffffffffffffffff1916827bffffffffffffffffffffffffffffffffffffffffffffffffffffffff1916149050919050565b600033905090565b81518351146110c1576040517f08c379a00000000000000000000000000000000000000000000000000000000081526004016110b890612ce3565b60405180910390fd5b600073ffffffffffffffffffffffffffffffffffffffff168473ffffffffffffffffffffffffffffffffffffffff161415611131576040517f08c379a000000000000000000000000000000000000000000000000000000000815260040161112890612c03565b60405180910390fd5b600061113b611075565b905061114b818787878787611a82565b60005b8451811015611348576000858281518110611192577f4e487b7100000000000000000000000000000000000000000000000000000000600052603260045260246000fd5b6020026020010151905060008583815181106111d7577f4e487b7100000000000000000000000000000000000000000000000000000000600052603260045260246000fd5b60200260200101519050600080600084815260200190815260200160002060008b73ffffffffffffffffffffffffffffffffffffffff1673ffffffffffffffffffffffffffffffffffffffff16815260200190815260200160002054905081811015611278576040517f08c379a000000000000000000000000000000000000000000000000000000000815260040161126f90612c43565b60405180910390fd5b81810360008085815260200190815260200160002060008c73ffffffffffffffffffffffffffffffffffffffff1673ffffffffffffffffffffffffffffffffffffffff168152602001908152602001600020819055508160008085815260200190815260200160002060008b73ffffffffffffffffffffffffffffffffffffffff1673ffffffffffffffffffffffffffffffffffffffff168152602001908152602001600020600082825461132d9190612f11565b92505081905550505050806113419061313f565b905061114e565b508473ffffffffffffffffffffffffffffffffffffffff168673ffffffffffffffffffffffffffffffffffffffff168273ffffffffffffffffffffffffffffffffffffffff167f4a39dc06d4c0dbc64b70af90fd698a233a518aa5d07e595d983b8c0526c8f7fb87876040516113bf929190612aef565b60405180910390a46113d5818787878787611a8a565b505050505050565b6000600360009054906101000a900473ffffffffffffffffffffffffffffffffffffffff16905081600360006101000a81548173ffffffffffffffffffffffffffffffffffffffff021916908373ffffffffffffffffffffffffffffffffffffffff1602179055508173ffffffffffffffffffffffffffffffffffffffff168173ffffffffffffffffffffffffffffffffffffffff167f8be0079c531659141344cd1fd0a4f28419497f9722a3daafe3b4186f6b6457e060405160405180910390a35050565b606060008214156114eb576040518060400160405280600181526020017f3000000000000000000000000000000000000000000000000000000000000000815250905061164b565b600082905060005b6000821461151d5780806115069061313f565b915050600a826115169190612f67565b91506114f3565b60008167ffffffffffffffff81111561155f577f4e487b7100000000000000000000000000000000000000000000000000000000600052604160045260246000fd5b6040519080825280601f01601f1916602001820160405280156115915781602001600182028036833780820191505090505b5090505b60008514611644576001826115aa9190612ff2565b9150600a856115b99190613188565b60306115c59190612f11565b60f81b818381518110611601577f4e487b7100000000000000000000000000000000000000000000000000000000600052603260045260246000fd5b60200101907effffffffffffffffffffffffffffffffffffffffffffffffffffffffffffff1916908160001a905350600a8561163d9190612f67565b9450611595565b8093505050505b919050565b8060029080519060200190611666929190611f31565b5050565b600073ffffffffffffffffffffffffffffffffffffffff168473ffffffffffffffffffffffffffffffffffffffff1614156116da576040517f08c379a00000000000000000000000000000000000000000000000000000000081526004016116d190612d03565b60405180910390fd5b60006116e4611075565b9050611705816000876116f688611c71565b6116ff88611c71565b87611a82565b8260008086815260200190815260200160002060008773ffffffffffffffffffffffffffffffffffffffff1673ffffffffffffffffffffffffffffffffffffffff16815260200190815260200160002060008282546117649190612f11565b925050819055508473ffffffffffffffffffffffffffffffffffffffff16600073ffffffffffffffffffffffffffffffffffffffff168273ffffffffffffffffffffffffffffffffffffffff167fc3d58168c5ae7397731d063d5bbf3d657854427343f4c083240f7aacaa2d0f6287876040516117e2929190612d3e565b60405180910390a46117f981600087878787611d37565b5050505050565b600073ffffffffffffffffffffffffffffffffffffffff168473ffffffffffffffffffffffffffffffffffffffff161415611870576040517f08c379a000000000000000000000000000000000000000000000000000000000815260040161186790612c03565b60405180910390fd5b600061187a611075565b905061189a81878761188b88611c71565b61189488611c71565b87611a82565b600080600086815260200190815260200160002060008873ffffffffffffffffffffffffffffffffffffffff1673ffffffffffffffffffffffffffffffffffffffff16815260200190815260200160002054905083811015611931576040517f08c379a000000000000000000000000000000000000000000000000000000000815260040161192890612c43565b60405180910390fd5b83810360008087815260200190815260200160002060008973ffffffffffffffffffffffffffffffffffffffff1673ffffffffffffffffffffffffffffffffffffffff168152602001908152602001600020819055508360008087815260200190815260200160002060008873ffffffffffffffffffffffffffffffffffffffff1673ffffffffffffffffffffffffffffffffffffffff16815260200190815260200160002060008282546119e69190612f11565b925050819055508573ffffffffffffffffffffffffffffffffffffffff168773ffffffffffffffffffffffffffffffffffffffff168373ffffffffffffffffffffffffffffffffffffffff167fc3d58168c5ae7397731d063d5bbf3d657854427343f4c083240f7aacaa2d0f628888604051611a63929190612d3e565b60405180910390a4611a79828888888888611d37565b50505050505050565b505050505050565b611aa98473ffffffffffffffffffffffffffffffffffffffff16611f1e565b15611c69578373ffffffffffffffffffffffffffffffffffffffff1663bc197c8187878686866040518663ffffffff1660e01b8152600401611aef959493929190612a0b565b602060405180830381600087803b158015611b0957600080fd5b505af1925050508015611b3a57506040513d601f19601f82011682018060405250810190611b3791906124f9565b60015b611be057611b46613275565b806308c379a01415611ba35750611b5b613733565b80611b665750611ba5565b806040517f08c379a0000000000000000000000000000000000000000000000000000000008152600401611b9a9190612b41565b60405180910390fd5b505b6040517f08c379a0000000000000000000000000000000000000000000000000000000008152600401611bd790612b63565b60405180910390fd5b63bc197c8160e01b7bffffffffffffffffffffffffffffffffffffffffffffffffffffffff1916817bffffffffffffffffffffffffffffffffffffffffffffffffffffffff191614611c67576040517f08c379a0000000000000000000000000000000000000000000000000000000008152600401611c5e90612b83565b60405180910390fd5b505b505050505050565b60606000600167ffffffffffffffff811115611cb6577f4e487b7100000000000000000000000000000000000000000000000000000000600052604160045260246000fd5b604051908082528060200260200182016040528015611ce45781602001602082028036833780820191505090505b5090508281600081518110611d22577f4e487b7100000000000000000000000000000000000000000000000000000000600052603260045260246000fd5b60200260200101818152505080915050919050565b611d568473ffffffffffffffffffffffffffffffffffffffff16611f1e565b15611f16578373ffffffffffffffffffffffffffffffffffffffff1663f23a6e6187878686866040518663ffffffff1660e01b8152600401611d9c959493929190612a73565b602060405180830381600087803b158015611db657600080fd5b505af1925050508015611de757506040513d601f19601f82011682018060405250810190611de491906124f9565b60015b611e8d57611df3613275565b806308c379a01415611e505750611e08613733565b80611e135750611e52565b806040517f08c379a0000000000000000000000000000000000000000000000000000000008152600401611e479190612b41565b60405180910390fd5b505b6040517f08c379a0000000000000000000000000000000000000000000000000000000008152600401611e8490612b63565b60405180910390fd5b63f23a6e6160e01b7bffffffffffffffffffffffffffffffffffffffffffffffffffffffff1916817bffffffffffffffffffffffffffffffffffffffffffffffffffffffff191614611f14576040517f08c379a0000000000000000000000000000000000000000000000000000000008152600401611f0b90612b83565b60405180910390fd5b505b505050505050565b600080823b905060008111915050919050565b828054611f3d906130dc565b90600052602060002090601f016020900481019282611f5f5760008555611fa6565b82601f10611f7857805160ff1916838001178555611fa6565b82800160010185558215611fa6579182015b82811115611fa5578251825591602001919060010190611f8a565b5b509050611fb39190611fb7565b5090565b5b80821115611fd0576000816000905550600101611fb8565b5090565b6000611fe7611fe284612dca565b612da5565b9050808382526020820190508285602086028201111561200657600080fd5b60005b85811015612036578161201c8882612128565b845260208401935060208301925050600181019050612009565b5050509392505050565b600061205361204e84612df6565b612da5565b9050808382526020820190508285602086028201111561207257600080fd5b60005b858110156120a257816120888882612224565b845260208401935060208301925050600181019050612075565b5050509392505050565b60006120bf6120ba84612e22565b612da5565b9050828152602081018484840111156120d757600080fd5b6120e284828561309a565b509392505050565b60006120fd6120f884612e53565b612da5565b90508281526020810184848401111561211557600080fd5b61212084828561309a565b509392505050565b600081359050612137816137c9565b92915050565b600082601f83011261214e57600080fd5b813561215e848260208601611fd4565b91505092915050565b600082601f83011261217857600080fd5b8135612188848260208601612040565b91505092915050565b6000813590506121a0816137e0565b92915050565b6000813590506121b5816137f7565b92915050565b6000815190506121ca816137f7565b92915050565b600082601f8301126121e157600080fd5b81356121f18482602086016120ac565b91505092915050565b600082601f83011261220b57600080fd5b813561221b8482602086016120ea565b91505092915050565b6000813590506122338161380e565b92915050565b60006020828403121561224b57600080fd5b600061225984828501612128565b91505092915050565b6000806040838503121561227557600080fd5b600061228385828601612128565b925050602061229485828601612128565b9150509250929050565b600080600080600060a086880312156122b657600080fd5b60006122c488828901612128565b95505060206122d588828901612128565b945050604086013567ffffffffffffffff8111156122f257600080fd5b6122fe88828901612167565b935050606086013567ffffffffffffffff81111561231b57600080fd5b61232788828901612167565b925050608086013567ffffffffffffffff81111561234457600080fd5b612350888289016121d0565b9150509295509295909350565b600080600080600060a0868803121561237557600080fd5b600061238388828901612128565b955050602061239488828901612128565b94505060406123a588828901612224565b93505060606123b688828901612224565b925050608086013567ffffffffffffffff8111156123d357600080fd5b6123df888289016121d0565b9150509295509295909350565b600080604083850312156123ff57600080fd5b600061240d85828601612128565b925050602061241e85828601612191565b9150509250929050565b6000806040838503121561243b57600080fd5b600061244985828601612128565b925050602061245a85828601612224565b9150509250929050565b6000806040838503121561247757600080fd5b600083013567ffffffffffffffff81111561249157600080fd5b61249d8582860161213d565b925050602083013567ffffffffffffffff8111156124ba57600080fd5b6124c685828601612167565b9150509250929050565b6000602082840312156124e257600080fd5b60006124f0848285016121a6565b91505092915050565b60006020828403121561250b57600080fd5b6000612519848285016121bb565b91505092915050565b60006020828403121561253457600080fd5b600082013567ffffffffffffffff81111561254e57600080fd5b61255a848285016121fa565b91505092915050565b60006020828403121561257557600080fd5b600061258384828501612224565b91505092915050565b6000806040838503121561259f57600080fd5b60006125ad85828601612224565b92505060206125be85828601612224565b9150509250929050565b60006125d483836129a5565b60208301905092915050565b6125e981613026565b82525050565b60006125fa82612e94565b6126048185612ec2565b935061260f83612e84565b8060005b8381101561264057815161262788826125c8565b975061263283612eb5565b925050600181019050612613565b5085935050505092915050565b61265681613038565b82525050565b600061266782612e9f565b6126718185612ed3565b93506126818185602086016130a9565b61268a81613297565b840191505092915050565b60006126a082612eaa565b6126aa8185612ee4565b93506126ba8185602086016130a9565b6126c381613297565b840191505092915050565b60006126d982612eaa565b6126e38185612ef5565b93506126f38185602086016130a9565b6126fc81613297565b840191505092915050565b600061271282612eaa565b61271c8185612f06565b935061272c8185602086016130a9565b80840191505092915050565b6000612745603483612ef5565b9150612750826132b5565b604082019050919050565b6000612768602883612ef5565b915061277382613304565b604082019050919050565b600061278b602b83612ef5565b915061279682613353565b604082019050919050565b60006127ae602683612ef5565b91506127b9826133a2565b604082019050919050565b60006127d1602983612ef5565b91506127dc826133f1565b604082019050919050565b60006127f4602583612ef5565b91506127ff82613440565b604082019050919050565b6000612817603283612ef5565b91506128228261348f565b604082019050919050565b600061283a602a83612ef5565b9150612845826134de565b604082019050919050565b600061285d600583612f06565b91506128688261352d565b600582019050919050565b6000612880602083612ef5565b915061288b82613556565b602082019050919050565b60006128a3601583612ef5565b91506128ae8261357f565b602082019050919050565b60006128c6602c83612f06565b91506128d1826135a8565b602c82019050919050565b60006128e9602983612ef5565b91506128f4826135f7565b604082019050919050565b600061290c602983612ef5565b915061291782613646565b604082019050919050565b600061292f602883612ef5565b915061293a82613695565b604082019050919050565b6000612952602183612ef5565b915061295d826136e4565b604082019050919050565b600060408301600083015161298060008601826129a5565b50602083015184820360208601526129988282612695565b9150508091505092915050565b6129ae81613090565b82525050565b6129bd81613090565b82525050565b60006129ce826128b9565b91506129da8284612707565b91506129e582612850565b915081905092915050565b6000602082019050612a0560008301846125e0565b92915050565b600060a082019050612a2060008301886125e0565b612a2d60208301876125e0565b8181036040830152612a3f81866125ef565b90508181036060830152612a5381856125ef565b90508181036080830152612a67818461265c565b90509695505050505050565b600060a082019050612a8860008301886125e0565b612a9560208301876125e0565b612aa260408301866129b4565b612aaf60608301856129b4565b8181036080830152612ac1818461265c565b90509695505050505050565b60006020820190508181036000830152612ae781846125ef565b905092915050565b60006040820190508181036000830152612b0981856125ef565b90508181036020830152612b1d81846125ef565b90509392505050565b6000602082019050612b3b600083018461264d565b92915050565b60006020820190508181036000830152612b5b81846126ce565b905092915050565b60006020820190508181036000830152612b7c81612738565b9050919050565b60006020820190508181036000830152612b9c8161275b565b9050919050565b60006020820190508181036000830152612bbc8161277e565b9050919050565b60006020820190508181036000830152612bdc816127a1565b9050919050565b60006020820190508181036000830152612bfc816127c4565b9050919050565b60006020820190508181036000830152612c1c816127e7565b9050919050565b60006020820190508181036000830152612c3c8161280a565b9050919050565b60006020820190508181036000830152612c5c8161282d565b9050919050565b60006020820190508181036000830152612c7c81612873565b9050919050565b60006020820190508181036000830152612c9c81612896565b9050919050565b60006020820190508181036000830152612cbc816128dc565b9050919050565b60006020820190508181036000830152612cdc816128ff565b9050919050565b60006020820190508181036000830152612cfc81612922565b9050919050565b60006020820190508181036000830152612d1c81612945565b9050919050565b6000602082019050612d3860008301846129b4565b92915050565b6000604082019050612d5360008301856129b4565b612d6060208301846129b4565b9392505050565b6000606082019050612d7c60008301866129b4565b612d8960208301856129b4565b8181036040830152612d9b8184612968565b9050949350505050565b6000612daf612dc0565b9050612dbb828261310e565b919050565b6000604051905090565b600067ffffffffffffffff821115612de557612de4613246565b5b602082029050602081019050919050565b600067ffffffffffffffff821115612e1157612e10613246565b5b602082029050602081019050919050565b600067ffffffffffffffff821115612e3d57612e3c613246565b5b612e4682613297565b9050602081019050919050565b600067ffffffffffffffff821115612e6e57612e6d613246565b5b612e7782613297565b9050602081019050919050565b6000819050602082019050919050565b600081519050919050565b600081519050919050565b600081519050919050565b6000602082019050919050565b600082825260208201905092915050565b600082825260208201905092915050565b600082825260208201905092915050565b600082825260208201905092915050565b600081905092915050565b6000612f1c82613090565b9150612f2783613090565b9250827fffffffffffffffffffffffffffffffffffffffffffffffffffffffffffffffff03821115612f5c57612f5b6131b9565b5b828201905092915050565b6000612f7282613090565b9150612f7d83613090565b925082612f8d57612f8c6131e8565b5b828204905092915050565b6000612fa382613090565b9150612fae83613090565b9250817fffffffffffffffffffffffffffffffffffffffffffffffffffffffffffffffff0483118215151615612fe757612fe66131b9565b5b828202905092915050565b6000612ffd82613090565b915061300883613090565b92508282101561301b5761301a6131b9565b5b828203905092915050565b600061303182613070565b9050919050565b60008115159050919050565b60007fffffffff0000000000000000000000000000000000000000000000000000000082169050919050565b600073ffffffffffffffffffffffffffffffffffffffff82169050919050565b6000819050919050565b82818337600083830152505050565b60005b838110156130c75780820151818401526020810190506130ac565b838111156130d6576000848401525b50505050565b600060028204905060018216806130f457607f821691505b6020821081141561310857613107613217565b5b50919050565b61311782613297565b810181811067ffffffffffffffff8211171561313657613135613246565b5b80604052505050565b600061314a82613090565b91507fffffffffffffffffffffffffffffffffffffffffffffffffffffffffffffffff82141561317d5761317c6131b9565b5b600182019050919050565b600061319382613090565b915061319e83613090565b9250826131ae576131ad6131e8565b5b828206905092915050565b7f4e487b7100000000000000000000000000000000000000000000000000000000600052601160045260246000fd5b7f4e487b7100000000000000000000000000000000000000000000000000000000600052601260045260246000fd5b7f4e487b7100000000000000000000000000000000000000000000000000000000600052602260045260246000fd5b7f4e487b7100000000000000000000000000000000000000000000000000000000600052604160045260246000fd5b600060033d11156132945760046000803e6132916000516132a8565b90505b90565b6000601f19601f8301169050919050565b60008160e01c9050919050565b7f455243313135353a207472616e7366657220746f206e6f6e204552433131353560008201527f526563656976657220696d706c656d656e746572000000000000000000000000602082015250565b7f455243313135353a204552433131353552656365697665722072656a6563746560008201527f6420746f6b656e73000000000000000000000000000000000000000000000000602082015250565b7f455243313135353a2062616c616e636520717565727920666f7220746865207a60008201527f65726f2061646472657373000000000000000000000000000000000000000000602082015250565b7f4f776e61626c653a206e6577206f776e657220697320746865207a65726f206160008201527f6464726573730000000000000000000000000000000000000000000000000000602082015250565b7f455243313135353a2063616c6c6572206973206e6f74206f776e6572206e6f7260008201527f20617070726f7665640000000000000000000000000000000000000000000000602082015250565b7f455243313135353a207472616e7366657220746f20746865207a65726f20616460008201527f6472657373000000000000000000000000000000000000000000000000000000602082015250565b7f455243313135353a207472616e736665722063616c6c6572206973206e6f742060008201527f6f776e6572206e6f7220617070726f7665640000000000000000000000000000602082015250565b7f455243313135353a20696e73756666696369656e742062616c616e636520666f60008201527f72207472616e7366657200000000000000000000000000000000000000000000602082015250565b7f2e6a736f6e000000000000000000000000000000000000000000000000000000600082015250565b7f4f776e61626c653a2063616c6c6572206973206e6f7420746865206f776e6572600082015250565b7f4e6f7420656e6f7567682065746865722073656e740000000000000000000000600082015250565b7f68747470733a2f2f6a7472616a616e6f33332e6769746875622e696f2f746f6b60008201527f656e5f7572692f646174612f0000000000000000000000000000000000000000602082015250565b7f455243313135353a2073657474696e6720617070726f76616c2073746174757360008201527f20666f722073656c660000000000000000000000000000000000000000000000602082015250565b7f455243313135353a206163636f756e747320616e6420696473206c656e67746860008201527f206d69736d617463680000000000000000000000000000000000000000000000602082015250565b7f455243313135353a2069647320616e6420616d6f756e7473206c656e6774682060008201527f6d69736d61746368000000000000000000000000000000000000000000000000602082015250565b7f455243313135353a206d696e7420746f20746865207a65726f2061646472657360008201527f7300000000000000000000000000000000000000000000000000000000000000602082015250565b600060443d1015613743576137c6565b61374b612dc0565b60043d036004823e80513d602482011167ffffffffffffffff821117156137735750506137c6565b808201805167ffffffffffffffff81111561379157505050506137c6565b80602083010160043d0385018111156137ae5750505050506137c6565b6137bd8260200185018661310e565b82955050505050505b90565b6137d281613026565b81146137dd57600080fd5b50565b6137e981613038565b81146137f457600080fd5b50565b61380081613044565b811461380b57600080fd5b50565b61381781613090565b811461382257600080fd5b5056fea2646970667358221220f917f8af2243509aae206dc40e0404926107dd990586b01a64aaaee9583b934564736f6c63430008040033",
  "immutableReferences": {},
  "source": "pragma solidity >=0.4.22 <0.9.0;\r\n\r\nimport \"@openzeppelin/contracts/token/ERC1155/ERC1155.sol\";\r\nimport \"@openzeppelin/contracts/access/Ownable.sol\";\r\nimport \"@openzeppelin/contracts/utils/Strings.sol\";\r\n\r\ncontract ElvenHunt is ERC1155, Ownable {\r\n    \r\n    constructor() ERC1155(\"\") {\r\n        //Supply per card rarity(number corresponds to how many stars a card has);\r\n        circulatingSupplyPerItem[1] = [0, 0, 0];\r\n        circulatingSupplyPerItem[2] = [0, 0, 0];   \r\n        circulatingSupplyPerItem[3] = [0, 0, 0];   \r\n        circulatingSupplyPerItem[4] = [0, 0, 0];   \r\n        circulatingSupplyPerItem[5] = [0, 0, 0];      \r\n    }\r\n    \r\n    //Mint Rate per rarity\r\n    uint256 public mintRate_Normal = 0.05 ether;\r\n    uint256 public mintRate_Rare = 0.1 ether;\r\n    uint256 public mintRate_Premium = 0.2 ether;\r\n    \r\n    //CirculatingSupply per item\r\n    mapping(uint256 => uint256[]) public circulatingSupplyPerItem;\r\n    \r\n     struct Card{\r\n      uint256 id;\r\n      string tokenURI;\r\n    }\r\n    \r\n    event ItemMinted(\r\n      uint256 id,\r\n      uint256 circulatingSupply,\r\n      Card card\r\n    );\r\n\r\n    uint256 randNonce = 0;\r\n\r\n    function mintCard(string memory _drawType) public payable {\r\n        \r\n        uint256 amount = 1;\r\n        uint256 mintRate;\r\n        uint256 cardRarity = 5;\r\n        uint256 id = 0;\r\n        \r\n        if(keccak256(bytes(_drawType)) == keccak256(bytes(\"normal\"))){\r\n            mintRate = mintRate_Normal;\r\n            //cardRarity = randomNumberGenerator(1,3);\r\n        }\r\n        else if(keccak256(bytes(_drawType)) == keccak256(bytes(\"rare\"))){\r\n            mintRate = mintRate_Rare;\r\n            //cardRarity = randomNumberGenerator(2,4);\r\n        }\r\n        else if(keccak256(bytes(_drawType)) == keccak256(bytes(\"premium\"))){\r\n            mintRate = mintRate_Premium;\r\n            //cardRarity = randomNumberGenerator(3,5);\r\n        }\r\n        else{\r\n            mintRate = mintRate_Premium;\r\n            //cardRarity = randomNumberGenerator(3,5);\r\n        }\r\n        \r\n        //id = randomNumberGenerator(1, circulatingSupplyPerItem[cardRarity].length) - 1;\r\n         \r\n        require(msg.value >= (amount * mintRate), \"Not enough ether sent\"); \r\n        \r\n        uint256 cardId = (cardRarity*100) + id;\r\n        \r\n        string memory uriToken = string(abi.encodePacked(\"https://jtrajano33.github.io/token_uri/data/\",Strings.toString(cardId), \".json\"));\r\n        \r\n        _setURI(uriToken);\r\n        \r\n        _mint(msg.sender, cardId, amount, \"\");\r\n        circulatingSupplyPerItem[cardRarity][id] += amount;\r\n      \r\n        Card memory _card = Card(cardId, uriToken);\r\n        \r\n        emit ItemMinted(cardId, circulatingSupplyPerItem[cardRarity][id], _card);\r\n    }\r\n    \r\n    function randomNumberGenerator(uint256 _minRarity, uint256 _maxRarity) internal returns (uint) {\r\n        //Returns random number from 0 - (_maxRarity - 1)\r\n\t    randNonce++;\r\n        uint randomnumber = uint(keccak256(abi.encodePacked(block.timestamp, msg.sender, randNonce))) % ((_maxRarity + 1) - _minRarity);\r\n        \r\n        // Add the minimum rarity you want\r\n        randomnumber = randomnumber + _minRarity;\r\n \r\n        return randomnumber;\r\n    }\r\n}",
  "sourcePath": "C:/Users/skillet15/Desktop/Blockchain/Phaser_Game/src/contracts/ElvenHunt.sol",
  "compiler": {
    "name": "solc",
    "version": "0.8.4+commit.c7e474f2.Emscripten.clang"
  },
  "schemaVersion": "3.2.3",
  "updatedAt": "2021-11-30T15:36:24.629Z",
  "networkType": "ethereum",
  "devdoc": {
    "kind": "dev",
    "methods": {
      "balanceOf(address,uint256)": {
        "details": "See {IERC1155-balanceOf}. Requirements: - `account` cannot be the zero address."
      },
      "balanceOfBatch(address[],uint256[])": {
        "details": "See {IERC1155-balanceOfBatch}. Requirements: - `accounts` and `ids` must have the same length."
      },
      "isApprovedForAll(address,address)": {
        "details": "See {IERC1155-isApprovedForAll}."
      },
      "owner()": {
        "details": "Returns the address of the current owner."
      },
      "renounceOwnership()": {
        "details": "Leaves the contract without owner. It will not be possible to call `onlyOwner` functions anymore. Can only be called by the current owner. NOTE: Renouncing ownership will leave the contract without an owner, thereby removing any functionality that is only available to the owner."
      },
      "safeBatchTransferFrom(address,address,uint256[],uint256[],bytes)": {
        "details": "See {IERC1155-safeBatchTransferFrom}."
      },
      "safeTransferFrom(address,address,uint256,uint256,bytes)": {
        "details": "See {IERC1155-safeTransferFrom}."
      },
      "setApprovalForAll(address,bool)": {
        "details": "See {IERC1155-setApprovalForAll}."
      },
      "supportsInterface(bytes4)": {
        "details": "See {IERC165-supportsInterface}."
      },
      "transferOwnership(address)": {
        "details": "Transfers ownership of the contract to a new account (`newOwner`). Can only be called by the current owner."
      },
      "uri(uint256)": {
        "details": "See {IERC1155MetadataURI-uri}. This implementation returns the same URI for *all* token types. It relies on the token type ID substitution mechanism https://eips.ethereum.org/EIPS/eip-1155#metadata[defined in the EIP]. Clients calling this function must replace the `\\{id\\}` substring with the actual token type ID."
      }
    },
    "version": 1
  },
  "userdoc": {
    "kind": "user",
    "methods": {},
    "version": 1
  }
}