{
  "contractName": "ElvenHunt",
  "abi": [
    {
      "inputs": [],
      "stateMutability": "nonpayable",
      "type": "constructor"
    },
    {
      "anonymous": false,
      "inputs": [
        {
          "indexed": true,
          "internalType": "address",
          "name": "account",
          "type": "address"
        },
        {
          "indexed": true,
          "internalType": "address",
          "name": "operator",
          "type": "address"
        },
        {
          "indexed": false,
          "internalType": "bool",
          "name": "approved",
          "type": "bool"
        }
      ],
      "name": "ApprovalForAll",
      "type": "event"
    },
    {
      "anonymous": false,
      "inputs": [
        {
          "indexed": false,
          "internalType": "uint256",
          "name": "id",
          "type": "uint256"
        },
        {
          "indexed": false,
          "internalType": "uint256",
          "name": "itemId",
          "type": "uint256"
        },
        {
          "indexed": false,
          "internalType": "uint256",
          "name": "price",
          "type": "uint256"
        },
        {
          "indexed": false,
          "internalType": "uint256",
          "name": "available",
          "type": "uint256"
        },
        {
          "indexed": false,
          "internalType": "uint256",
          "name": "sold",
          "type": "uint256"
        },
        {
          "indexed": false,
          "internalType": "address payable",
          "name": "seller",
          "type": "address"
        },
        {
          "indexed": false,
          "internalType": "address[]",
          "name": "buyers",
          "type": "address[]"
        },
        {
          "indexed": false,
          "internalType": "bool",
          "name": "forSale",
          "type": "bool"
        }
      ],
      "name": "ItemListed",
      "type": "event"
    },
    {
      "anonymous": false,
      "inputs": [
        {
          "indexed": false,
          "internalType": "uint256",
          "name": "id",
          "type": "uint256"
        },
        {
          "indexed": false,
          "internalType": "uint256",
          "name": "circulatingSupply",
          "type": "uint256"
        },
        {
          "components": [
            {
              "internalType": "uint256",
              "name": "id",
              "type": "uint256"
            },
            {
              "internalType": "string",
              "name": "tokenURI",
              "type": "string"
            }
          ],
          "indexed": false,
          "internalType": "struct ElvenHunt.Card",
          "name": "card",
          "type": "tuple"
        }
      ],
      "name": "ItemMinted",
      "type": "event"
    },
    {
      "anonymous": false,
      "inputs": [
        {
          "indexed": false,
          "internalType": "uint256",
          "name": "id",
          "type": "uint256"
        },
        {
          "indexed": false,
          "internalType": "uint256",
          "name": "itemId",
          "type": "uint256"
        },
        {
          "indexed": false,
          "internalType": "uint256",
          "name": "price",
          "type": "uint256"
        },
        {
          "indexed": false,
          "internalType": "uint256",
          "name": "available",
          "type": "uint256"
        },
        {
          "indexed": false,
          "internalType": "uint256",
          "name": "sold",
          "type": "uint256"
        },
        {
          "indexed": false,
          "internalType": "address payable",
          "name": "seller",
          "type": "address"
        },
        {
          "indexed": false,
          "internalType": "address[]",
          "name": "buyers",
          "type": "address[]"
        },
        {
          "indexed": false,
          "internalType": "bool",
          "name": "forSale",
          "type": "bool"
        }
      ],
      "name": "ItemSold",
      "type": "event"
    },
    {
      "anonymous": false,
      "inputs": [
        {
          "indexed": true,
          "internalType": "address",
          "name": "previousOwner",
          "type": "address"
        },
        {
          "indexed": true,
          "internalType": "address",
          "name": "newOwner",
          "type": "address"
        }
      ],
      "name": "OwnershipTransferred",
      "type": "event"
    },
    {
      "anonymous": false,
      "inputs": [
        {
          "indexed": true,
          "internalType": "address",
          "name": "operator",
          "type": "address"
        },
        {
          "indexed": true,
          "internalType": "address",
          "name": "from",
          "type": "address"
        },
        {
          "indexed": true,
          "internalType": "address",
          "name": "to",
          "type": "address"
        },
        {
          "indexed": false,
          "internalType": "uint256[]",
          "name": "ids",
          "type": "uint256[]"
        },
        {
          "indexed": false,
          "internalType": "uint256[]",
          "name": "values",
          "type": "uint256[]"
        }
      ],
      "name": "TransferBatch",
      "type": "event"
    },
    {
      "anonymous": false,
      "inputs": [
        {
          "indexed": true,
          "internalType": "address",
          "name": "operator",
          "type": "address"
        },
        {
          "indexed": true,
          "internalType": "address",
          "name": "from",
          "type": "address"
        },
        {
          "indexed": true,
          "internalType": "address",
          "name": "to",
          "type": "address"
        },
        {
          "indexed": false,
          "internalType": "uint256",
          "name": "id",
          "type": "uint256"
        },
        {
          "indexed": false,
          "internalType": "uint256",
          "name": "value",
          "type": "uint256"
        }
      ],
      "name": "TransferSingle",
      "type": "event"
    },
    {
      "anonymous": false,
      "inputs": [
        {
          "indexed": false,
          "internalType": "string",
          "name": "value",
          "type": "string"
        },
        {
          "indexed": true,
          "internalType": "uint256",
          "name": "id",
          "type": "uint256"
        }
      ],
      "name": "URI",
      "type": "event"
    },
    {
      "inputs": [
        {
          "internalType": "address",
          "name": "account",
          "type": "address"
        },
        {
          "internalType": "uint256",
          "name": "id",
          "type": "uint256"
        }
      ],
      "name": "balanceOf",
      "outputs": [
        {
          "internalType": "uint256",
          "name": "",
          "type": "uint256"
        }
      ],
      "stateMutability": "view",
      "type": "function",
      "constant": true
    },
    {
      "inputs": [
        {
          "internalType": "address[]",
          "name": "accounts",
          "type": "address[]"
        },
        {
          "internalType": "uint256[]",
          "name": "ids",
          "type": "uint256[]"
        }
      ],
      "name": "balanceOfBatch",
      "outputs": [
        {
          "internalType": "uint256[]",
          "name": "",
          "type": "uint256[]"
        }
      ],
      "stateMutability": "view",
      "type": "function",
      "constant": true
    },
    {
      "inputs": [
        {
          "internalType": "uint256",
          "name": "",
          "type": "uint256"
        },
        {
          "internalType": "uint256",
          "name": "",
          "type": "uint256"
        }
      ],
      "name": "circulatingSupplyPerItem",
      "outputs": [
        {
          "internalType": "uint256",
          "name": "",
          "type": "uint256"
        }
      ],
      "stateMutability": "view",
      "type": "function",
      "constant": true
    },
    {
      "inputs": [],
      "name": "commissionFeePercentage",
      "outputs": [
        {
          "internalType": "uint256",
          "name": "",
          "type": "uint256"
        }
      ],
      "stateMutability": "view",
      "type": "function",
      "constant": true
    },
    {
      "inputs": [
        {
          "internalType": "address",
          "name": "account",
          "type": "address"
        },
        {
          "internalType": "address",
          "name": "operator",
          "type": "address"
        }
      ],
      "name": "isApprovedForAll",
      "outputs": [
        {
          "internalType": "bool",
          "name": "",
          "type": "bool"
        }
      ],
      "stateMutability": "view",
      "type": "function",
      "constant": true
    },
    {
      "inputs": [],
      "name": "itemCounter",
      "outputs": [
        {
          "internalType": "uint256",
          "name": "",
          "type": "uint256"
        }
      ],
      "stateMutability": "view",
      "type": "function",
      "constant": true
    },
    {
      "inputs": [
        {
          "internalType": "uint256",
          "name": "",
          "type": "uint256"
        }
      ],
      "name": "items",
      "outputs": [
        {
          "internalType": "uint256",
          "name": "id",
          "type": "uint256"
        },
        {
          "internalType": "uint256",
          "name": "itemId",
          "type": "uint256"
        },
        {
          "internalType": "uint256",
          "name": "price",
          "type": "uint256"
        },
        {
          "internalType": "uint256",
          "name": "available",
          "type": "uint256"
        },
        {
          "internalType": "uint256",
          "name": "sold",
          "type": "uint256"
        },
        {
          "internalType": "address payable",
          "name": "seller",
          "type": "address"
        },
        {
          "internalType": "bool",
          "name": "forSale",
          "type": "bool"
        }
      ],
      "stateMutability": "view",
      "type": "function",
      "constant": true
    },
    {
      "inputs": [],
      "name": "mintRate_Normal",
      "outputs": [
        {
          "internalType": "uint256",
          "name": "",
          "type": "uint256"
        }
      ],
      "stateMutability": "view",
      "type": "function",
      "constant": true
    },
    {
      "inputs": [],
      "name": "mintRate_Premium",
      "outputs": [
        {
          "internalType": "uint256",
          "name": "",
          "type": "uint256"
        }
      ],
      "stateMutability": "view",
      "type": "function",
      "constant": true
    },
    {
      "inputs": [],
      "name": "mintRate_Rare",
      "outputs": [
        {
          "internalType": "uint256",
          "name": "",
          "type": "uint256"
        }
      ],
      "stateMutability": "view",
      "type": "function",
      "constant": true
    },
    {
      "inputs": [],
      "name": "owner",
      "outputs": [
        {
          "internalType": "address",
          "name": "",
          "type": "address"
        }
      ],
      "stateMutability": "view",
      "type": "function",
      "constant": true
    },
    {
      "inputs": [
        {
          "internalType": "address",
          "name": "",
          "type": "address"
        },
        {
          "internalType": "uint256",
          "name": "",
          "type": "uint256"
        }
      ],
      "name": "playerToItemsOnSale",
      "outputs": [
        {
          "internalType": "uint256",
          "name": "orderId",
          "type": "uint256"
        },
        {
          "internalType": "uint256",
          "name": "quantity",
          "type": "uint256"
        },
        {
          "internalType": "uint256",
          "name": "price",
          "type": "uint256"
        }
      ],
      "stateMutability": "view",
      "type": "function",
      "constant": true
    },
    {
      "inputs": [
        {
          "internalType": "address",
          "name": "",
          "type": "address"
        }
      ],
      "name": "playerToRewardPoints",
      "outputs": [
        {
          "internalType": "uint256",
          "name": "",
          "type": "uint256"
        }
      ],
      "stateMutability": "view",
      "type": "function",
      "constant": true
    },
    {
      "inputs": [],
      "name": "renounceOwnership",
      "outputs": [],
      "stateMutability": "nonpayable",
      "type": "function"
    },
    {
      "inputs": [
        {
          "internalType": "address",
          "name": "from",
          "type": "address"
        },
        {
          "internalType": "address",
          "name": "to",
          "type": "address"
        },
        {
          "internalType": "uint256[]",
          "name": "ids",
          "type": "uint256[]"
        },
        {
          "internalType": "uint256[]",
          "name": "amounts",
          "type": "uint256[]"
        },
        {
          "internalType": "bytes",
          "name": "data",
          "type": "bytes"
        }
      ],
      "name": "safeBatchTransferFrom",
      "outputs": [],
      "stateMutability": "nonpayable",
      "type": "function"
    },
    {
      "inputs": [
        {
          "internalType": "address",
          "name": "from",
          "type": "address"
        },
        {
          "internalType": "address",
          "name": "to",
          "type": "address"
        },
        {
          "internalType": "uint256",
          "name": "id",
          "type": "uint256"
        },
        {
          "internalType": "uint256",
          "name": "amount",
          "type": "uint256"
        },
        {
          "internalType": "bytes",
          "name": "data",
          "type": "bytes"
        }
      ],
      "name": "safeTransferFrom",
      "outputs": [],
      "stateMutability": "nonpayable",
      "type": "function"
    },
    {
      "inputs": [
        {
          "internalType": "address",
          "name": "operator",
          "type": "address"
        },
        {
          "internalType": "bool",
          "name": "approved",
          "type": "bool"
        }
      ],
      "name": "setApprovalForAll",
      "outputs": [],
      "stateMutability": "nonpayable",
      "type": "function"
    },
    {
      "inputs": [
        {
          "internalType": "bytes4",
          "name": "interfaceId",
          "type": "bytes4"
        }
      ],
      "name": "supportsInterface",
      "outputs": [
        {
          "internalType": "bool",
          "name": "",
          "type": "bool"
        }
      ],
      "stateMutability": "view",
      "type": "function",
      "constant": true
    },
    {
      "inputs": [
        {
          "internalType": "address",
          "name": "newOwner",
          "type": "address"
        }
      ],
      "name": "transferOwnership",
      "outputs": [],
      "stateMutability": "nonpayable",
      "type": "function"
    },
    {
      "inputs": [
        {
          "internalType": "uint256",
          "name": "",
          "type": "uint256"
        }
      ],
      "name": "uri",
      "outputs": [
        {
          "internalType": "string",
          "name": "",
          "type": "string"
        }
      ],
      "stateMutability": "view",
      "type": "function",
      "constant": true
    },
    {
      "inputs": [
        {
          "internalType": "string",
          "name": "_drawType",
          "type": "string"
        }
      ],
      "name": "mintCard",
      "outputs": [],
      "stateMutability": "payable",
      "type": "function",
      "payable": true
    },
    {
      "inputs": [
        {
          "internalType": "uint256",
          "name": "_itemId",
          "type": "uint256"
        },
        {
          "internalType": "uint256",
          "name": "_price",
          "type": "uint256"
        },
        {
          "internalType": "uint256",
          "name": "quantity",
          "type": "uint256"
        }
      ],
      "name": "sellItem",
      "outputs": [],
      "stateMutability": "nonpayable",
      "type": "function"
    },
    {
      "inputs": [
        {
          "internalType": "uint256",
          "name": "_orderId",
          "type": "uint256"
        },
        {
          "internalType": "uint256",
          "name": "quantity",
          "type": "uint256"
        }
      ],
      "name": "buyItem",
      "outputs": [],
      "stateMutability": "payable",
      "type": "function",
      "payable": true
    },
    {
      "inputs": [
        {
          "internalType": "uint256",
          "name": "_orderId",
          "type": "uint256"
        }
      ],
      "name": "cancelSale",
      "outputs": [],
      "stateMutability": "nonpayable",
      "type": "function"
    },
    {
      "inputs": [
        {
          "internalType": "uint256",
          "name": "_amount",
          "type": "uint256"
        }
      ],
      "name": "withdraw",
      "outputs": [],
      "stateMutability": "nonpayable",
      "type": "function"
    },
    {
      "inputs": [
        {
          "internalType": "uint256",
          "name": "fee",
          "type": "uint256"
        }
      ],
      "name": "changeCommissionFee",
      "outputs": [],
      "stateMutability": "nonpayable",
      "type": "function"
    },
    {
      "inputs": [],
      "name": "getTotalContractSales",
      "outputs": [
        {
          "internalType": "uint256",
          "name": "amount",
          "type": "uint256"
        }
      ],
      "stateMutability": "view",
      "type": "function",
      "constant": true
    }
  ],
  "bytecode": "0x608060405266b1a2bc2ec5000060045567016345785d8a00006005556702c68af0bb14000060065560006008556003600c556000600d553480156200004357600080fd5b506040518060200160405280600081525062000065816200020860201b60201c565b50620000866200007a6200022460201b60201c565b6200022c60201b60201c565b6040518060600160405280600060ff168152602001600060ff168152602001600060ff168152506007600060018152602001908152602001600020906003620000d1929190620002f2565b506040518060600160405280600060ff168152602001600060ff168152602001600060ff1681525060076000600281526020019081526020016000209060036200011d929190620002f2565b506040518060600160405280600060ff168152602001600060ff168152602001600060ff16815250600760006003815260200190815260200160002090600362000169929190620002f2565b506040518060600160405280600060ff168152602001600060ff168152602001600060ff168152506007600060048152602001908152602001600020906003620001b5929190620002f2565b506040518060600160405280600060ff168152602001600060ff168152602001600060ff16815250600760006005815260200190815260200160002090600362000201929190620002f2565b506200045e565b80600290805190602001906200022092919062000349565b5050565b600033905090565b6000600360009054906101000a900473ffffffffffffffffffffffffffffffffffffffff16905081600360006101000a81548173ffffffffffffffffffffffffffffffffffffffff021916908373ffffffffffffffffffffffffffffffffffffffff1602179055508173ffffffffffffffffffffffffffffffffffffffff168173ffffffffffffffffffffffffffffffffffffffff167f8be0079c531659141344cd1fd0a4f28419497f9722a3daafe3b4186f6b6457e060405160405180910390a35050565b82805482825590600052602060002090810192821562000336579160200282015b8281111562000335578251829060ff1690559160200191906001019062000313565b5b509050620003459190620003da565b5090565b8280546200035790620003f9565b90600052602060002090601f0160209004810192826200037b5760008555620003c7565b82601f106200039657805160ff1916838001178555620003c7565b82800160010185558215620003c7579182015b82811115620003c6578251825591602001919060010190620003a9565b5b509050620003d69190620003da565b5090565b5b80821115620003f5576000816000905550600101620003db565b5090565b600060028204905060018216806200041257607f821691505b602082108114156200042957620004286200042f565b5b50919050565b7f4e487b7100000000000000000000000000000000000000000000000000000000600052602260045260246000fd5b61575e806200046e6000396000f3fe60806040526004361061019b5760003560e01c80638da5cb5b116100ec578063bfb231d21161008a578063e985e9c511610064578063e985e9c5146105e6578063f0ce512014610623578063f242432a1461063f578063f2fde38b146106685761019b565b8063bfb231d21461054d578063c4ff21ca14610590578063c50b6845146105bb5761019b565b8063aa553909116100c6578063aa5539091461047f578063ab17bc1e146104bc578063b7cecb16146104f9578063bd94b005146105245761019b565b80638da5cb5b1461040f5780639979c0091461043a578063a22cb465146104565761019b565b80632e1a7d4d116101595780633f6f1d65116101335780633f6f1d65146103655780634e1273f4146103905780636d6d00ed146103cd578063715018a6146103f85761019b565b80632e1a7d4d146102e85780632eb2c2d6146103115780632f0b41831461033a5761019b565b8062fdd58e146101a057806301ffc9a7146101dd5780630e89341c1461021a5780631304e535146102575780631744c700146102805780631cf196df146102bf575b600080fd5b3480156101ac57600080fd5b506101c760048036038101906101c2919061386e565b610691565b6040516101d49190614627565b60405180910390f35b3480156101e957600080fd5b5061020460048036038101906101ff9190613916565b61075a565b604051610211919061428a565b60405180910390f35b34801561022657600080fd5b50610241600480360381019061023c91906139a9565b61083c565b60405161024e91906142a5565b60405180910390f35b34801561026357600080fd5b5061027e60048036038101906102799190613a0e565b6108d0565b005b34801561028c57600080fd5b506102a760048036038101906102a2919061386e565b610e71565b6040516102b6939291906146a9565b60405180910390f35b3480156102cb57600080fd5b506102e660048036038101906102e191906139a9565b610ea8565b005b3480156102f457600080fd5b5061030f600480360381019061030a91906139a9565b610f2e565b005b34801561031d57600080fd5b50610338600480360381019061033391906136e4565b611087565b005b34801561034657600080fd5b5061034f611128565b60405161035c9190614627565b60405180910390f35b34801561037157600080fd5b5061037a61112e565b6040516103879190614627565b60405180910390f35b34801561039c57600080fd5b506103b760048036038101906103b291906138aa565b6111b2565b6040516103c49190614231565b60405180910390f35b3480156103d957600080fd5b506103e2611363565b6040516103ef9190614627565b60405180910390f35b34801561040457600080fd5b5061040d611369565b005b34801561041b57600080fd5b506104246113f1565b6040516104319190614154565b60405180910390f35b610454600480360381019061044f91906139d2565b61141b565b005b34801561046257600080fd5b5061047d60048036038101906104789190613832565b611adf565b005b34801561048b57600080fd5b506104a660048036038101906104a191906139d2565b611c60565b6040516104b39190614627565b60405180910390f35b3480156104c857600080fd5b506104e360048036038101906104de919061367f565b611c91565b6040516104f09190614627565b60405180910390f35b34801561050557600080fd5b5061050e611ca9565b60405161051b9190614627565b60405180910390f35b34801561053057600080fd5b5061054b600480360381019061054691906139a9565b611caf565b005b34801561055957600080fd5b50610574600480360381019061056f91906139a9565b611e30565b60405161058797969594939291906147ea565b60405180910390f35b34801561059c57600080fd5b506105a5611e9f565b6040516105b29190614627565b60405180910390f35b3480156105c757600080fd5b506105d0611ea5565b6040516105dd9190614627565b60405180910390f35b3480156105f257600080fd5b5061060d600480360381019061060891906136a8565b611eab565b60405161061a919061428a565b60405180910390f35b61063d60048036038101906106389190613968565b611f3f565b005b34801561064b57600080fd5b50610666600480360381019061066191906137a3565b61222e565b005b34801561067457600080fd5b5061068f600480360381019061068a919061367f565b6122cf565b005b60008073ffffffffffffffffffffffffffffffffffffffff168373ffffffffffffffffffffffffffffffffffffffff161415610702576040517f08c379a00000000000000000000000000000000000000000000000000000000081526004016106f990614347565b60405180910390fd5b60008083815260200190815260200160002060008473ffffffffffffffffffffffffffffffffffffffff1673ffffffffffffffffffffffffffffffffffffffff16815260200190815260200160002054905092915050565b60007fd9b67a26000000000000000000000000000000000000000000000000000000007bffffffffffffffffffffffffffffffffffffffffffffffffffffffff1916827bffffffffffffffffffffffffffffffffffffffffffffffffffffffff1916148061082557507f0e89341c000000000000000000000000000000000000000000000000000000007bffffffffffffffffffffffffffffffffffffffffffffffffffffffff1916827bffffffffffffffffffffffffffffffffffffffffffffffffffffffff1916145b806108355750610834826123c7565b5b9050919050565b60606002805461084b90614c3a565b80601f016020809104026020016040519081016040528092919081815260200182805461087790614c3a565b80156108c45780601f10610899576101008083540402835291602001916108c4565b820191906000526020600020905b8154815290600101906020018083116108a757829003601f168201915b50505050509050919050565b6000600a60003373ffffffffffffffffffffffffffffffffffffffff1673ffffffffffffffffffffffffffffffffffffffff1681526020019081526020016000206000858152602001908152602001600020600101549050600073ffffffffffffffffffffffffffffffffffffffff163373ffffffffffffffffffffffffffffffffffffffff161415610998576040517f08c379a000000000000000000000000000000000000000000000000000000000815260040161098f906144c7565b60405180910390fd5b60018210156109dc576040517f08c379a00000000000000000000000000000000000000000000000000000000081526004016109d3906143a7565b60405180910390fd5b60016109e83386610691565b1015610a29576040517f08c379a0000000000000000000000000000000000000000000000000000000008152600401610a2090614507565b60405180910390fd5b81610a343386610691565b1015610a75576040517f08c379a0000000000000000000000000000000000000000000000000000000008152600401610a6c90614387565b60405180910390fd5b6000600a60003373ffffffffffffffffffffffffffffffffffffffff1673ffffffffffffffffffffffffffffffffffffffff1681526020019081526020016000206000868152602001908152602001600020600001541115610b0c576040517f08c379a0000000000000000000000000000000000000000000000000000000008152600401610b0390614447565b60405180910390fd5b8181610b183387610691565b610b229190614b0c565b1015610b63576040517f08c379a0000000000000000000000000000000000000000000000000000000008152600401610b5a906144e7565b60405180910390fd5b60086000815480929190610b7690614cb7565b919050555060006040518061010001604052806008548152602001868152602001858152602001848152602001600081526020013373ffffffffffffffffffffffffffffffffffffffff168152602001600067ffffffffffffffff811115610c07577f4e487b7100000000000000000000000000000000000000000000000000000000600052604160045260246000fd5b604051908082528060200260200182016040528015610c355781602001602082028036833780820191505090505b50815260200160011515815250905080600960006008548152602001908152602001600020600082015181600001556020820151816001015560408201518160020155606082015181600301556080820151816004015560a08201518160050160006101000a81548173ffffffffffffffffffffffffffffffffffffffff021916908373ffffffffffffffffffffffffffffffffffffffff16021790555060c0820151816006019080519060200190610cef9291906132ed565b5060e08201518160070160006101000a81548160ff0219169083151502179055509050506000604051806060016040528060085481526020018585610d349190614a2b565b815260200186815250905080600a60003373ffffffffffffffffffffffffffffffffffffffff1673ffffffffffffffffffffffffffffffffffffffff16815260200190815260200160002060008881526020019081526020016000206000820151816000015560208201518160010155604082015181600201559050507f5c2dc4bea78ba864380f5a01d8b498df207d5755fb91eccd1681f1380b504611600854878787600033600067ffffffffffffffff811115610e1c577f4e487b7100000000000000000000000000000000000000000000000000000000600052604160045260246000fd5b604051908082528060200260200182016040528015610e4a5781602001602082028036833780820191505090505b506001604051610e619897969594939291906146e0565b60405180910390a1505050505050565b600a602052816000526040600020602052806000526040600020600091509150508060000154908060010154908060020154905083565b610eb0612431565b73ffffffffffffffffffffffffffffffffffffffff16610ece6113f1565b73ffffffffffffffffffffffffffffffffffffffff1614610f24576040517f08c379a0000000000000000000000000000000000000000000000000000000008152600401610f1b90614487565b60405180910390fd5b80600c8190555050565b610f36612431565b73ffffffffffffffffffffffffffffffffffffffff16610f546113f1565b73ffffffffffffffffffffffffffffffffffffffff1614610faa576040517f08c379a0000000000000000000000000000000000000000000000000000000008152600401610fa190614487565b60405180910390fd5b60004711610fed576040517f08c379a0000000000000000000000000000000000000000000000000000000008152600401610fe4906145c7565b60405180910390fd5b80471015611030576040517f08c379a000000000000000000000000000000000000000000000000000000000815260040161102790614607565b60405180910390fd5b600061103a6113f1565b90508073ffffffffffffffffffffffffffffffffffffffff166108fc839081150290604051600060405180830381858888f19350505050158015611082573d6000803e3d6000fd5b505050565b61108f612431565b73ffffffffffffffffffffffffffffffffffffffff168573ffffffffffffffffffffffffffffffffffffffff1614806110d557506110d4856110cf612431565b611eab565b5b611114576040517f08c379a000000000000000000000000000000000000000000000000000000000815260040161110b90614407565b60405180910390fd5b6111218585858585612439565b5050505050565b60045481565b6000611138612431565b73ffffffffffffffffffffffffffffffffffffffff166111566113f1565b73ffffffffffffffffffffffffffffffffffffffff16146111ac576040517f08c379a00000000000000000000000000000000000000000000000000000000081526004016111a390614487565b60405180910390fd5b47905090565b606081518351146111f8576040517f08c379a00000000000000000000000000000000000000000000000000000000081526004016111ef90614567565b60405180910390fd5b6000835167ffffffffffffffff81111561123b577f4e487b7100000000000000000000000000000000000000000000000000000000600052604160045260246000fd5b6040519080825280602002602001820160405280156112695781602001602082028036833780820191505090505b50905060005b8451811015611358576113028582815181106112b4577f4e487b7100000000000000000000000000000000000000000000000000000000600052603260045260246000fd5b60200260200101518583815181106112f5577f4e487b7100000000000000000000000000000000000000000000000000000000600052603260045260246000fd5b6020026020010151610691565b82828151811061133b577f4e487b7100000000000000000000000000000000000000000000000000000000600052603260045260246000fd5b6020026020010181815250508061135190614cb7565b905061126f565b508091505092915050565b60085481565b611371612431565b73ffffffffffffffffffffffffffffffffffffffff1661138f6113f1565b73ffffffffffffffffffffffffffffffffffffffff16146113e5576040517f08c379a00000000000000000000000000000000000000000000000000000000081526004016113dc90614487565b60405180910390fd5b6113ef6000612799565b565b6000600360009054906101000a900473ffffffffffffffffffffffffffffffffffffffff16905090565b60006009600084815260200190815260200160002060050160009054906101000a900473ffffffffffffffffffffffffffffffffffffffff1690506000600960008581526020019081526020016000206001015490508260096000868152602001908152602001600020600201546114939190614ab2565b3410156114d5576040517f08c379a00000000000000000000000000000000000000000000000000000000081526004016114cc90614327565b60405180910390fd5b600073ffffffffffffffffffffffffffffffffffffffff163373ffffffffffffffffffffffffffffffffffffffff161415611545576040517f08c379a000000000000000000000000000000000000000000000000000000000815260040161153c906144c7565b60405180910390fd5b3373ffffffffffffffffffffffffffffffffffffffff168273ffffffffffffffffffffffffffffffffffffffff1614156115b4576040517f08c379a00000000000000000000000000000000000000000000000000000000081526004016115ab90614467565b60405180910390fd5b6009600085815260200190815260200160002060070160009054906101000a900460ff16611617576040517f08c379a000000000000000000000000000000000000000000000000000000000815260040161160e906145e7565b60405180910390fd5b600183101561165b576040517f08c379a0000000000000000000000000000000000000000000000000000000008152600401611652906143a7565b60405180910390fd5b82600960008681526020019081526020016000206003015410156116b4576040517f08c379a00000000000000000000000000000000000000000000000000000000081526004016116ab90614307565b60405180910390fd5b60006064600c54346116c69190614ab2565b6116d09190614a81565b9050600081346116e09190614b0c565b90508373ffffffffffffffffffffffffffffffffffffffff166108fc829081150290604051600060405180830381858888f19350505050158015611728573d6000803e3d6000fd5b50611745843385886040518060200160405280600081525061285f565b60096000878152602001908152602001600020600601339080600181540180825580915050600190039060005260206000200160009091909190916101000a81548173ffffffffffffffffffffffffffffffffffffffff021916908373ffffffffffffffffffffffffffffffffffffffff1602179055508460096000888152602001908152602001600020600301546117de9190614b0c565b600960008881526020019081526020016000206003018190555084600960008881526020019081526020016000206004015461181a9190614a2b565b600960008881526020019081526020016000206004018190555060006009600088815260200190815260200160002060030154116119345760006009600088815260200190815260200160002060070160006101000a81548160ff0219169083151502179055506000600a60008673ffffffffffffffffffffffffffffffffffffffff1673ffffffffffffffffffffffffffffffffffffffff1681526020019081526020016000206000858152602001908152602001600020600201819055506000600a60008673ffffffffffffffffffffffffffffffffffffffff1673ffffffffffffffffffffffffffffffffffffffff1681526020019081526020016000206000858152602001908152602001600020600001819055505b84600a60008673ffffffffffffffffffffffffffffffffffffffff1673ffffffffffffffffffffffffffffffffffffffff1681526020019081526020016000206000858152602001908152602001600020600101546119939190614b0c565b600a60008673ffffffffffffffffffffffffffffffffffffffff1673ffffffffffffffffffffffffffffffffffffffff16815260200190815260200160002060008581526020019081526020016000206001018190555034600b60003373ffffffffffffffffffffffffffffffffffffffff1673ffffffffffffffffffffffffffffffffffffffff168152602001908152602001600020819055507f017d9a122954e647a7937f05d0cdc4edb9f9928fc3264784f5abd6a297a758fc6009600088815260200190815260200160002060000154843488600960008c81526020019081526020016000206004015489600960008e8152602001908152602001600020600601600960008f815260200190815260200160002060070160009054906101000a900460ff16604051611acf989796959493929190614765565b60405180910390a1505050505050565b8173ffffffffffffffffffffffffffffffffffffffff16611afe612431565b73ffffffffffffffffffffffffffffffffffffffff161415611b55576040517f08c379a0000000000000000000000000000000000000000000000000000000008152600401611b4c90614547565b60405180910390fd5b8060016000611b62612431565b73ffffffffffffffffffffffffffffffffffffffff1673ffffffffffffffffffffffffffffffffffffffff16815260200190815260200160002060008473ffffffffffffffffffffffffffffffffffffffff1673ffffffffffffffffffffffffffffffffffffffff16815260200190815260200160002060006101000a81548160ff0219169083151502179055508173ffffffffffffffffffffffffffffffffffffffff16611c0f612431565b73ffffffffffffffffffffffffffffffffffffffff167f17307eab39ab6107e8899845ad3d59bd9653f200f220920489ca2b5937696c3183604051611c54919061428a565b60405180910390a35050565b60076020528160005260406000208181548110611c7c57600080fd5b90600052602060002001600091509150505481565b600b6020528060005260406000206000915090505481565b60065481565b6009600082815260200190815260200160002060050160009054906101000a900473ffffffffffffffffffffffffffffffffffffffff1673ffffffffffffffffffffffffffffffffffffffff163373ffffffffffffffffffffffffffffffffffffffff1614611d53576040517f08c379a0000000000000000000000000000000000000000000000000000000008152600401611d4a906144a7565b60405180910390fd5b60006009600083815260200190815260200160002060070160006101000a81548160ff0219169083151502179055506000604051806060016040528060008152602001600081526020016000815250905080600a60003373ffffffffffffffffffffffffffffffffffffffff1673ffffffffffffffffffffffffffffffffffffffff1681526020019081526020016000206000600960008681526020019081526020016000206001015481526020019081526020016000206000820151816000015560208201518160010155604082015181600201559050505050565b60096020528060005260406000206000915090508060000154908060010154908060020154908060030154908060040154908060050160009054906101000a900473ffffffffffffffffffffffffffffffffffffffff16908060070160009054906101000a900460ff16905087565b60055481565b600c5481565b6000600160008473ffffffffffffffffffffffffffffffffffffffff1673ffffffffffffffffffffffffffffffffffffffff16815260200190815260200160002060008373ffffffffffffffffffffffffffffffffffffffff1673ffffffffffffffffffffffffffffffffffffffff16815260200190815260200160002060009054906101000a900460ff16905092915050565b6000600190506000806005905060006040518060400160405280600681526020017f6e6f726d616c00000000000000000000000000000000000000000000000000008152508051906020012085805190602001201415611fa3576004549250612055565b6040518060400160405280600481526020017f72617265000000000000000000000000000000000000000000000000000000008152508051906020012085805190602001201415611ff8576005549250612054565b6040518060400160405280600781526020017f7072656d69756d00000000000000000000000000000000000000000000000000815250805190602001208580519060200120141561204d576006549250612053565b60065492505b5b5b82846120619190614ab2565b3410156120a3576040517f08c379a000000000000000000000000000000000000000000000000000000000815260040161209a90614527565b60405180910390fd5b6000816064846120b39190614ab2565b6120bd9190614a2b565b905060006120ca82612ae1565b6040516020016120da9190614127565b60405160208183030381529060405290506120f481612c8e565b61210f33838860405180602001604052806000815250612ca8565b8560076000868152602001908152602001600020848154811061215b577f4e487b7100000000000000000000000000000000000000000000000000000000600052603260045260246000fd5b9060005260206000200160008282546121749190614a2b565b92505081905550600060405180604001604052808481526020018381525090507fa82fb03fc7b60927b6471a51b8a6ebd67ce2fa84da5099c6b587c9f73c104ac083600760008881526020019081526020016000208681548110612201577f4e487b7100000000000000000000000000000000000000000000000000000000600052603260045260246000fd5b90600052602060002001548360405161221c9392919061466b565b60405180910390a15050505050505050565b612236612431565b73ffffffffffffffffffffffffffffffffffffffff168573ffffffffffffffffffffffffffffffffffffffff16148061227c575061227b85612276612431565b611eab565b5b6122bb576040517f08c379a00000000000000000000000000000000000000000000000000000000081526004016122b2906143c7565b60405180910390fd5b6122c8858585858561285f565b5050505050565b6122d7612431565b73ffffffffffffffffffffffffffffffffffffffff166122f56113f1565b73ffffffffffffffffffffffffffffffffffffffff161461234b576040517f08c379a000000000000000000000000000000000000000000000000000000000815260040161234290614487565b60405180910390fd5b600073ffffffffffffffffffffffffffffffffffffffff168173ffffffffffffffffffffffffffffffffffffffff1614156123bb576040517f08c379a00000000000000000000000000000000000000000000000000000000081526004016123b290614367565b60405180910390fd5b6123c481612799565b50565b60007f01ffc9a7000000000000000000000000000000000000000000000000000000007bffffffffffffffffffffffffffffffffffffffffffffffffffffffff1916827bffffffffffffffffffffffffffffffffffffffffffffffffffffffff1916149050919050565b600033905090565b815183511461247d576040517f08c379a000000000000000000000000000000000000000000000000000000000815260040161247490614587565b60405180910390fd5b600073ffffffffffffffffffffffffffffffffffffffff168473ffffffffffffffffffffffffffffffffffffffff1614156124ed576040517f08c379a00000000000000000000000000000000000000000000000000000000081526004016124e4906143e7565b60405180910390fd5b60006124f7612431565b9050612507818787878787612e3e565b60005b845181101561270457600085828151811061254e577f4e487b7100000000000000000000000000000000000000000000000000000000600052603260045260246000fd5b602002602001015190506000858381518110612593577f4e487b7100000000000000000000000000000000000000000000000000000000600052603260045260246000fd5b60200260200101519050600080600084815260200190815260200160002060008b73ffffffffffffffffffffffffffffffffffffffff1673ffffffffffffffffffffffffffffffffffffffff16815260200190815260200160002054905081811015612634576040517f08c379a000000000000000000000000000000000000000000000000000000000815260040161262b90614427565b60405180910390fd5b81810360008085815260200190815260200160002060008c73ffffffffffffffffffffffffffffffffffffffff1673ffffffffffffffffffffffffffffffffffffffff168152602001908152602001600020819055508160008085815260200190815260200160002060008b73ffffffffffffffffffffffffffffffffffffffff1673ffffffffffffffffffffffffffffffffffffffff16815260200190815260200160002060008282546126e99190614a2b565b92505081905550505050806126fd90614cb7565b905061250a565b508473ffffffffffffffffffffffffffffffffffffffff168673ffffffffffffffffffffffffffffffffffffffff168273ffffffffffffffffffffffffffffffffffffffff167f4a39dc06d4c0dbc64b70af90fd698a233a518aa5d07e595d983b8c0526c8f7fb878760405161277b929190614253565b60405180910390a4612791818787878787612e46565b505050505050565b6000600360009054906101000a900473ffffffffffffffffffffffffffffffffffffffff16905081600360006101000a81548173ffffffffffffffffffffffffffffffffffffffff021916908373ffffffffffffffffffffffffffffffffffffffff1602179055508173ffffffffffffffffffffffffffffffffffffffff168173ffffffffffffffffffffffffffffffffffffffff167f8be0079c531659141344cd1fd0a4f28419497f9722a3daafe3b4186f6b6457e060405160405180910390a35050565b600073ffffffffffffffffffffffffffffffffffffffff168473ffffffffffffffffffffffffffffffffffffffff1614156128cf576040517f08c379a00000000000000000000000000000000000000000000000000000000081526004016128c6906143e7565b60405180910390fd5b60006128d9612431565b90506128f98187876128ea8861302d565b6128f38861302d565b87612e3e565b600080600086815260200190815260200160002060008873ffffffffffffffffffffffffffffffffffffffff1673ffffffffffffffffffffffffffffffffffffffff16815260200190815260200160002054905083811015612990576040517f08c379a000000000000000000000000000000000000000000000000000000000815260040161298790614427565b60405180910390fd5b83810360008087815260200190815260200160002060008973ffffffffffffffffffffffffffffffffffffffff1673ffffffffffffffffffffffffffffffffffffffff168152602001908152602001600020819055508360008087815260200190815260200160002060008873ffffffffffffffffffffffffffffffffffffffff1673ffffffffffffffffffffffffffffffffffffffff1681526020019081526020016000206000828254612a459190614a2b565b925050819055508573ffffffffffffffffffffffffffffffffffffffff168773ffffffffffffffffffffffffffffffffffffffff168373ffffffffffffffffffffffffffffffffffffffff167fc3d58168c5ae7397731d063d5bbf3d657854427343f4c083240f7aacaa2d0f628888604051612ac2929190614642565b60405180910390a4612ad88288888888886130f3565b50505050505050565b60606000821415612b29576040518060400160405280600181526020017f30000000000000000000000000000000000000000000000000000000000000008152509050612c89565b600082905060005b60008214612b5b578080612b4490614cb7565b915050600a82612b549190614a81565b9150612b31565b60008167ffffffffffffffff811115612b9d577f4e487b7100000000000000000000000000000000000000000000000000000000600052604160045260246000fd5b6040519080825280601f01601f191660200182016040528015612bcf5781602001600182028036833780820191505090505b5090505b60008514612c8257600182612be89190614b0c565b9150600a85612bf79190614d00565b6030612c039190614a2b565b60f81b818381518110612c3f577f4e487b7100000000000000000000000000000000000000000000000000000000600052603260045260246000fd5b60200101907effffffffffffffffffffffffffffffffffffffffffffffffffffffffffffff1916908160001a905350600a85612c7b9190614a81565b9450612bd3565b8093505050505b919050565b8060029080519060200190612ca4929190613377565b5050565b600073ffffffffffffffffffffffffffffffffffffffff168473ffffffffffffffffffffffffffffffffffffffff161415612d18576040517f08c379a0000000000000000000000000000000000000000000000000000000008152600401612d0f906145a7565b60405180910390fd5b6000612d22612431565b9050612d4381600087612d348861302d565b612d3d8861302d565b87612e3e565b8260008086815260200190815260200160002060008773ffffffffffffffffffffffffffffffffffffffff1673ffffffffffffffffffffffffffffffffffffffff1681526020019081526020016000206000828254612da29190614a2b565b925050819055508473ffffffffffffffffffffffffffffffffffffffff16600073ffffffffffffffffffffffffffffffffffffffff168273ffffffffffffffffffffffffffffffffffffffff167fc3d58168c5ae7397731d063d5bbf3d657854427343f4c083240f7aacaa2d0f628787604051612e20929190614642565b60405180910390a4612e37816000878787876130f3565b5050505050565b505050505050565b612e658473ffffffffffffffffffffffffffffffffffffffff166132da565b15613025578373ffffffffffffffffffffffffffffffffffffffff1663bc197c8187878686866040518663ffffffff1660e01b8152600401612eab95949392919061416f565b602060405180830381600087803b158015612ec557600080fd5b505af1925050508015612ef657506040513d601f19601f82011682018060405250810190612ef3919061393f565b60015b612f9c57612f02614e00565b806308c379a01415612f5f5750612f17615636565b80612f225750612f61565b806040517f08c379a0000000000000000000000000000000000000000000000000000000008152600401612f5691906142a5565b60405180910390fd5b505b6040517f08c379a0000000000000000000000000000000000000000000000000000000008152600401612f93906142c7565b60405180910390fd5b63bc197c8160e01b7bffffffffffffffffffffffffffffffffffffffffffffffffffffffff1916817bffffffffffffffffffffffffffffffffffffffffffffffffffffffff191614613023576040517f08c379a000000000000000000000000000000000000000000000000000000000815260040161301a906142e7565b60405180910390fd5b505b505050505050565b60606000600167ffffffffffffffff811115613072577f4e487b7100000000000000000000000000000000000000000000000000000000600052604160045260246000fd5b6040519080825280602002602001820160405280156130a05781602001602082028036833780820191505090505b50905082816000815181106130de577f4e487b7100000000000000000000000000000000000000000000000000000000600052603260045260246000fd5b60200260200101818152505080915050919050565b6131128473ffffffffffffffffffffffffffffffffffffffff166132da565b156132d2578373ffffffffffffffffffffffffffffffffffffffff1663f23a6e6187878686866040518663ffffffff1660e01b81526004016131589594939291906141d7565b602060405180830381600087803b15801561317257600080fd5b505af19250505080156131a357506040513d601f19601f820116820180604052508101906131a0919061393f565b60015b613249576131af614e00565b806308c379a0141561320c57506131c4615636565b806131cf575061320e565b806040517f08c379a000000000000000000000000000000000000000000000000000000000815260040161320391906142a5565b60405180910390fd5b505b6040517f08c379a0000000000000000000000000000000000000000000000000000000008152600401613240906142c7565b60405180910390fd5b63f23a6e6160e01b7bffffffffffffffffffffffffffffffffffffffffffffffffffffffff1916817bffffffffffffffffffffffffffffffffffffffffffffffffffffffff1916146132d0576040517f08c379a00000000000000000000000000000000000000000000000000000000081526004016132c7906142e7565b60405180910390fd5b505b505050505050565b600080823b905060008111915050919050565b828054828255906000526020600020908101928215613366579160200282015b828111156133655782518260006101000a81548173ffffffffffffffffffffffffffffffffffffffff021916908373ffffffffffffffffffffffffffffffffffffffff1602179055509160200191906001019061330d565b5b50905061337391906133fd565b5090565b82805461338390614c3a565b90600052602060002090601f0160209004810192826133a557600085556133ec565b82601f106133be57805160ff19168380011785556133ec565b828001600101855582156133ec579182015b828111156133eb5782518255916020019190600101906133d0565b5b5090506133f991906133fd565b5090565b5b808211156134165760008160009055506001016133fe565b5090565b600061342d6134288461487e565b614859565b9050808382526020820190508285602086028201111561344c57600080fd5b60005b8581101561347c5781613462888261356e565b84526020840193506020830192505060018101905061344f565b5050509392505050565b6000613499613494846148aa565b614859565b905080838252602082019050828560208602820111156134b857600080fd5b60005b858110156134e857816134ce888261366a565b8452602084019350602083019250506001810190506134bb565b5050509392505050565b6000613505613500846148d6565b614859565b90508281526020810184848401111561351d57600080fd5b613528848285614bf8565b509392505050565b600061354361353e84614907565b614859565b90508281526020810184848401111561355b57600080fd5b613566848285614bf8565b509392505050565b60008135905061357d816156cc565b92915050565b600082601f83011261359457600080fd5b81356135a484826020860161341a565b91505092915050565b600082601f8301126135be57600080fd5b81356135ce848260208601613486565b91505092915050565b6000813590506135e6816156e3565b92915050565b6000813590506135fb816156fa565b92915050565b600081519050613610816156fa565b92915050565b600082601f83011261362757600080fd5b81356136378482602086016134f2565b91505092915050565b600082601f83011261365157600080fd5b8135613661848260208601613530565b91505092915050565b60008135905061367981615711565b92915050565b60006020828403121561369157600080fd5b600061369f8482850161356e565b91505092915050565b600080604083850312156136bb57600080fd5b60006136c98582860161356e565b92505060206136da8582860161356e565b9150509250929050565b600080600080600060a086880312156136fc57600080fd5b600061370a8882890161356e565b955050602061371b8882890161356e565b945050604086013567ffffffffffffffff81111561373857600080fd5b613744888289016135ad565b935050606086013567ffffffffffffffff81111561376157600080fd5b61376d888289016135ad565b925050608086013567ffffffffffffffff81111561378a57600080fd5b61379688828901613616565b9150509295509295909350565b600080600080600060a086880312156137bb57600080fd5b60006137c98882890161356e565b95505060206137da8882890161356e565b94505060406137eb8882890161366a565b93505060606137fc8882890161366a565b925050608086013567ffffffffffffffff81111561381957600080fd5b61382588828901613616565b9150509295509295909350565b6000806040838503121561384557600080fd5b60006138538582860161356e565b9250506020613864858286016135d7565b9150509250929050565b6000806040838503121561388157600080fd5b600061388f8582860161356e565b92505060206138a08582860161366a565b9150509250929050565b600080604083850312156138bd57600080fd5b600083013567ffffffffffffffff8111156138d757600080fd5b6138e385828601613583565b925050602083013567ffffffffffffffff81111561390057600080fd5b61390c858286016135ad565b9150509250929050565b60006020828403121561392857600080fd5b6000613936848285016135ec565b91505092915050565b60006020828403121561395157600080fd5b600061395f84828501613601565b91505092915050565b60006020828403121561397a57600080fd5b600082013567ffffffffffffffff81111561399457600080fd5b6139a084828501613640565b91505092915050565b6000602082840312156139bb57600080fd5b60006139c98482850161366a565b91505092915050565b600080604083850312156139e557600080fd5b60006139f38582860161366a565b9250506020613a048582860161366a565b9150509250929050565b600080600060608486031215613a2357600080fd5b6000613a318682870161366a565b9350506020613a428682870161366a565b9250506040613a538682870161366a565b9150509250925092565b6000613a698383613a9c565b60208301905092915050565b6000613a818383614109565b60208301905092915050565b613a9681614b72565b82525050565b613aa581614b60565b82525050565b613ab481614b60565b82525050565b6000613ac58261496d565b613acf81856149cb565b9350613ada83614938565b8060005b83811015613b0b578151613af28882613a5d565b9750613afd836149a4565b925050600181019050613ade565b5085935050505092915050565b6000613b2382614978565b613b2d81856149cb565b9350613b3883614948565b8060005b83811015613b7057613b4d82614ded565b613b578882613a5d565b9750613b62836149b1565b925050600181019050613b3c565b5085935050505092915050565b6000613b8882614983565b613b9281856149dc565b9350613b9d8361495d565b8060005b83811015613bce578151613bb58882613a75565b9750613bc0836149be565b925050600181019050613ba1565b5085935050505092915050565b613be481614b84565b82525050565b6000613bf58261498e565b613bff81856149ed565b9350613c0f818560208601614c07565b613c1881614e22565b840191505092915050565b613c2c81614be6565b82525050565b6000613c3d82614999565b613c4781856149fe565b9350613c57818560208601614c07565b613c6081614e22565b840191505092915050565b6000613c7682614999565b613c808185614a0f565b9350613c90818560208601614c07565b613c9981614e22565b840191505092915050565b6000613caf82614999565b613cb98185614a20565b9350613cc9818560208601614c07565b80840191505092915050565b6000613ce2603483614a0f565b9150613ced82614e4d565b604082019050919050565b6000613d05602883614a0f565b9150613d1082614e9c565b604082019050919050565b6000613d28603f83614a0f565b9150613d3382614eeb565b604082019050919050565b6000613d4b601083614a0f565b9150613d5682614f3a565b602082019050919050565b6000613d6e602b83614a0f565b9150613d7982614f63565b604082019050919050565b6000613d91602683614a0f565b9150613d9c82614fb2565b604082019050919050565b6000613db4602683614a0f565b9150613dbf82615001565b604082019050919050565b6000613dd7601e83614a0f565b9150613de282615050565b602082019050919050565b6000613dfa602983614a0f565b9150613e0582615079565b604082019050919050565b6000613e1d602583614a0f565b9150613e28826150c8565b604082019050919050565b6000613e40603283614a0f565b9150613e4b82615117565b604082019050919050565b6000613e63602a83614a0f565b9150613e6e82615166565b604082019050919050565b6000613e86603e83614a0f565b9150613e91826151b5565b604082019050919050565b6000613ea9602083614a0f565b9150613eb482615204565b602082019050919050565b6000613ecc600583614a20565b9150613ed78261522d565b600582019050919050565b6000613eef602083614a0f565b9150613efa82615256565b602082019050919050565b6000613f12602e83614a0f565b9150613f1d8261527f565b604082019050919050565b6000613f35601a83614a0f565b9150613f40826152ce565b602082019050919050565b6000613f58604183614a0f565b9150613f63826152f7565b606082019050919050565b6000613f7b602083614a0f565b9150613f868261536c565b602082019050919050565b6000613f9e601583614a0f565b9150613fa982615395565b602082019050919050565b6000613fc1602c83614a20565b9150613fcc826153be565b602c82019050919050565b6000613fe4602983614a0f565b9150613fef8261540d565b604082019050919050565b6000614007602983614a0f565b91506140128261545c565b604082019050919050565b600061402a602883614a0f565b9150614035826154ab565b604082019050919050565b600061404d602183614a0f565b9150614058826154fa565b604082019050919050565b6000614070600f83614a0f565b915061407b82615549565b602082019050919050565b6000614093602383614a0f565b915061409e82615572565b604082019050919050565b60006140b6604c83614a0f565b91506140c1826155c1565b606082019050919050565b60006040830160008301516140e46000860182614109565b50602083015184820360208601526140fc8282613c32565b9150508091505092915050565b61411281614bdc565b82525050565b61412181614bdc565b82525050565b600061413282613fb4565b915061413e8284613ca4565b915061414982613ebf565b915081905092915050565b60006020820190506141696000830184613aab565b92915050565b600060a0820190506141846000830188613aab565b6141916020830187613aab565b81810360408301526141a38186613b7d565b905081810360608301526141b78185613b7d565b905081810360808301526141cb8184613bea565b90509695505050505050565b600060a0820190506141ec6000830188613aab565b6141f96020830187613aab565b6142066040830186614118565b6142136060830185614118565b81810360808301526142258184613bea565b90509695505050505050565b6000602082019050818103600083015261424b8184613b7d565b905092915050565b6000604082019050818103600083015261426d8185613b7d565b905081810360208301526142818184613b7d565b90509392505050565b600060208201905061429f6000830184613bdb565b92915050565b600060208201905081810360008301526142bf8184613c6b565b905092915050565b600060208201905081810360008301526142e081613cd5565b9050919050565b6000602082019050818103600083015261430081613cf8565b9050919050565b6000602082019050818103600083015261432081613d1b565b9050919050565b6000602082019050818103600083015261434081613d3e565b9050919050565b6000602082019050818103600083015261436081613d61565b9050919050565b6000602082019050818103600083015261438081613d84565b9050919050565b600060208201905081810360008301526143a081613da7565b9050919050565b600060208201905081810360008301526143c081613dca565b9050919050565b600060208201905081810360008301526143e081613ded565b9050919050565b6000602082019050818103600083015261440081613e10565b9050919050565b6000602082019050818103600083015261442081613e33565b9050919050565b6000602082019050818103600083015261444081613e56565b9050919050565b6000602082019050818103600083015261446081613e79565b9050919050565b6000602082019050818103600083015261448081613e9c565b9050919050565b600060208201905081810360008301526144a081613ee2565b9050919050565b600060208201905081810360008301526144c081613f05565b9050919050565b600060208201905081810360008301526144e081613f28565b9050919050565b6000602082019050818103600083015261450081613f4b565b9050919050565b6000602082019050818103600083015261452081613f6e565b9050919050565b6000602082019050818103600083015261454081613f91565b9050919050565b6000602082019050818103600083015261456081613fd7565b9050919050565b6000602082019050818103600083015261458081613ffa565b9050919050565b600060208201905081810360008301526145a08161401d565b9050919050565b600060208201905081810360008301526145c081614040565b9050919050565b600060208201905081810360008301526145e081614063565b9050919050565b6000602082019050818103600083015261460081614086565b9050919050565b60006020820190508181036000830152614620816140a9565b9050919050565b600060208201905061463c6000830184614118565b92915050565b60006040820190506146576000830185614118565b6146646020830184614118565b9392505050565b60006060820190506146806000830186614118565b61468d6020830185614118565b818103604083015261469f81846140cc565b9050949350505050565b60006060820190506146be6000830186614118565b6146cb6020830185614118565b6146d86040830184614118565b949350505050565b6000610100820190506146f6600083018b614118565b614703602083018a614118565b6147106040830189614118565b61471d6060830188614118565b61472a6080830187613c23565b61473760a0830186613a8d565b81810360c08301526147498185613aba565b905061475860e0830184613bdb565b9998505050505050505050565b60006101008201905061477b600083018b614118565b614788602083018a614118565b6147956040830189614118565b6147a26060830188614118565b6147af6080830187614118565b6147bc60a0830186613a8d565b81810360c08301526147ce8185613b18565b90506147dd60e0830184613bdb565b9998505050505050505050565b600060e0820190506147ff600083018a614118565b61480c6020830189614118565b6148196040830188614118565b6148266060830187614118565b6148336080830186614118565b61484060a0830185613a8d565b61484d60c0830184613bdb565b98975050505050505050565b6000614863614874565b905061486f8282614c86565b919050565b6000604051905090565b600067ffffffffffffffff82111561489957614898614dbe565b5b602082029050602081019050919050565b600067ffffffffffffffff8211156148c5576148c4614dbe565b5b602082029050602081019050919050565b600067ffffffffffffffff8211156148f1576148f0614dbe565b5b6148fa82614e22565b9050602081019050919050565b600067ffffffffffffffff82111561492257614921614dbe565b5b61492b82614e22565b9050602081019050919050565b6000819050602082019050919050565b60008190508160005260206000209050919050565b6000819050602082019050919050565b600081519050919050565b600081549050919050565b600081519050919050565b600081519050919050565b600081519050919050565b6000602082019050919050565b6000600182019050919050565b6000602082019050919050565b600082825260208201905092915050565b600082825260208201905092915050565b600082825260208201905092915050565b600082825260208201905092915050565b600082825260208201905092915050565b600081905092915050565b6000614a3682614bdc565b9150614a4183614bdc565b9250827fffffffffffffffffffffffffffffffffffffffffffffffffffffffffffffffff03821115614a7657614a75614d31565b5b828201905092915050565b6000614a8c82614bdc565b9150614a9783614bdc565b925082614aa757614aa6614d60565b5b828204905092915050565b6000614abd82614bdc565b9150614ac883614bdc565b9250817fffffffffffffffffffffffffffffffffffffffffffffffffffffffffffffffff0483118215151615614b0157614b00614d31565b5b828202905092915050565b6000614b1782614bdc565b9150614b2283614bdc565b925082821015614b3557614b34614d31565b5b828203905092915050565b600073ffffffffffffffffffffffffffffffffffffffff82169050919050565b6000614b6b82614bbc565b9050919050565b6000614b7d82614bbc565b9050919050565b60008115159050919050565b60007fffffffff0000000000000000000000000000000000000000000000000000000082169050919050565b600073ffffffffffffffffffffffffffffffffffffffff82169050919050565b6000819050919050565b6000614bf182614bdc565b9050919050565b82818337600083830152505050565b60005b83811015614c25578082015181840152602081019050614c0a565b83811115614c34576000848401525b50505050565b60006002820490506001821680614c5257607f821691505b60208210811415614c6657614c65614d8f565b5b50919050565b6000614c7f614c7a83614e33565b614b40565b9050919050565b614c8f82614e22565b810181811067ffffffffffffffff82111715614cae57614cad614dbe565b5b80604052505050565b6000614cc282614bdc565b91507fffffffffffffffffffffffffffffffffffffffffffffffffffffffffffffffff821415614cf557614cf4614d31565b5b600182019050919050565b6000614d0b82614bdc565b9150614d1683614bdc565b925082614d2657614d25614d60565b5b828206905092915050565b7f4e487b7100000000000000000000000000000000000000000000000000000000600052601160045260246000fd5b7f4e487b7100000000000000000000000000000000000000000000000000000000600052601260045260246000fd5b7f4e487b7100000000000000000000000000000000000000000000000000000000600052602260045260246000fd5b7f4e487b7100000000000000000000000000000000000000000000000000000000600052604160045260246000fd5b6000614df98254614c6c565b9050919050565b600060033d1115614e1f5760046000803e614e1c600051614e40565b90505b90565b6000601f19601f8301169050919050565b60008160001c9050919050565b60008160e01c9050919050565b7f455243313135353a207472616e7366657220746f206e6f6e204552433131353560008201527f526563656976657220696d706c656d656e746572000000000000000000000000602082015250565b7f455243313135353a204552433131353552656365697665722072656a6563746560008201527f6420746f6b656e73000000000000000000000000000000000000000000000000602082015250565b7f5175616e7469747920656e7465726564206973206d6f7265207468616e20746860008201527f6520617661696c61626c65207175616e74697479206265696e6720736f6c6400602082015250565b7f4e6f7420656e6f75676820657468657200000000000000000000000000000000600082015250565b7f455243313135353a2062616c616e636520717565727920666f7220746865207a60008201527f65726f2061646472657373000000000000000000000000000000000000000000602082015250565b7f4f776e61626c653a206e6577206f776e657220697320746865207a65726f206160008201527f6464726573730000000000000000000000000000000000000000000000000000602082015250565b7f4e6f7420656e6f756768206974656d20696e20796f75722077616c6c6574207460008201527f6f2073656c6c0000000000000000000000000000000000000000000000000000602082015250565b7f5175616e746974792073686f756c64206265206d6f7265207468616e20310000600082015250565b7f455243313135353a2063616c6c6572206973206e6f74206f776e6572206e6f7260008201527f20617070726f7665640000000000000000000000000000000000000000000000602082015250565b7f455243313135353a207472616e7366657220746f20746865207a65726f20616460008201527f6472657373000000000000000000000000000000000000000000000000000000602082015250565b7f455243313135353a207472616e736665722063616c6c6572206973206e6f742060008201527f6f776e6572206e6f7220617070726f7665640000000000000000000000000000602082015250565b7f455243313135353a20696e73756666696369656e742062616c616e636520666f60008201527f72207472616e7366657200000000000000000000000000000000000000000000602082015250565b7f596f75206861766520616e206578697374696e672073616c65206f6e2074686960008201527f73206974656d2e20506c656173652063616e63656c2069742066697273740000602082015250565b7f43616e6e6f742062757920796f7572206f776e206974656d206f6e2073616c65600082015250565b7f2e6a736f6e000000000000000000000000000000000000000000000000000000600082015250565b7f4f776e61626c653a2063616c6c6572206973206e6f7420746865206f776e6572600082015250565b7f596f7520646f206e6f742068617665207065726d697373696f6e20746f20636160008201527f6e63656c20746869732073616c65000000000000000000000000000000000000602082015250565b7f4e6f7420612076616c69642077616c6c65742061646472657373000000000000600082015250565b7f596f75206861766520616e206578697374696e672073616c652e20596f75206360008201527f616e27742073656c6c206d6f7265207468616e207768617420796f752068617660208201527f6500000000000000000000000000000000000000000000000000000000000000604082015250565b7f596f7520646f6e277420686176652074686973206974656d20746f2073656c6c600082015250565b7f4e6f7420656e6f7567682065746865722073656e740000000000000000000000600082015250565b7f68747470733a2f2f6a7472616a616e6f33332e6769746875622e696f2f746f6b60008201527f656e5f7572692f646174612f0000000000000000000000000000000000000000602082015250565b7f455243313135353a2073657474696e6720617070726f76616c2073746174757360008201527f20666f722073656c660000000000000000000000000000000000000000000000602082015250565b7f455243313135353a206163636f756e747320616e6420696473206c656e67746860008201527f206d69736d617463680000000000000000000000000000000000000000000000602082015250565b7f455243313135353a2069647320616e6420616d6f756e7473206c656e6774682060008201527f6d69736d61746368000000000000000000000000000000000000000000000000602082015250565b7f455243313135353a206d696e7420746f20746865207a65726f2061646472657360008201527f7300000000000000000000000000000000000000000000000000000000000000602082015250565b7f42616c616e6365206973207a65726f0000000000000000000000000000000000600082015250565b7f536f7272792c204974656d206973206e6f7420666f722073616c6520616e796d60008201527f6f72650000000000000000000000000000000000000000000000000000000000602082015250565b7f416d6f756e74206265696e672077697468647261776e2065786365656465642060008201527f74686520746f74616c2062616c616e63652073746f72656420696e736964652060208201527f74686520636f6e74726163740000000000000000000000000000000000000000604082015250565b600060443d1015615646576156c9565b61564e614874565b60043d036004823e80513d602482011167ffffffffffffffff821117156156765750506156c9565b808201805167ffffffffffffffff81111561569457505050506156c9565b80602083010160043d0385018111156156b15750505050506156c9565b6156c082602001850186614c86565b82955050505050505b90565b6156d581614b60565b81146156e057600080fd5b50565b6156ec81614b84565b81146156f757600080fd5b50565b61570381614b90565b811461570e57600080fd5b50565b61571a81614bdc565b811461572557600080fd5b5056fea2646970667358221220feafe73dde4d55318ebe35fd3a21db9ade6a91a6d6919258c4c885e48bae3ce464736f6c63430008040033",
  "immutableReferences": {},
  "source": "// SPDX-License-Identifier: MIT\r\npragma solidity >=0.4.22 <0.9.0;\r\n\r\nimport \"@openzeppelin/contracts/token/ERC1155/ERC1155.sol\";\r\nimport \"@openzeppelin/contracts/access/Ownable.sol\";\r\nimport \"@openzeppelin/contracts/utils/Strings.sol\";\r\n\r\ncontract ElvenHunt is ERC1155, Ownable {\r\n    \r\n    constructor() ERC1155(\"\") {\r\n        //Supply per card rarity(number corresponds to how many stars a card has);\r\n        circulatingSupplyPerItem[1] = [0, 0, 0];\r\n        circulatingSupplyPerItem[2] = [0, 0, 0];   \r\n        circulatingSupplyPerItem[3] = [0, 0, 0];   \r\n        circulatingSupplyPerItem[4] = [0, 0, 0];   \r\n        circulatingSupplyPerItem[5] = [0, 0, 0];      \r\n    }\r\n    \r\n    //Mint Rate per rarity\r\n    uint256 public mintRate_Normal = 0.05 ether;\r\n    uint256 public mintRate_Rare = 0.1 ether;\r\n    uint256 public mintRate_Premium = 0.2 ether;\r\n    \r\n    //CirculatingSupply per item\r\n    mapping(uint256 => uint256[]) public circulatingSupplyPerItem;\r\n\r\n    //NFT Marketplace\r\n    uint public itemCounter = 0;\r\n    mapping(uint => Item) public items;\r\n    mapping(address => mapping(uint => ItemSale)) public playerToItemsOnSale;\r\n    mapping(address => uint) public playerToRewardPoints;\r\n    uint public commissionFeePercentage = 3;\r\n\r\n    struct ItemSale{\r\n        uint orderId;\r\n        uint quantity;\r\n        uint price;\r\n    }\r\n\r\n    struct Item {\r\n        uint id; // auto generated id\r\n        uint itemId; //id of nft\r\n        uint price; // price for the nft to be sold\r\n        uint available; //no of items available to be sold\r\n        uint sold; // no of items that has been sold\r\n        address payable seller; //seller\r\n        address[] buyers; // people who bought the item \r\n        bool forSale; //check if item is still on sale\r\n    }\r\n    \r\n     struct Card{\r\n      uint256 id;\r\n      string tokenURI;\r\n    }\r\n    \r\n    event ItemMinted(\r\n      uint256 id,\r\n      uint256 circulatingSupply,\r\n      Card card\r\n    );\r\n\r\n    event ItemSold(\r\n        uint id,\r\n        uint itemId, \r\n        uint price,\r\n        uint available,\r\n        uint sold,\r\n        address payable seller, \r\n        address[] buyers,\r\n        bool forSale\r\n    );\r\n\r\n    event ItemListed(\r\n        uint id,\r\n        uint itemId, \r\n        uint price, \r\n        uint available,\r\n        uint sold, \r\n        address payable seller, \r\n        address[] buyers,\r\n        bool forSale      \r\n    );\r\n\r\n\r\n    uint256 randNonce = 0;\r\n\r\n    function mintCard(string memory _drawType) public payable {\r\n        \r\n        uint256 amount = 1;\r\n        uint256 mintRate;\r\n        uint256 cardRarity = 5;\r\n        uint256 id = 0;\r\n        \r\n        if(keccak256(bytes(_drawType)) == keccak256(bytes(\"normal\"))){\r\n            mintRate = mintRate_Normal;\r\n            //cardRarity = randomNumberGenerator(1,3);\r\n        }\r\n        else if(keccak256(bytes(_drawType)) == keccak256(bytes(\"rare\"))){\r\n            mintRate = mintRate_Rare;\r\n            //cardRarity = randomNumberGenerator(2,4);\r\n        }\r\n        else if(keccak256(bytes(_drawType)) == keccak256(bytes(\"premium\"))){\r\n            mintRate = mintRate_Premium;\r\n            //cardRarity = randomNumberGenerator(3,5);\r\n        }\r\n        else{\r\n            mintRate = mintRate_Premium;\r\n            //cardRarity = randomNumberGenerator(3,5);\r\n        }\r\n        \r\n        //id = randomNumberGenerator(1, circulatingSupplyPerItem[cardRarity].length) - 1;\r\n         \r\n        require(msg.value >= (amount * mintRate), \"Not enough ether sent\"); \r\n        \r\n        uint256 cardId = (cardRarity*100) + id;\r\n        \r\n        string memory uriToken = string(abi.encodePacked(\"https://jtrajano33.github.io/token_uri/data/\",Strings.toString(cardId), \".json\"));\r\n        \r\n        _setURI(uriToken);\r\n        \r\n        _mint(msg.sender, cardId, amount, \"\");\r\n        circulatingSupplyPerItem[cardRarity][id] += amount;\r\n      \r\n        Card memory _card = Card(cardId, uriToken);\r\n        \r\n        emit ItemMinted(cardId, circulatingSupplyPerItem[cardRarity][id], _card);\r\n    }\r\n    \r\n    function randomNumberGenerator(uint256 _minRarity, uint256 _maxRarity) internal returns (uint) {\r\n        //Returns random number from 0 - (_maxRarity - 1)\r\n\t    randNonce++;\r\n        uint randomnumber = uint(keccak256(abi.encodePacked(block.timestamp, msg.sender, randNonce))) % ((_maxRarity + 1) - _minRarity);\r\n        \r\n        // Add the minimum rarity you want\r\n        randomnumber = randomnumber + _minRarity;\r\n \r\n        return randomnumber;\r\n    }\r\n\r\n    function sellItem(uint _itemId, uint _price, uint quantity) public{\r\n        uint itemOnSale = playerToItemsOnSale[msg.sender][_itemId].quantity;\r\n\r\n        require(msg.sender != address(0), \"Not a valid wallet address\");\r\n        require(quantity >= 1, \"Quantity should be more than 1\");\r\n        require(balanceOf(msg.sender, _itemId) >= 1, \"You don't have this item to sell\");\r\n        require(balanceOf(msg.sender, _itemId) >= quantity, \"Not enough item in your wallet to sell\");\r\n        require(playerToItemsOnSale[msg.sender][_itemId].orderId <= 0, \"You have an existing sale on this item. Please cancel it first\");\r\n        require(balanceOf(msg.sender, _itemId) - itemOnSale >= quantity, \"You have an existing sale. You can't sell more than what you have\");\r\n\r\n        itemCounter++;\r\n        Item memory _item = Item(itemCounter, _itemId, _price, quantity, 0, payable(msg.sender), new address[](0), true);\r\n        items[itemCounter] = _item;\r\n\r\n        ItemSale memory itemSale = ItemSale(itemCounter, itemOnSale + quantity, _price);\r\n        playerToItemsOnSale[msg.sender][_itemId] = itemSale;\r\n\r\n        emit ItemListed(itemCounter, _itemId, _price, quantity, 0, payable(msg.sender), new address[](0), true);\r\n    }\r\n\r\n    function buyItem(uint _orderId, uint quantity) public payable {\r\n        \r\n        address payable _seller = items[_orderId].seller;\r\n        uint _itemId = items[_orderId].itemId;\r\n\r\n        require(msg.value >= items[_orderId].price * quantity, \"Not enough ether\");\r\n        require(msg.sender != address(0), \"Not a valid wallet address\");\r\n        require(_seller != msg.sender, \"Cannot buy your own item on sale\");\r\n        require(items[_orderId].forSale, \"Sorry, Item is not for sale anymore\");\r\n        require(quantity >= 1, \"Quantity should be more than 1\");\r\n        require(items[_orderId].available >= quantity, \"Quantity entered is more than the available quantity being sold\" );\r\n\r\n        uint salesCommission = (msg.value * commissionFeePercentage) / 100;\r\n        uint netSale = msg.value - salesCommission; \r\n\r\n        _seller.transfer(netSale);\r\n\r\n        _safeTransferFrom(_seller, msg.sender, _itemId, quantity, \"\");\r\n\r\n        items[_orderId].buyers.push(msg.sender);\r\n\r\n        items[_orderId].available = items[_orderId].available - quantity;\r\n        items[_orderId].sold = items[_orderId].sold + quantity;\r\n\r\n        if(items[_orderId].available <= 0){\r\n            items[_orderId].forSale = false;\r\n            playerToItemsOnSale[_seller][_itemId].price = 0;\r\n            playerToItemsOnSale[_seller][_itemId].orderId = 0;\r\n        }\r\n\r\n        playerToItemsOnSale[_seller][_itemId].quantity = playerToItemsOnSale[_seller][_itemId].quantity - quantity;\r\n        playerToRewardPoints[msg.sender] = msg.value;\r\n\r\n        emit ItemSold(items[_orderId].id, _itemId, msg.value, quantity, items[_orderId].sold, _seller, items[_orderId].buyers, items[_orderId].forSale);\r\n    }\r\n\r\n    function cancelSale(uint _orderId) public {\r\n        require(msg.sender == items[_orderId].seller, \"You do not have permission to cancel this sale\");\r\n        items[_orderId].forSale = false;\r\n\r\n        ItemSale memory itemSaleToCancel = ItemSale(0,0,0);\r\n\r\n        playerToItemsOnSale[msg.sender][items[_orderId].itemId] = itemSaleToCancel;\r\n    }\r\n\r\n    function withdraw(uint _amount) public onlyOwner{\r\n        require(address(this).balance > 0, \"Balance is zero\");\r\n        require(address(this).balance>= _amount, \"Amount being withdrawn exceeded the total balance stored inside the contract\");\r\n        address contractOwner = owner();\r\n        payable(contractOwner).transfer(_amount);\r\n    }\r\n\r\n    function changeCommissionFee(uint fee) public onlyOwner{\r\n        commissionFeePercentage = fee;\r\n    } \r\n\r\n    function getTotalContractSales() public view onlyOwner returns(uint amount) {\r\n        return address(this).balance;\r\n    }\r\n\r\n}",
  "sourcePath": "C:/Users/skillet15/Desktop/Blockchain/Phaser_Game/src/contracts/ElvenHunt.sol",
  "compiler": {
    "name": "solc",
    "version": "0.8.4+commit.c7e474f2.Emscripten.clang"
  },
  "schemaVersion": "3.2.3",
  "updatedAt": "2021-12-06T13:16:32.872Z",
  "networkType": "ethereum",
  "devdoc": {
    "kind": "dev",
    "methods": {
      "balanceOf(address,uint256)": {
        "details": "See {IERC1155-balanceOf}. Requirements: - `account` cannot be the zero address."
      },
      "balanceOfBatch(address[],uint256[])": {
        "details": "See {IERC1155-balanceOfBatch}. Requirements: - `accounts` and `ids` must have the same length."
      },
      "isApprovedForAll(address,address)": {
        "details": "See {IERC1155-isApprovedForAll}."
      },
      "owner()": {
        "details": "Returns the address of the current owner."
      },
      "renounceOwnership()": {
        "details": "Leaves the contract without owner. It will not be possible to call `onlyOwner` functions anymore. Can only be called by the current owner. NOTE: Renouncing ownership will leave the contract without an owner, thereby removing any functionality that is only available to the owner."
      },
      "safeBatchTransferFrom(address,address,uint256[],uint256[],bytes)": {
        "details": "See {IERC1155-safeBatchTransferFrom}."
      },
      "safeTransferFrom(address,address,uint256,uint256,bytes)": {
        "details": "See {IERC1155-safeTransferFrom}."
      },
      "setApprovalForAll(address,bool)": {
        "details": "See {IERC1155-setApprovalForAll}."
      },
      "supportsInterface(bytes4)": {
        "details": "See {IERC165-supportsInterface}."
      },
      "transferOwnership(address)": {
        "details": "Transfers ownership of the contract to a new account (`newOwner`). Can only be called by the current owner."
      },
      "uri(uint256)": {
        "details": "See {IERC1155MetadataURI-uri}. This implementation returns the same URI for *all* token types. It relies on the token type ID substitution mechanism https://eips.ethereum.org/EIPS/eip-1155#metadata[defined in the EIP]. Clients calling this function must replace the `\\{id\\}` substring with the actual token type ID."
      }
    },
    "version": 1
  },
  "userdoc": {
    "kind": "user",
    "methods": {},
    "version": 1
  }
}