{
  "contractName": "ElvenHunt",
  "abi": [
    {
      "inputs": [],
      "stateMutability": "nonpayable",
      "type": "constructor"
    },
    {
      "anonymous": false,
      "inputs": [
        {
          "indexed": true,
          "internalType": "address",
          "name": "account",
          "type": "address"
        },
        {
          "indexed": true,
          "internalType": "address",
          "name": "operator",
          "type": "address"
        },
        {
          "indexed": false,
          "internalType": "bool",
          "name": "approved",
          "type": "bool"
        }
      ],
      "name": "ApprovalForAll",
      "type": "event"
    },
    {
      "anonymous": false,
      "inputs": [
        {
          "indexed": false,
          "internalType": "uint256",
          "name": "id",
          "type": "uint256"
        },
        {
          "indexed": false,
          "internalType": "uint256",
          "name": "itemId",
          "type": "uint256"
        },
        {
          "indexed": false,
          "internalType": "uint256",
          "name": "price",
          "type": "uint256"
        },
        {
          "indexed": false,
          "internalType": "uint256",
          "name": "available",
          "type": "uint256"
        },
        {
          "indexed": false,
          "internalType": "uint256",
          "name": "sold",
          "type": "uint256"
        },
        {
          "indexed": false,
          "internalType": "address payable",
          "name": "seller",
          "type": "address"
        },
        {
          "indexed": false,
          "internalType": "address[]",
          "name": "buyers",
          "type": "address[]"
        },
        {
          "indexed": false,
          "internalType": "bool",
          "name": "forSale",
          "type": "bool"
        }
      ],
      "name": "ItemListed",
      "type": "event"
    },
    {
      "anonymous": false,
      "inputs": [
        {
          "indexed": false,
          "internalType": "uint256",
          "name": "id",
          "type": "uint256"
        },
        {
          "indexed": false,
          "internalType": "uint256",
          "name": "circulatingSupply",
          "type": "uint256"
        },
        {
          "components": [
            {
              "internalType": "uint256",
              "name": "id",
              "type": "uint256"
            },
            {
              "internalType": "string",
              "name": "tokenURI",
              "type": "string"
            }
          ],
          "indexed": false,
          "internalType": "struct ElvenHunt.Card",
          "name": "card",
          "type": "tuple"
        }
      ],
      "name": "ItemMinted",
      "type": "event"
    },
    {
      "anonymous": false,
      "inputs": [
        {
          "indexed": false,
          "internalType": "uint256",
          "name": "id",
          "type": "uint256"
        },
        {
          "indexed": false,
          "internalType": "uint256",
          "name": "itemId",
          "type": "uint256"
        },
        {
          "indexed": false,
          "internalType": "uint256",
          "name": "price",
          "type": "uint256"
        },
        {
          "indexed": false,
          "internalType": "uint256",
          "name": "available",
          "type": "uint256"
        },
        {
          "indexed": false,
          "internalType": "uint256",
          "name": "sold",
          "type": "uint256"
        },
        {
          "indexed": false,
          "internalType": "address payable",
          "name": "seller",
          "type": "address"
        },
        {
          "indexed": false,
          "internalType": "address[]",
          "name": "buyers",
          "type": "address[]"
        },
        {
          "indexed": false,
          "internalType": "bool",
          "name": "forSale",
          "type": "bool"
        }
      ],
      "name": "ItemSold",
      "type": "event"
    },
    {
      "anonymous": false,
      "inputs": [
        {
          "indexed": true,
          "internalType": "address",
          "name": "previousOwner",
          "type": "address"
        },
        {
          "indexed": true,
          "internalType": "address",
          "name": "newOwner",
          "type": "address"
        }
      ],
      "name": "OwnershipTransferred",
      "type": "event"
    },
    {
      "anonymous": false,
      "inputs": [
        {
          "indexed": true,
          "internalType": "address",
          "name": "operator",
          "type": "address"
        },
        {
          "indexed": true,
          "internalType": "address",
          "name": "from",
          "type": "address"
        },
        {
          "indexed": true,
          "internalType": "address",
          "name": "to",
          "type": "address"
        },
        {
          "indexed": false,
          "internalType": "uint256[]",
          "name": "ids",
          "type": "uint256[]"
        },
        {
          "indexed": false,
          "internalType": "uint256[]",
          "name": "values",
          "type": "uint256[]"
        }
      ],
      "name": "TransferBatch",
      "type": "event"
    },
    {
      "anonymous": false,
      "inputs": [
        {
          "indexed": true,
          "internalType": "address",
          "name": "operator",
          "type": "address"
        },
        {
          "indexed": true,
          "internalType": "address",
          "name": "from",
          "type": "address"
        },
        {
          "indexed": true,
          "internalType": "address",
          "name": "to",
          "type": "address"
        },
        {
          "indexed": false,
          "internalType": "uint256",
          "name": "id",
          "type": "uint256"
        },
        {
          "indexed": false,
          "internalType": "uint256",
          "name": "value",
          "type": "uint256"
        }
      ],
      "name": "TransferSingle",
      "type": "event"
    },
    {
      "anonymous": false,
      "inputs": [
        {
          "indexed": false,
          "internalType": "string",
          "name": "value",
          "type": "string"
        },
        {
          "indexed": true,
          "internalType": "uint256",
          "name": "id",
          "type": "uint256"
        }
      ],
      "name": "URI",
      "type": "event"
    },
    {
      "inputs": [
        {
          "internalType": "address",
          "name": "account",
          "type": "address"
        },
        {
          "internalType": "uint256",
          "name": "id",
          "type": "uint256"
        }
      ],
      "name": "balanceOf",
      "outputs": [
        {
          "internalType": "uint256",
          "name": "",
          "type": "uint256"
        }
      ],
      "stateMutability": "view",
      "type": "function"
    },
    {
      "inputs": [
        {
          "internalType": "address[]",
          "name": "accounts",
          "type": "address[]"
        },
        {
          "internalType": "uint256[]",
          "name": "ids",
          "type": "uint256[]"
        }
      ],
      "name": "balanceOfBatch",
      "outputs": [
        {
          "internalType": "uint256[]",
          "name": "",
          "type": "uint256[]"
        }
      ],
      "stateMutability": "view",
      "type": "function"
    },
    {
      "inputs": [
        {
          "internalType": "uint256",
          "name": "",
          "type": "uint256"
        },
        {
          "internalType": "uint256",
          "name": "",
          "type": "uint256"
        }
      ],
      "name": "circulatingSupplyPerItem",
      "outputs": [
        {
          "internalType": "uint256",
          "name": "",
          "type": "uint256"
        }
      ],
      "stateMutability": "view",
      "type": "function"
    },
    {
      "inputs": [],
      "name": "commissionFeePercentage",
      "outputs": [
        {
          "internalType": "uint256",
          "name": "",
          "type": "uint256"
        }
      ],
      "stateMutability": "view",
      "type": "function"
    },
    {
      "inputs": [
        {
          "internalType": "address",
          "name": "account",
          "type": "address"
        },
        {
          "internalType": "address",
          "name": "operator",
          "type": "address"
        }
      ],
      "name": "isApprovedForAll",
      "outputs": [
        {
          "internalType": "bool",
          "name": "",
          "type": "bool"
        }
      ],
      "stateMutability": "view",
      "type": "function"
    },
    {
      "inputs": [],
      "name": "itemCounter",
      "outputs": [
        {
          "internalType": "uint256",
          "name": "",
          "type": "uint256"
        }
      ],
      "stateMutability": "view",
      "type": "function"
    },
    {
      "inputs": [
        {
          "internalType": "uint256",
          "name": "",
          "type": "uint256"
        }
      ],
      "name": "items",
      "outputs": [
        {
          "internalType": "uint256",
          "name": "id",
          "type": "uint256"
        },
        {
          "internalType": "uint256",
          "name": "itemId",
          "type": "uint256"
        },
        {
          "internalType": "uint256",
          "name": "price",
          "type": "uint256"
        },
        {
          "internalType": "uint256",
          "name": "available",
          "type": "uint256"
        },
        {
          "internalType": "uint256",
          "name": "sold",
          "type": "uint256"
        },
        {
          "internalType": "address payable",
          "name": "seller",
          "type": "address"
        },
        {
          "internalType": "bool",
          "name": "forSale",
          "type": "bool"
        }
      ],
      "stateMutability": "view",
      "type": "function"
    },
    {
      "inputs": [],
      "name": "mintRate_Normal",
      "outputs": [
        {
          "internalType": "uint256",
          "name": "",
          "type": "uint256"
        }
      ],
      "stateMutability": "view",
      "type": "function"
    },
    {
      "inputs": [],
      "name": "mintRate_Premium",
      "outputs": [
        {
          "internalType": "uint256",
          "name": "",
          "type": "uint256"
        }
      ],
      "stateMutability": "view",
      "type": "function"
    },
    {
      "inputs": [],
      "name": "mintRate_Rare",
      "outputs": [
        {
          "internalType": "uint256",
          "name": "",
          "type": "uint256"
        }
      ],
      "stateMutability": "view",
      "type": "function"
    },
    {
      "inputs": [],
      "name": "owner",
      "outputs": [
        {
          "internalType": "address",
          "name": "",
          "type": "address"
        }
      ],
      "stateMutability": "view",
      "type": "function"
    },
    {
      "inputs": [
        {
          "internalType": "address",
          "name": "",
          "type": "address"
        },
        {
          "internalType": "uint256",
          "name": "",
          "type": "uint256"
        }
      ],
      "name": "playerToItemsOnSale",
      "outputs": [
        {
          "internalType": "uint256",
          "name": "",
          "type": "uint256"
        }
      ],
      "stateMutability": "view",
      "type": "function"
    },
    {
      "inputs": [
        {
          "internalType": "address",
          "name": "",
          "type": "address"
        }
      ],
      "name": "playerToRewardPoints",
      "outputs": [
        {
          "internalType": "uint256",
          "name": "",
          "type": "uint256"
        }
      ],
      "stateMutability": "view",
      "type": "function"
    },
    {
      "inputs": [],
      "name": "renounceOwnership",
      "outputs": [],
      "stateMutability": "nonpayable",
      "type": "function"
    },
    {
      "inputs": [
        {
          "internalType": "address",
          "name": "from",
          "type": "address"
        },
        {
          "internalType": "address",
          "name": "to",
          "type": "address"
        },
        {
          "internalType": "uint256[]",
          "name": "ids",
          "type": "uint256[]"
        },
        {
          "internalType": "uint256[]",
          "name": "amounts",
          "type": "uint256[]"
        },
        {
          "internalType": "bytes",
          "name": "data",
          "type": "bytes"
        }
      ],
      "name": "safeBatchTransferFrom",
      "outputs": [],
      "stateMutability": "nonpayable",
      "type": "function"
    },
    {
      "inputs": [
        {
          "internalType": "address",
          "name": "from",
          "type": "address"
        },
        {
          "internalType": "address",
          "name": "to",
          "type": "address"
        },
        {
          "internalType": "uint256",
          "name": "id",
          "type": "uint256"
        },
        {
          "internalType": "uint256",
          "name": "amount",
          "type": "uint256"
        },
        {
          "internalType": "bytes",
          "name": "data",
          "type": "bytes"
        }
      ],
      "name": "safeTransferFrom",
      "outputs": [],
      "stateMutability": "nonpayable",
      "type": "function"
    },
    {
      "inputs": [
        {
          "internalType": "address",
          "name": "operator",
          "type": "address"
        },
        {
          "internalType": "bool",
          "name": "approved",
          "type": "bool"
        }
      ],
      "name": "setApprovalForAll",
      "outputs": [],
      "stateMutability": "nonpayable",
      "type": "function"
    },
    {
      "inputs": [
        {
          "internalType": "bytes4",
          "name": "interfaceId",
          "type": "bytes4"
        }
      ],
      "name": "supportsInterface",
      "outputs": [
        {
          "internalType": "bool",
          "name": "",
          "type": "bool"
        }
      ],
      "stateMutability": "view",
      "type": "function"
    },
    {
      "inputs": [
        {
          "internalType": "address",
          "name": "newOwner",
          "type": "address"
        }
      ],
      "name": "transferOwnership",
      "outputs": [],
      "stateMutability": "nonpayable",
      "type": "function"
    },
    {
      "inputs": [
        {
          "internalType": "uint256",
          "name": "",
          "type": "uint256"
        }
      ],
      "name": "uri",
      "outputs": [
        {
          "internalType": "string",
          "name": "",
          "type": "string"
        }
      ],
      "stateMutability": "view",
      "type": "function"
    },
    {
      "inputs": [
        {
          "internalType": "string",
          "name": "_drawType",
          "type": "string"
        }
      ],
      "name": "mintCard",
      "outputs": [],
      "stateMutability": "payable",
      "type": "function"
    },
    {
      "inputs": [
        {
          "internalType": "uint256",
          "name": "_itemId",
          "type": "uint256"
        },
        {
          "internalType": "uint256",
          "name": "_price",
          "type": "uint256"
        },
        {
          "internalType": "uint256",
          "name": "quantity",
          "type": "uint256"
        }
      ],
      "name": "sellItem",
      "outputs": [],
      "stateMutability": "nonpayable",
      "type": "function"
    },
    {
      "inputs": [
        {
          "internalType": "uint256",
          "name": "_orderId",
          "type": "uint256"
        },
        {
          "internalType": "uint256",
          "name": "quantity",
          "type": "uint256"
        }
      ],
      "name": "buyItem",
      "outputs": [],
      "stateMutability": "payable",
      "type": "function"
    },
    {
      "inputs": [
        {
          "internalType": "uint256",
          "name": "_orderId",
          "type": "uint256"
        }
      ],
      "name": "cancelSale",
      "outputs": [],
      "stateMutability": "nonpayable",
      "type": "function"
    },
    {
      "inputs": [
        {
          "internalType": "uint256",
          "name": "_amount",
          "type": "uint256"
        }
      ],
      "name": "withdraw",
      "outputs": [],
      "stateMutability": "nonpayable",
      "type": "function"
    },
    {
      "inputs": [
        {
          "internalType": "uint256",
          "name": "fee",
          "type": "uint256"
        }
      ],
      "name": "changeCommissionFee",
      "outputs": [],
      "stateMutability": "nonpayable",
      "type": "function"
    },
    {
      "inputs": [],
      "name": "getTotalContractSales",
      "outputs": [
        {
          "internalType": "uint256",
          "name": "amount",
          "type": "uint256"
        }
      ],
      "stateMutability": "view",
      "type": "function"
    }
  ],
  "bytecode": "0x608060405266b1a2bc2ec5000060045567016345785d8a00006005556702c68af0bb14000060065560006008556003600c556000600d553480156200004357600080fd5b506040518060200160405280600081525062000065816200020860201b60201c565b50620000866200007a6200022460201b60201c565b6200022c60201b60201c565b6040518060600160405280600060ff168152602001600060ff168152602001600060ff168152506007600060018152602001908152602001600020906003620000d1929190620002f2565b506040518060600160405280600060ff168152602001600060ff168152602001600060ff1681525060076000600281526020019081526020016000209060036200011d929190620002f2565b506040518060600160405280600060ff168152602001600060ff168152602001600060ff16815250600760006003815260200190815260200160002090600362000169929190620002f2565b506040518060600160405280600060ff168152602001600060ff168152602001600060ff168152506007600060048152602001908152602001600020906003620001b5929190620002f2565b506040518060600160405280600060ff168152602001600060ff168152602001600060ff16815250600760006005815260200190815260200160002090600362000201929190620002f2565b506200045e565b80600290805190602001906200022092919062000349565b5050565b600033905090565b6000600360009054906101000a900473ffffffffffffffffffffffffffffffffffffffff16905081600360006101000a81548173ffffffffffffffffffffffffffffffffffffffff021916908373ffffffffffffffffffffffffffffffffffffffff1602179055508173ffffffffffffffffffffffffffffffffffffffff168173ffffffffffffffffffffffffffffffffffffffff167f8be0079c531659141344cd1fd0a4f28419497f9722a3daafe3b4186f6b6457e060405160405180910390a35050565b82805482825590600052602060002090810192821562000336579160200282015b8281111562000335578251829060ff1690559160200191906001019062000313565b5b509050620003459190620003da565b5090565b8280546200035790620003f9565b90600052602060002090601f0160209004810192826200037b5760008555620003c7565b82601f106200039657805160ff1916838001178555620003c7565b82800160010185558215620003c7579182015b82811115620003c6578251825591602001919060010190620003a9565b5b509050620003d69190620003da565b5090565b5b80821115620003f5576000816000905550600101620003db565b5090565b600060028204905060018216806200041257607f821691505b602082108114156200042957620004286200042f565b5b50919050565b7f4e487b7100000000000000000000000000000000000000000000000000000000600052602260045260246000fd5b615445806200046e6000396000f3fe60806040526004361061019b5760003560e01c80638da5cb5b116100ec578063bfb231d21161008a578063e985e9c511610064578063e985e9c5146105e4578063f0ce512014610621578063f242432a1461063d578063f2fde38b146106665761019b565b8063bfb231d21461054b578063c4ff21ca1461058e578063c50b6845146105b95761019b565b8063aa553909116100c6578063aa5539091461047d578063ab17bc1e146104ba578063b7cecb16146104f7578063bd94b005146105225761019b565b80638da5cb5b1461040d5780639979c00914610438578063a22cb465146104545761019b565b80632e1a7d4d116101595780633f6f1d65116101335780633f6f1d65146103635780634e1273f41461038e5780636d6d00ed146103cb578063715018a6146103f65761019b565b80632e1a7d4d146102e65780632eb2c2d61461030f5780632f0b4183146103385761019b565b8062fdd58e146101a057806301ffc9a7146101dd5780630e89341c1461021a5780631304e535146102575780631744c700146102805780631cf196df146102bd575b600080fd5b3480156101ac57600080fd5b506101c760048036038101906101c2919061361e565b61068f565b6040516101d49190614394565b60405180910390f35b3480156101e957600080fd5b5061020460048036038101906101ff91906136c6565b610758565b6040516102119190614017565b60405180910390f35b34801561022657600080fd5b50610241600480360381019061023c9190613759565b61083a565b60405161024e9190614032565b60405180910390f35b34801561026357600080fd5b5061027e600480360381019061027991906137be565b6108ce565b005b34801561028c57600080fd5b506102a760048036038101906102a2919061361e565b610d96565b6040516102b49190614394565b60405180910390f35b3480156102c957600080fd5b506102e460048036038101906102df9190613759565b610dbb565b005b3480156102f257600080fd5b5061030d60048036038101906103089190613759565b610e41565b005b34801561031b57600080fd5b5061033660048036038101906103319190613494565b610f9a565b005b34801561034457600080fd5b5061034d61103b565b60405161035a9190614394565b60405180910390f35b34801561036f57600080fd5b50610378611041565b6040516103859190614394565b60405180910390f35b34801561039a57600080fd5b506103b560048036038101906103b0919061365a565b6110c5565b6040516103c29190613fbe565b60405180910390f35b3480156103d757600080fd5b506103e0611276565b6040516103ed9190614394565b60405180910390f35b34801561040257600080fd5b5061040b61127c565b005b34801561041957600080fd5b50610422611304565b60405161042f9190613ee1565b60405180910390f35b610452600480360381019061044d9190613782565b61132e565b005b34801561046057600080fd5b5061047b600480360381019061047691906135e2565b61193a565b005b34801561048957600080fd5b506104a4600480360381019061049f9190613782565b611abb565b6040516104b19190614394565b60405180910390f35b3480156104c657600080fd5b506104e160048036038101906104dc919061342f565b611aec565b6040516104ee9190614394565b60405180910390f35b34801561050357600080fd5b5061050c611b04565b6040516105199190614394565b60405180910390f35b34801561052e57600080fd5b5061054960048036038101906105449190613759565b611b0a565b005b34801561055757600080fd5b50610572600480360381019061056d9190613759565b611be0565b6040516105859796959493929190614520565b60405180910390f35b34801561059a57600080fd5b506105a3611c4f565b6040516105b09190614394565b60405180910390f35b3480156105c557600080fd5b506105ce611c55565b6040516105db9190614394565b60405180910390f35b3480156105f057600080fd5b5061060b60048036038101906106069190613458565b611c5b565b6040516106189190614017565b60405180910390f35b61063b60048036038101906106369190613718565b611cef565b005b34801561064957600080fd5b50610664600480360381019061065f9190613553565b611fde565b005b34801561067257600080fd5b5061068d6004803603810190610688919061342f565b61207f565b005b60008073ffffffffffffffffffffffffffffffffffffffff168373ffffffffffffffffffffffffffffffffffffffff161415610700576040517f08c379a00000000000000000000000000000000000000000000000000000000081526004016106f7906140d4565b60405180910390fd5b60008083815260200190815260200160002060008473ffffffffffffffffffffffffffffffffffffffff1673ffffffffffffffffffffffffffffffffffffffff16815260200190815260200160002054905092915050565b60007fd9b67a26000000000000000000000000000000000000000000000000000000007bffffffffffffffffffffffffffffffffffffffffffffffffffffffff1916827bffffffffffffffffffffffffffffffffffffffffffffffffffffffff1916148061082357507f0e89341c000000000000000000000000000000000000000000000000000000007bffffffffffffffffffffffffffffffffffffffffffffffffffffffff1916827bffffffffffffffffffffffffffffffffffffffffffffffffffffffff1916145b80610833575061083282612177565b5b9050919050565b60606002805461084990614970565b80601f016020809104026020016040519081016040528092919081815260200182805461087590614970565b80156108c25780601f10610897576101008083540402835291602001916108c2565b820191906000526020600020905b8154815290600101906020018083116108a557829003601f168201915b50505050509050919050565b6000600a60003373ffffffffffffffffffffffffffffffffffffffff1673ffffffffffffffffffffffffffffffffffffffff1681526020019081526020016000206000858152602001908152602001600020549050600073ffffffffffffffffffffffffffffffffffffffff163373ffffffffffffffffffffffffffffffffffffffff161415610993576040517f08c379a000000000000000000000000000000000000000000000000000000000815260040161098a90614234565b60405180910390fd5b60018210156109d7576040517f08c379a00000000000000000000000000000000000000000000000000000000081526004016109ce90614134565b60405180910390fd5b60016109e3338661068f565b1015610a24576040517f08c379a0000000000000000000000000000000000000000000000000000000008152600401610a1b90614274565b60405180910390fd5b81610a2f338661068f565b1015610a70576040517f08c379a0000000000000000000000000000000000000000000000000000000008152600401610a6790614114565b60405180910390fd5b8181610a7c338761068f565b610a869190614842565b1015610ac7576040517f08c379a0000000000000000000000000000000000000000000000000000000008152600401610abe90614254565b60405180910390fd5b60086000815480929190610ada906149ed565b919050555060006040518061010001604052806008548152602001868152602001858152602001848152602001600081526020013373ffffffffffffffffffffffffffffffffffffffff168152602001600067ffffffffffffffff811115610b6b577f4e487b7100000000000000000000000000000000000000000000000000000000600052604160045260246000fd5b604051908082528060200260200182016040528015610b995781602001602082028036833780820191505090505b50815260200160011515815250905080600960006008548152602001908152602001600020600082015181600001556020820151816001015560408201518160020155606082015181600301556080820151816004015560a08201518160050160006101000a81548173ffffffffffffffffffffffffffffffffffffffff021916908373ffffffffffffffffffffffffffffffffffffffff16021790555060c0820151816006019080519060200190610c5392919061309d565b5060e08201518160070160006101000a81548160ff0219169083151502179055509050508282610c839190614761565b600a60003373ffffffffffffffffffffffffffffffffffffffff1673ffffffffffffffffffffffffffffffffffffffff1681526020019081526020016000206000878152602001908152602001600020819055507f5c2dc4bea78ba864380f5a01d8b498df207d5755fb91eccd1681f1380b504611600854868686600033600067ffffffffffffffff811115610d42577f4e487b7100000000000000000000000000000000000000000000000000000000600052604160045260246000fd5b604051908082528060200260200182016040528015610d705781602001602082028036833780820191505090505b506001604051610d87989796959493929190614416565b60405180910390a15050505050565b600a602052816000526040600020602052806000526040600020600091509150505481565b610dc36121e1565b73ffffffffffffffffffffffffffffffffffffffff16610de1611304565b73ffffffffffffffffffffffffffffffffffffffff1614610e37576040517f08c379a0000000000000000000000000000000000000000000000000000000008152600401610e2e906141f4565b60405180910390fd5b80600c8190555050565b610e496121e1565b73ffffffffffffffffffffffffffffffffffffffff16610e67611304565b73ffffffffffffffffffffffffffffffffffffffff1614610ebd576040517f08c379a0000000000000000000000000000000000000000000000000000000008152600401610eb4906141f4565b60405180910390fd5b60004711610f00576040517f08c379a0000000000000000000000000000000000000000000000000000000008152600401610ef790614334565b60405180910390fd5b80471015610f43576040517f08c379a0000000000000000000000000000000000000000000000000000000008152600401610f3a90614374565b60405180910390fd5b6000610f4d611304565b90508073ffffffffffffffffffffffffffffffffffffffff166108fc839081150290604051600060405180830381858888f19350505050158015610f95573d6000803e3d6000fd5b505050565b610fa26121e1565b73ffffffffffffffffffffffffffffffffffffffff168573ffffffffffffffffffffffffffffffffffffffff161480610fe85750610fe785610fe26121e1565b611c5b565b5b611027576040517f08c379a000000000000000000000000000000000000000000000000000000000815260040161101e90614194565b60405180910390fd5b61103485858585856121e9565b5050505050565b60045481565b600061104b6121e1565b73ffffffffffffffffffffffffffffffffffffffff16611069611304565b73ffffffffffffffffffffffffffffffffffffffff16146110bf576040517f08c379a00000000000000000000000000000000000000000000000000000000081526004016110b6906141f4565b60405180910390fd5b47905090565b6060815183511461110b576040517f08c379a0000000000000000000000000000000000000000000000000000000008152600401611102906142d4565b60405180910390fd5b6000835167ffffffffffffffff81111561114e577f4e487b7100000000000000000000000000000000000000000000000000000000600052604160045260246000fd5b60405190808252806020026020018201604052801561117c5781602001602082028036833780820191505090505b50905060005b845181101561126b576112158582815181106111c7577f4e487b7100000000000000000000000000000000000000000000000000000000600052603260045260246000fd5b6020026020010151858381518110611208577f4e487b7100000000000000000000000000000000000000000000000000000000600052603260045260246000fd5b602002602001015161068f565b82828151811061124e577f4e487b7100000000000000000000000000000000000000000000000000000000600052603260045260246000fd5b60200260200101818152505080611264906149ed565b9050611182565b508091505092915050565b60085481565b6112846121e1565b73ffffffffffffffffffffffffffffffffffffffff166112a2611304565b73ffffffffffffffffffffffffffffffffffffffff16146112f8576040517f08c379a00000000000000000000000000000000000000000000000000000000081526004016112ef906141f4565b60405180910390fd5b6113026000612549565b565b6000600360009054906101000a900473ffffffffffffffffffffffffffffffffffffffff16905090565b60006009600084815260200190815260200160002060050160009054906101000a900473ffffffffffffffffffffffffffffffffffffffff1690506000600960008581526020019081526020016000206001015490508260096000868152602001908152602001600020600201546113a691906147e8565b3410156113e8576040517f08c379a00000000000000000000000000000000000000000000000000000000081526004016113df906140b4565b60405180910390fd5b600073ffffffffffffffffffffffffffffffffffffffff163373ffffffffffffffffffffffffffffffffffffffff161415611458576040517f08c379a000000000000000000000000000000000000000000000000000000000815260040161144f90614234565b60405180910390fd5b3373ffffffffffffffffffffffffffffffffffffffff168273ffffffffffffffffffffffffffffffffffffffff1614156114c7576040517f08c379a00000000000000000000000000000000000000000000000000000000081526004016114be906141d4565b60405180910390fd5b6009600085815260200190815260200160002060070160009054906101000a900460ff1661152a576040517f08c379a000000000000000000000000000000000000000000000000000000000815260040161152190614354565b60405180910390fd5b600183101561156e576040517f08c379a000000000000000000000000000000000000000000000000000000000815260040161156590614134565b60405180910390fd5b82600960008681526020019081526020016000206003015410156115c7576040517f08c379a00000000000000000000000000000000000000000000000000000000081526004016115be90614094565b60405180910390fd5b60006064600c54346115d991906147e8565b6115e391906147b7565b9050600081346115f39190614842565b90508373ffffffffffffffffffffffffffffffffffffffff166108fc829081150290604051600060405180830381858888f1935050505015801561163b573d6000803e3d6000fd5b50611658843385886040518060200160405280600081525061260f565b60096000878152602001908152602001600020600601339080600181540180825580915050600190039060005260206000200160009091909190916101000a81548173ffffffffffffffffffffffffffffffffffffffff021916908373ffffffffffffffffffffffffffffffffffffffff1602179055508460096000888152602001908152602001600020600301546116f19190614842565b600960008881526020019081526020016000206003018190555084600960008881526020019081526020016000206004015461172d9190614761565b600960008881526020019081526020016000206004018190555060006009600088815260200190815260200160002060030154116117955760006009600088815260200190815260200160002060070160006101000a81548160ff0219169083151502179055505b84600a60008673ffffffffffffffffffffffffffffffffffffffff1673ffffffffffffffffffffffffffffffffffffffff1681526020019081526020016000206000858152602001908152602001600020546117f19190614842565b600a60008673ffffffffffffffffffffffffffffffffffffffff1673ffffffffffffffffffffffffffffffffffffffff16815260200190815260200160002060008581526020019081526020016000208190555034600b60003373ffffffffffffffffffffffffffffffffffffffff1673ffffffffffffffffffffffffffffffffffffffff168152602001908152602001600020819055507f017d9a122954e647a7937f05d0cdc4edb9f9928fc3264784f5abd6a297a758fc6009600088815260200190815260200160002060000154843488600960008c81526020019081526020016000206004015489600960008e8152602001908152602001600020600601600960008f815260200190815260200160002060070160009054906101000a900460ff1660405161192a98979695949392919061449b565b60405180910390a1505050505050565b8173ffffffffffffffffffffffffffffffffffffffff166119596121e1565b73ffffffffffffffffffffffffffffffffffffffff1614156119b0576040517f08c379a00000000000000000000000000000000000000000000000000000000081526004016119a7906142b4565b60405180910390fd5b80600160006119bd6121e1565b73ffffffffffffffffffffffffffffffffffffffff1673ffffffffffffffffffffffffffffffffffffffff16815260200190815260200160002060008473ffffffffffffffffffffffffffffffffffffffff1673ffffffffffffffffffffffffffffffffffffffff16815260200190815260200160002060006101000a81548160ff0219169083151502179055508173ffffffffffffffffffffffffffffffffffffffff16611a6a6121e1565b73ffffffffffffffffffffffffffffffffffffffff167f17307eab39ab6107e8899845ad3d59bd9653f200f220920489ca2b5937696c3183604051611aaf9190614017565b60405180910390a35050565b60076020528160005260406000208181548110611ad757600080fd5b90600052602060002001600091509150505481565b600b6020528060005260406000206000915090505481565b60065481565b6009600082815260200190815260200160002060050160009054906101000a900473ffffffffffffffffffffffffffffffffffffffff1673ffffffffffffffffffffffffffffffffffffffff163373ffffffffffffffffffffffffffffffffffffffff1614611bae576040517f08c379a0000000000000000000000000000000000000000000000000000000008152600401611ba590614214565b60405180910390fd5b60006009600083815260200190815260200160002060070160006101000a81548160ff02191690831515021790555050565b60096020528060005260406000206000915090508060000154908060010154908060020154908060030154908060040154908060050160009054906101000a900473ffffffffffffffffffffffffffffffffffffffff16908060070160009054906101000a900460ff16905087565b60055481565b600c5481565b6000600160008473ffffffffffffffffffffffffffffffffffffffff1673ffffffffffffffffffffffffffffffffffffffff16815260200190815260200160002060008373ffffffffffffffffffffffffffffffffffffffff1673ffffffffffffffffffffffffffffffffffffffff16815260200190815260200160002060009054906101000a900460ff16905092915050565b6000600190506000806005905060006040518060400160405280600681526020017f6e6f726d616c00000000000000000000000000000000000000000000000000008152508051906020012085805190602001201415611d53576004549250611e05565b6040518060400160405280600481526020017f72617265000000000000000000000000000000000000000000000000000000008152508051906020012085805190602001201415611da8576005549250611e04565b6040518060400160405280600781526020017f7072656d69756d000000000000000000000000000000000000000000000000008152508051906020012085805190602001201415611dfd576006549250611e03565b60065492505b5b5b8284611e1191906147e8565b341015611e53576040517f08c379a0000000000000000000000000000000000000000000000000000000008152600401611e4a90614294565b60405180910390fd5b600081606484611e6391906147e8565b611e6d9190614761565b90506000611e7a82612891565b604051602001611e8a9190613eb4565b6040516020818303038152906040529050611ea481612a3e565b611ebf33838860405180602001604052806000815250612a58565b85600760008681526020019081526020016000208481548110611f0b577f4e487b7100000000000000000000000000000000000000000000000000000000600052603260045260246000fd5b906000526020600020016000828254611f249190614761565b92505081905550600060405180604001604052808481526020018381525090507fa82fb03fc7b60927b6471a51b8a6ebd67ce2fa84da5099c6b587c9f73c104ac083600760008881526020019081526020016000208681548110611fb1577f4e487b7100000000000000000000000000000000000000000000000000000000600052603260045260246000fd5b906000526020600020015483604051611fcc939291906143d8565b60405180910390a15050505050505050565b611fe66121e1565b73ffffffffffffffffffffffffffffffffffffffff168573ffffffffffffffffffffffffffffffffffffffff16148061202c575061202b856120266121e1565b611c5b565b5b61206b576040517f08c379a000000000000000000000000000000000000000000000000000000000815260040161206290614154565b60405180910390fd5b612078858585858561260f565b5050505050565b6120876121e1565b73ffffffffffffffffffffffffffffffffffffffff166120a5611304565b73ffffffffffffffffffffffffffffffffffffffff16146120fb576040517f08c379a00000000000000000000000000000000000000000000000000000000081526004016120f2906141f4565b60405180910390fd5b600073ffffffffffffffffffffffffffffffffffffffff168173ffffffffffffffffffffffffffffffffffffffff16141561216b576040517f08c379a0000000000000000000000000000000000000000000000000000000008152600401612162906140f4565b60405180910390fd5b61217481612549565b50565b60007f01ffc9a7000000000000000000000000000000000000000000000000000000007bffffffffffffffffffffffffffffffffffffffffffffffffffffffff1916827bffffffffffffffffffffffffffffffffffffffffffffffffffffffff1916149050919050565b600033905090565b815183511461222d576040517f08c379a0000000000000000000000000000000000000000000000000000000008152600401612224906142f4565b60405180910390fd5b600073ffffffffffffffffffffffffffffffffffffffff168473ffffffffffffffffffffffffffffffffffffffff16141561229d576040517f08c379a000000000000000000000000000000000000000000000000000000000815260040161229490614174565b60405180910390fd5b60006122a76121e1565b90506122b7818787878787612bee565b60005b84518110156124b45760008582815181106122fe577f4e487b7100000000000000000000000000000000000000000000000000000000600052603260045260246000fd5b602002602001015190506000858381518110612343577f4e487b7100000000000000000000000000000000000000000000000000000000600052603260045260246000fd5b60200260200101519050600080600084815260200190815260200160002060008b73ffffffffffffffffffffffffffffffffffffffff1673ffffffffffffffffffffffffffffffffffffffff168152602001908152602001600020549050818110156123e4576040517f08c379a00000000000000000000000000000000000000000000000000000000081526004016123db906141b4565b60405180910390fd5b81810360008085815260200190815260200160002060008c73ffffffffffffffffffffffffffffffffffffffff1673ffffffffffffffffffffffffffffffffffffffff168152602001908152602001600020819055508160008085815260200190815260200160002060008b73ffffffffffffffffffffffffffffffffffffffff1673ffffffffffffffffffffffffffffffffffffffff16815260200190815260200160002060008282546124999190614761565b92505081905550505050806124ad906149ed565b90506122ba565b508473ffffffffffffffffffffffffffffffffffffffff168673ffffffffffffffffffffffffffffffffffffffff168273ffffffffffffffffffffffffffffffffffffffff167f4a39dc06d4c0dbc64b70af90fd698a233a518aa5d07e595d983b8c0526c8f7fb878760405161252b929190613fe0565b60405180910390a4612541818787878787612bf6565b505050505050565b6000600360009054906101000a900473ffffffffffffffffffffffffffffffffffffffff16905081600360006101000a81548173ffffffffffffffffffffffffffffffffffffffff021916908373ffffffffffffffffffffffffffffffffffffffff1602179055508173ffffffffffffffffffffffffffffffffffffffff168173ffffffffffffffffffffffffffffffffffffffff167f8be0079c531659141344cd1fd0a4f28419497f9722a3daafe3b4186f6b6457e060405160405180910390a35050565b600073ffffffffffffffffffffffffffffffffffffffff168473ffffffffffffffffffffffffffffffffffffffff16141561267f576040517f08c379a000000000000000000000000000000000000000000000000000000000815260040161267690614174565b60405180910390fd5b60006126896121e1565b90506126a981878761269a88612ddd565b6126a388612ddd565b87612bee565b600080600086815260200190815260200160002060008873ffffffffffffffffffffffffffffffffffffffff1673ffffffffffffffffffffffffffffffffffffffff16815260200190815260200160002054905083811015612740576040517f08c379a0000000000000000000000000000000000000000000000000000000008152600401612737906141b4565b60405180910390fd5b83810360008087815260200190815260200160002060008973ffffffffffffffffffffffffffffffffffffffff1673ffffffffffffffffffffffffffffffffffffffff168152602001908152602001600020819055508360008087815260200190815260200160002060008873ffffffffffffffffffffffffffffffffffffffff1673ffffffffffffffffffffffffffffffffffffffff16815260200190815260200160002060008282546127f59190614761565b925050819055508573ffffffffffffffffffffffffffffffffffffffff168773ffffffffffffffffffffffffffffffffffffffff168373ffffffffffffffffffffffffffffffffffffffff167fc3d58168c5ae7397731d063d5bbf3d657854427343f4c083240f7aacaa2d0f6288886040516128729291906143af565b60405180910390a4612888828888888888612ea3565b50505050505050565b606060008214156128d9576040518060400160405280600181526020017f30000000000000000000000000000000000000000000000000000000000000008152509050612a39565b600082905060005b6000821461290b5780806128f4906149ed565b915050600a8261290491906147b7565b91506128e1565b60008167ffffffffffffffff81111561294d577f4e487b7100000000000000000000000000000000000000000000000000000000600052604160045260246000fd5b6040519080825280601f01601f19166020018201604052801561297f5781602001600182028036833780820191505090505b5090505b60008514612a32576001826129989190614842565b9150600a856129a79190614a36565b60306129b39190614761565b60f81b8183815181106129ef577f4e487b7100000000000000000000000000000000000000000000000000000000600052603260045260246000fd5b60200101907effffffffffffffffffffffffffffffffffffffffffffffffffffffffffffff1916908160001a905350600a85612a2b91906147b7565b9450612983565b8093505050505b919050565b8060029080519060200190612a54929190613127565b5050565b600073ffffffffffffffffffffffffffffffffffffffff168473ffffffffffffffffffffffffffffffffffffffff161415612ac8576040517f08c379a0000000000000000000000000000000000000000000000000000000008152600401612abf90614314565b60405180910390fd5b6000612ad26121e1565b9050612af381600087612ae488612ddd565b612aed88612ddd565b87612bee565b8260008086815260200190815260200160002060008773ffffffffffffffffffffffffffffffffffffffff1673ffffffffffffffffffffffffffffffffffffffff1681526020019081526020016000206000828254612b529190614761565b925050819055508473ffffffffffffffffffffffffffffffffffffffff16600073ffffffffffffffffffffffffffffffffffffffff168273ffffffffffffffffffffffffffffffffffffffff167fc3d58168c5ae7397731d063d5bbf3d657854427343f4c083240f7aacaa2d0f628787604051612bd09291906143af565b60405180910390a4612be781600087878787612ea3565b5050505050565b505050505050565b612c158473ffffffffffffffffffffffffffffffffffffffff1661308a565b15612dd5578373ffffffffffffffffffffffffffffffffffffffff1663bc197c8187878686866040518663ffffffff1660e01b8152600401612c5b959493929190613efc565b602060405180830381600087803b158015612c7557600080fd5b505af1925050508015612ca657506040513d601f19601f82011682018060405250810190612ca391906136ef565b60015b612d4c57612cb2614b36565b806308c379a01415612d0f5750612cc761531d565b80612cd25750612d11565b806040517f08c379a0000000000000000000000000000000000000000000000000000000008152600401612d069190614032565b60405180910390fd5b505b6040517f08c379a0000000000000000000000000000000000000000000000000000000008152600401612d4390614054565b60405180910390fd5b63bc197c8160e01b7bffffffffffffffffffffffffffffffffffffffffffffffffffffffff1916817bffffffffffffffffffffffffffffffffffffffffffffffffffffffff191614612dd3576040517f08c379a0000000000000000000000000000000000000000000000000000000008152600401612dca90614074565b60405180910390fd5b505b505050505050565b60606000600167ffffffffffffffff811115612e22577f4e487b7100000000000000000000000000000000000000000000000000000000600052604160045260246000fd5b604051908082528060200260200182016040528015612e505781602001602082028036833780820191505090505b5090508281600081518110612e8e577f4e487b7100000000000000000000000000000000000000000000000000000000600052603260045260246000fd5b60200260200101818152505080915050919050565b612ec28473ffffffffffffffffffffffffffffffffffffffff1661308a565b15613082578373ffffffffffffffffffffffffffffffffffffffff1663f23a6e6187878686866040518663ffffffff1660e01b8152600401612f08959493929190613f64565b602060405180830381600087803b158015612f2257600080fd5b505af1925050508015612f5357506040513d601f19601f82011682018060405250810190612f5091906136ef565b60015b612ff957612f5f614b36565b806308c379a01415612fbc5750612f7461531d565b80612f7f5750612fbe565b806040517f08c379a0000000000000000000000000000000000000000000000000000000008152600401612fb39190614032565b60405180910390fd5b505b6040517f08c379a0000000000000000000000000000000000000000000000000000000008152600401612ff090614054565b60405180910390fd5b63f23a6e6160e01b7bffffffffffffffffffffffffffffffffffffffffffffffffffffffff1916817bffffffffffffffffffffffffffffffffffffffffffffffffffffffff191614613080576040517f08c379a000000000000000000000000000000000000000000000000000000000815260040161307790614074565b60405180910390fd5b505b505050505050565b600080823b905060008111915050919050565b828054828255906000526020600020908101928215613116579160200282015b828111156131155782518260006101000a81548173ffffffffffffffffffffffffffffffffffffffff021916908373ffffffffffffffffffffffffffffffffffffffff160217905550916020019190600101906130bd565b5b50905061312391906131ad565b5090565b82805461313390614970565b90600052602060002090601f016020900481019282613155576000855561319c565b82601f1061316e57805160ff191683800117855561319c565b8280016001018555821561319c579182015b8281111561319b578251825591602001919060010190613180565b5b5090506131a991906131ad565b5090565b5b808211156131c65760008160009055506001016131ae565b5090565b60006131dd6131d8846145b4565b61458f565b905080838252602082019050828560208602820111156131fc57600080fd5b60005b8581101561322c5781613212888261331e565b8452602084019350602083019250506001810190506131ff565b5050509392505050565b6000613249613244846145e0565b61458f565b9050808382526020820190508285602086028201111561326857600080fd5b60005b85811015613298578161327e888261341a565b84526020840193506020830192505060018101905061326b565b5050509392505050565b60006132b56132b08461460c565b61458f565b9050828152602081018484840111156132cd57600080fd5b6132d884828561492e565b509392505050565b60006132f36132ee8461463d565b61458f565b90508281526020810184848401111561330b57600080fd5b61331684828561492e565b509392505050565b60008135905061332d816153b3565b92915050565b600082601f83011261334457600080fd5b81356133548482602086016131ca565b91505092915050565b600082601f83011261336e57600080fd5b813561337e848260208601613236565b91505092915050565b600081359050613396816153ca565b92915050565b6000813590506133ab816153e1565b92915050565b6000815190506133c0816153e1565b92915050565b600082601f8301126133d757600080fd5b81356133e78482602086016132a2565b91505092915050565b600082601f83011261340157600080fd5b81356134118482602086016132e0565b91505092915050565b600081359050613429816153f8565b92915050565b60006020828403121561344157600080fd5b600061344f8482850161331e565b91505092915050565b6000806040838503121561346b57600080fd5b60006134798582860161331e565b925050602061348a8582860161331e565b9150509250929050565b600080600080600060a086880312156134ac57600080fd5b60006134ba8882890161331e565b95505060206134cb8882890161331e565b945050604086013567ffffffffffffffff8111156134e857600080fd5b6134f48882890161335d565b935050606086013567ffffffffffffffff81111561351157600080fd5b61351d8882890161335d565b925050608086013567ffffffffffffffff81111561353a57600080fd5b613546888289016133c6565b9150509295509295909350565b600080600080600060a0868803121561356b57600080fd5b60006135798882890161331e565b955050602061358a8882890161331e565b945050604061359b8882890161341a565b93505060606135ac8882890161341a565b925050608086013567ffffffffffffffff8111156135c957600080fd5b6135d5888289016133c6565b9150509295509295909350565b600080604083850312156135f557600080fd5b60006136038582860161331e565b925050602061361485828601613387565b9150509250929050565b6000806040838503121561363157600080fd5b600061363f8582860161331e565b92505060206136508582860161341a565b9150509250929050565b6000806040838503121561366d57600080fd5b600083013567ffffffffffffffff81111561368757600080fd5b61369385828601613333565b925050602083013567ffffffffffffffff8111156136b057600080fd5b6136bc8582860161335d565b9150509250929050565b6000602082840312156136d857600080fd5b60006136e68482850161339c565b91505092915050565b60006020828403121561370157600080fd5b600061370f848285016133b1565b91505092915050565b60006020828403121561372a57600080fd5b600082013567ffffffffffffffff81111561374457600080fd5b613750848285016133f0565b91505092915050565b60006020828403121561376b57600080fd5b60006137798482850161341a565b91505092915050565b6000806040838503121561379557600080fd5b60006137a38582860161341a565b92505060206137b48582860161341a565b9150509250929050565b6000806000606084860312156137d357600080fd5b60006137e18682870161341a565b93505060206137f28682870161341a565b92505060406138038682870161341a565b9150509250925092565b6000613819838361384c565b60208301905092915050565b60006138318383613e96565b60208301905092915050565b613846816148a8565b82525050565b61385581614896565b82525050565b61386481614896565b82525050565b6000613875826146a3565b61387f8185614701565b935061388a8361466e565b8060005b838110156138bb5781516138a2888261380d565b97506138ad836146da565b92505060018101905061388e565b5085935050505092915050565b60006138d3826146ae565b6138dd8185614701565b93506138e88361467e565b8060005b83811015613920576138fd82614b23565b613907888261380d565b9750613912836146e7565b9250506001810190506138ec565b5085935050505092915050565b6000613938826146b9565b6139428185614712565b935061394d83614693565b8060005b8381101561397e5781516139658882613825565b9750613970836146f4565b925050600181019050613951565b5085935050505092915050565b613994816148ba565b82525050565b60006139a5826146c4565b6139af8185614723565b93506139bf81856020860161493d565b6139c881614b58565b840191505092915050565b6139dc8161491c565b82525050565b60006139ed826146cf565b6139f78185614734565b9350613a0781856020860161493d565b613a1081614b58565b840191505092915050565b6000613a26826146cf565b613a308185614745565b9350613a4081856020860161493d565b613a4981614b58565b840191505092915050565b6000613a5f826146cf565b613a698185614756565b9350613a7981856020860161493d565b80840191505092915050565b6000613a92603483614745565b9150613a9d82614b83565b604082019050919050565b6000613ab5602883614745565b9150613ac082614bd2565b604082019050919050565b6000613ad8603f83614745565b9150613ae382614c21565b604082019050919050565b6000613afb601083614745565b9150613b0682614c70565b602082019050919050565b6000613b1e602b83614745565b9150613b2982614c99565b604082019050919050565b6000613b41602683614745565b9150613b4c82614ce8565b604082019050919050565b6000613b64602683614745565b9150613b6f82614d37565b604082019050919050565b6000613b87601e83614745565b9150613b9282614d86565b602082019050919050565b6000613baa602983614745565b9150613bb582614daf565b604082019050919050565b6000613bcd602583614745565b9150613bd882614dfe565b604082019050919050565b6000613bf0603283614745565b9150613bfb82614e4d565b604082019050919050565b6000613c13602a83614745565b9150613c1e82614e9c565b604082019050919050565b6000613c36602083614745565b9150613c4182614eeb565b602082019050919050565b6000613c59600583614756565b9150613c6482614f14565b600582019050919050565b6000613c7c602083614745565b9150613c8782614f3d565b602082019050919050565b6000613c9f602e83614745565b9150613caa82614f66565b604082019050919050565b6000613cc2601a83614745565b9150613ccd82614fb5565b602082019050919050565b6000613ce5604183614745565b9150613cf082614fde565b606082019050919050565b6000613d08602083614745565b9150613d1382615053565b602082019050919050565b6000613d2b601583614745565b9150613d368261507c565b602082019050919050565b6000613d4e602c83614756565b9150613d59826150a5565b602c82019050919050565b6000613d71602983614745565b9150613d7c826150f4565b604082019050919050565b6000613d94602983614745565b9150613d9f82615143565b604082019050919050565b6000613db7602883614745565b9150613dc282615192565b604082019050919050565b6000613dda602183614745565b9150613de5826151e1565b604082019050919050565b6000613dfd600f83614745565b9150613e0882615230565b602082019050919050565b6000613e20602383614745565b9150613e2b82615259565b604082019050919050565b6000613e43604c83614745565b9150613e4e826152a8565b606082019050919050565b6000604083016000830151613e716000860182613e96565b5060208301518482036020860152613e8982826139e2565b9150508091505092915050565b613e9f81614912565b82525050565b613eae81614912565b82525050565b6000613ebf82613d41565b9150613ecb8284613a54565b9150613ed682613c4c565b915081905092915050565b6000602082019050613ef6600083018461385b565b92915050565b600060a082019050613f11600083018861385b565b613f1e602083018761385b565b8181036040830152613f30818661392d565b90508181036060830152613f44818561392d565b90508181036080830152613f58818461399a565b90509695505050505050565b600060a082019050613f79600083018861385b565b613f86602083018761385b565b613f936040830186613ea5565b613fa06060830185613ea5565b8181036080830152613fb2818461399a565b90509695505050505050565b60006020820190508181036000830152613fd8818461392d565b905092915050565b60006040820190508181036000830152613ffa818561392d565b9050818103602083015261400e818461392d565b90509392505050565b600060208201905061402c600083018461398b565b92915050565b6000602082019050818103600083015261404c8184613a1b565b905092915050565b6000602082019050818103600083015261406d81613a85565b9050919050565b6000602082019050818103600083015261408d81613aa8565b9050919050565b600060208201905081810360008301526140ad81613acb565b9050919050565b600060208201905081810360008301526140cd81613aee565b9050919050565b600060208201905081810360008301526140ed81613b11565b9050919050565b6000602082019050818103600083015261410d81613b34565b9050919050565b6000602082019050818103600083015261412d81613b57565b9050919050565b6000602082019050818103600083015261414d81613b7a565b9050919050565b6000602082019050818103600083015261416d81613b9d565b9050919050565b6000602082019050818103600083015261418d81613bc0565b9050919050565b600060208201905081810360008301526141ad81613be3565b9050919050565b600060208201905081810360008301526141cd81613c06565b9050919050565b600060208201905081810360008301526141ed81613c29565b9050919050565b6000602082019050818103600083015261420d81613c6f565b9050919050565b6000602082019050818103600083015261422d81613c92565b9050919050565b6000602082019050818103600083015261424d81613cb5565b9050919050565b6000602082019050818103600083015261426d81613cd8565b9050919050565b6000602082019050818103600083015261428d81613cfb565b9050919050565b600060208201905081810360008301526142ad81613d1e565b9050919050565b600060208201905081810360008301526142cd81613d64565b9050919050565b600060208201905081810360008301526142ed81613d87565b9050919050565b6000602082019050818103600083015261430d81613daa565b9050919050565b6000602082019050818103600083015261432d81613dcd565b9050919050565b6000602082019050818103600083015261434d81613df0565b9050919050565b6000602082019050818103600083015261436d81613e13565b9050919050565b6000602082019050818103600083015261438d81613e36565b9050919050565b60006020820190506143a96000830184613ea5565b92915050565b60006040820190506143c46000830185613ea5565b6143d16020830184613ea5565b9392505050565b60006060820190506143ed6000830186613ea5565b6143fa6020830185613ea5565b818103604083015261440c8184613e59565b9050949350505050565b60006101008201905061442c600083018b613ea5565b614439602083018a613ea5565b6144466040830189613ea5565b6144536060830188613ea5565b61446060808301876139d3565b61446d60a083018661383d565b81810360c083015261447f818561386a565b905061448e60e083018461398b565b9998505050505050505050565b6000610100820190506144b1600083018b613ea5565b6144be602083018a613ea5565b6144cb6040830189613ea5565b6144d86060830188613ea5565b6144e56080830187613ea5565b6144f260a083018661383d565b81810360c083015261450481856138c8565b905061451360e083018461398b565b9998505050505050505050565b600060e082019050614535600083018a613ea5565b6145426020830189613ea5565b61454f6040830188613ea5565b61455c6060830187613ea5565b6145696080830186613ea5565b61457660a083018561383d565b61458360c083018461398b565b98975050505050505050565b60006145996145aa565b90506145a582826149bc565b919050565b6000604051905090565b600067ffffffffffffffff8211156145cf576145ce614af4565b5b602082029050602081019050919050565b600067ffffffffffffffff8211156145fb576145fa614af4565b5b602082029050602081019050919050565b600067ffffffffffffffff82111561462757614626614af4565b5b61463082614b58565b9050602081019050919050565b600067ffffffffffffffff82111561465857614657614af4565b5b61466182614b58565b9050602081019050919050565b6000819050602082019050919050565b60008190508160005260206000209050919050565b6000819050602082019050919050565b600081519050919050565b600081549050919050565b600081519050919050565b600081519050919050565b600081519050919050565b6000602082019050919050565b6000600182019050919050565b6000602082019050919050565b600082825260208201905092915050565b600082825260208201905092915050565b600082825260208201905092915050565b600082825260208201905092915050565b600082825260208201905092915050565b600081905092915050565b600061476c82614912565b915061477783614912565b9250827fffffffffffffffffffffffffffffffffffffffffffffffffffffffffffffffff038211156147ac576147ab614a67565b5b828201905092915050565b60006147c282614912565b91506147cd83614912565b9250826147dd576147dc614a96565b5b828204905092915050565b60006147f382614912565b91506147fe83614912565b9250817fffffffffffffffffffffffffffffffffffffffffffffffffffffffffffffffff048311821515161561483757614836614a67565b5b828202905092915050565b600061484d82614912565b915061485883614912565b92508282101561486b5761486a614a67565b5b828203905092915050565b600073ffffffffffffffffffffffffffffffffffffffff82169050919050565b60006148a1826148f2565b9050919050565b60006148b3826148f2565b9050919050565b60008115159050919050565b60007fffffffff0000000000000000000000000000000000000000000000000000000082169050919050565b600073ffffffffffffffffffffffffffffffffffffffff82169050919050565b6000819050919050565b600061492782614912565b9050919050565b82818337600083830152505050565b60005b8381101561495b578082015181840152602081019050614940565b8381111561496a576000848401525b50505050565b6000600282049050600182168061498857607f821691505b6020821081141561499c5761499b614ac5565b5b50919050565b60006149b56149b083614b69565b614876565b9050919050565b6149c582614b58565b810181811067ffffffffffffffff821117156149e4576149e3614af4565b5b80604052505050565b60006149f882614912565b91507fffffffffffffffffffffffffffffffffffffffffffffffffffffffffffffffff821415614a2b57614a2a614a67565b5b600182019050919050565b6000614a4182614912565b9150614a4c83614912565b925082614a5c57614a5b614a96565b5b828206905092915050565b7f4e487b7100000000000000000000000000000000000000000000000000000000600052601160045260246000fd5b7f4e487b7100000000000000000000000000000000000000000000000000000000600052601260045260246000fd5b7f4e487b7100000000000000000000000000000000000000000000000000000000600052602260045260246000fd5b7f4e487b7100000000000000000000000000000000000000000000000000000000600052604160045260246000fd5b6000614b2f82546149a2565b9050919050565b600060033d1115614b555760046000803e614b52600051614b76565b90505b90565b6000601f19601f8301169050919050565b60008160001c9050919050565b60008160e01c9050919050565b7f455243313135353a207472616e7366657220746f206e6f6e204552433131353560008201527f526563656976657220696d706c656d656e746572000000000000000000000000602082015250565b7f455243313135353a204552433131353552656365697665722072656a6563746560008201527f6420746f6b656e73000000000000000000000000000000000000000000000000602082015250565b7f5175616e7469747920656e7465726564206973206d6f7265207468616e20746860008201527f6520617661696c61626c65207175616e74697479206265696e6720736f6c6400602082015250565b7f4e6f7420656e6f75676820657468657200000000000000000000000000000000600082015250565b7f455243313135353a2062616c616e636520717565727920666f7220746865207a60008201527f65726f2061646472657373000000000000000000000000000000000000000000602082015250565b7f4f776e61626c653a206e6577206f776e657220697320746865207a65726f206160008201527f6464726573730000000000000000000000000000000000000000000000000000602082015250565b7f4e6f7420656e6f756768206974656d20696e20796f75722077616c6c6574207460008201527f6f2073656c6c0000000000000000000000000000000000000000000000000000602082015250565b7f5175616e746974792073686f756c64206265206d6f7265207468616e20310000600082015250565b7f455243313135353a2063616c6c6572206973206e6f74206f776e6572206e6f7260008201527f20617070726f7665640000000000000000000000000000000000000000000000602082015250565b7f455243313135353a207472616e7366657220746f20746865207a65726f20616460008201527f6472657373000000000000000000000000000000000000000000000000000000602082015250565b7f455243313135353a207472616e736665722063616c6c6572206973206e6f742060008201527f6f776e6572206e6f7220617070726f7665640000000000000000000000000000602082015250565b7f455243313135353a20696e73756666696369656e742062616c616e636520666f60008201527f72207472616e7366657200000000000000000000000000000000000000000000602082015250565b7f43616e6e6f742062757920796f7572206f776e206974656d206f6e2073616c65600082015250565b7f2e6a736f6e000000000000000000000000000000000000000000000000000000600082015250565b7f4f776e61626c653a2063616c6c6572206973206e6f7420746865206f776e6572600082015250565b7f596f7520646f206e6f742068617665207065726d697373696f6e20746f20636160008201527f6e63656c20746869732073616c65000000000000000000000000000000000000602082015250565b7f4e6f7420612076616c69642077616c6c65742061646472657373000000000000600082015250565b7f596f75206861766520616e206578697374696e672073616c652e20596f75206360008201527f616e27742073656c6c206d6f7265207468616e207768617420796f752068617660208201527f6500000000000000000000000000000000000000000000000000000000000000604082015250565b7f596f7520646f6e277420686176652074686973206974656d20746f2073656c6c600082015250565b7f4e6f7420656e6f7567682065746865722073656e740000000000000000000000600082015250565b7f68747470733a2f2f6a7472616a616e6f33332e6769746875622e696f2f746f6b60008201527f656e5f7572692f646174612f0000000000000000000000000000000000000000602082015250565b7f455243313135353a2073657474696e6720617070726f76616c2073746174757360008201527f20666f722073656c660000000000000000000000000000000000000000000000602082015250565b7f455243313135353a206163636f756e747320616e6420696473206c656e67746860008201527f206d69736d617463680000000000000000000000000000000000000000000000602082015250565b7f455243313135353a2069647320616e6420616d6f756e7473206c656e6774682060008201527f6d69736d61746368000000000000000000000000000000000000000000000000602082015250565b7f455243313135353a206d696e7420746f20746865207a65726f2061646472657360008201527f7300000000000000000000000000000000000000000000000000000000000000602082015250565b7f42616c616e6365206973207a65726f0000000000000000000000000000000000600082015250565b7f536f7272792c204974656d206973206e6f7420666f722073616c6520616e796d60008201527f6f72650000000000000000000000000000000000000000000000000000000000602082015250565b7f416d6f756e74206265696e672077697468647261776e2065786365656465642060008201527f74686520746f74616c2062616c616e63652073746f72656420696e736964652060208201527f74686520636f6e74726163740000000000000000000000000000000000000000604082015250565b600060443d101561532d576153b0565b6153356145aa565b60043d036004823e80513d602482011167ffffffffffffffff8211171561535d5750506153b0565b808201805167ffffffffffffffff81111561537b57505050506153b0565b80602083010160043d0385018111156153985750505050506153b0565b6153a7826020018501866149bc565b82955050505050505b90565b6153bc81614896565b81146153c757600080fd5b50565b6153d3816148ba565b81146153de57600080fd5b50565b6153ea816148c6565b81146153f557600080fd5b50565b61540181614912565b811461540c57600080fd5b5056fea2646970667358221220f7d10348c51c313e05c30f767ffe5be0bd5977e06ea25b5ba3d2764d29754f1164736f6c63430008040033",
  "immutableReferences": {},
  "source": "// SPDX-License-Identifier: MIT\r\npragma solidity >=0.4.22 <0.9.0;\r\n\r\nimport \"@openzeppelin/contracts/token/ERC1155/ERC1155.sol\";\r\nimport \"@openzeppelin/contracts/access/Ownable.sol\";\r\nimport \"@openzeppelin/contracts/utils/Strings.sol\";\r\n\r\ncontract ElvenHunt is ERC1155, Ownable {\r\n    \r\n    constructor() ERC1155(\"\") {\r\n        //Supply per card rarity(number corresponds to how many stars a card has);\r\n        circulatingSupplyPerItem[1] = [0, 0, 0];\r\n        circulatingSupplyPerItem[2] = [0, 0, 0];   \r\n        circulatingSupplyPerItem[3] = [0, 0, 0];   \r\n        circulatingSupplyPerItem[4] = [0, 0, 0];   \r\n        circulatingSupplyPerItem[5] = [0, 0, 0];      \r\n    }\r\n    \r\n    //Mint Rate per rarity\r\n    uint256 public mintRate_Normal = 0.05 ether;\r\n    uint256 public mintRate_Rare = 0.1 ether;\r\n    uint256 public mintRate_Premium = 0.2 ether;\r\n    \r\n    //CirculatingSupply per item\r\n    mapping(uint256 => uint256[]) public circulatingSupplyPerItem;\r\n\r\n    //NFT Marketplace\r\n    uint public itemCounter = 0;\r\n    mapping(uint => Item) public items;\r\n    mapping(address => mapping(uint => uint)) public playerToItemsOnSale;\r\n    mapping(address => uint) public playerToRewardPoints;\r\n    uint public commissionFeePercentage = 3;\r\n\r\n    struct Item {\r\n        uint id; // auto generated id\r\n        uint itemId; //id of nft\r\n        uint price; // price for the nft to be sold\r\n        uint available; //no of items available to be sold\r\n        uint sold; // no of items that has been sold\r\n        address payable seller; //seller\r\n        address[] buyers; // people who bought the item \r\n        bool forSale; //check if item is still on sale\r\n    }\r\n    \r\n     struct Card{\r\n      uint256 id;\r\n      string tokenURI;\r\n    }\r\n    \r\n    event ItemMinted(\r\n      uint256 id,\r\n      uint256 circulatingSupply,\r\n      Card card\r\n    );\r\n\r\n    event ItemSold(\r\n        uint id,\r\n        uint itemId, \r\n        uint price,\r\n        uint available,\r\n        uint sold,\r\n        address payable seller, \r\n        address[] buyers,\r\n        bool forSale\r\n    );\r\n\r\n    event ItemListed(\r\n        uint id,\r\n        uint itemId, \r\n        uint price, \r\n        uint available,\r\n        uint sold, \r\n        address payable seller, \r\n        address[] buyers,\r\n        bool forSale      \r\n    );\r\n\r\n\r\n    uint256 randNonce = 0;\r\n\r\n    function mintCard(string memory _drawType) public payable {\r\n        \r\n        uint256 amount = 1;\r\n        uint256 mintRate;\r\n        uint256 cardRarity = 5;\r\n        uint256 id = 0;\r\n        \r\n        if(keccak256(bytes(_drawType)) == keccak256(bytes(\"normal\"))){\r\n            mintRate = mintRate_Normal;\r\n            //cardRarity = randomNumberGenerator(1,3);\r\n        }\r\n        else if(keccak256(bytes(_drawType)) == keccak256(bytes(\"rare\"))){\r\n            mintRate = mintRate_Rare;\r\n            //cardRarity = randomNumberGenerator(2,4);\r\n        }\r\n        else if(keccak256(bytes(_drawType)) == keccak256(bytes(\"premium\"))){\r\n            mintRate = mintRate_Premium;\r\n            //cardRarity = randomNumberGenerator(3,5);\r\n        }\r\n        else{\r\n            mintRate = mintRate_Premium;\r\n            //cardRarity = randomNumberGenerator(3,5);\r\n        }\r\n        \r\n        //id = randomNumberGenerator(1, circulatingSupplyPerItem[cardRarity].length) - 1;\r\n         \r\n        require(msg.value >= (amount * mintRate), \"Not enough ether sent\"); \r\n        \r\n        uint256 cardId = (cardRarity*100) + id;\r\n        \r\n        string memory uriToken = string(abi.encodePacked(\"https://jtrajano33.github.io/token_uri/data/\",Strings.toString(cardId), \".json\"));\r\n        \r\n        _setURI(uriToken);\r\n        \r\n        _mint(msg.sender, cardId, amount, \"\");\r\n        circulatingSupplyPerItem[cardRarity][id] += amount;\r\n      \r\n        Card memory _card = Card(cardId, uriToken);\r\n        \r\n        emit ItemMinted(cardId, circulatingSupplyPerItem[cardRarity][id], _card);\r\n    }\r\n    \r\n    function randomNumberGenerator(uint256 _minRarity, uint256 _maxRarity) internal returns (uint) {\r\n        //Returns random number from 0 - (_maxRarity - 1)\r\n\t    randNonce++;\r\n        uint randomnumber = uint(keccak256(abi.encodePacked(block.timestamp, msg.sender, randNonce))) % ((_maxRarity + 1) - _minRarity);\r\n        \r\n        // Add the minimum rarity you want\r\n        randomnumber = randomnumber + _minRarity;\r\n \r\n        return randomnumber;\r\n    }\r\n\r\n    function sellItem(uint _itemId, uint _price, uint quantity) public{\r\n        uint itemOnSale = playerToItemsOnSale[msg.sender][_itemId];\r\n\r\n        require(msg.sender != address(0), \"Not a valid wallet address\");\r\n        require(quantity >= 1, \"Quantity should be more than 1\");\r\n        require(balanceOf(msg.sender, _itemId) >= 1, \"You don't have this item to sell\");\r\n        require(balanceOf(msg.sender, _itemId) >= quantity, \"Not enough item in your wallet to sell\");\r\n        require(balanceOf(msg.sender, _itemId) - itemOnSale >= quantity, \"You have an existing sale. You can't sell more than what you have\");\r\n\r\n        itemCounter++;\r\n        Item memory _item = Item(itemCounter, _itemId, _price, quantity, 0, payable(msg.sender), new address[](0), true);\r\n        items[itemCounter] = _item;\r\n        playerToItemsOnSale[msg.sender][_itemId] = itemOnSale + quantity;\r\n\r\n        emit ItemListed(itemCounter, _itemId, _price, quantity, 0, payable(msg.sender), new address[](0), true);\r\n    }\r\n\r\n    function buyItem(uint _orderId, uint quantity) public payable {        \r\n        address payable _seller = items[_orderId].seller;\r\n        uint _itemId = items[_orderId].itemId;\r\n\r\n        require(msg.value >= items[_orderId].price * quantity, \"Not enough ether\");\r\n        require(msg.sender != address(0), \"Not a valid wallet address\");\r\n        require(_seller != msg.sender, \"Cannot buy your own item on sale\");\r\n        require(items[_orderId].forSale, \"Sorry, Item is not for sale anymore\");\r\n        require(quantity >= 1, \"Quantity should be more than 1\");\r\n        require(items[_orderId].available >= quantity, \"Quantity entered is more than the available quantity being sold\" );\r\n\r\n        uint salesCommission = (msg.value * commissionFeePercentage) / 100;\r\n        uint netSale = msg.value - salesCommission; \r\n\r\n        _seller.transfer(netSale);\r\n        _safeTransferFrom(_seller, msg.sender, _itemId, quantity, \"\");\r\n\r\n        items[_orderId].buyers.push(msg.sender);\r\n        items[_orderId].available = items[_orderId].available - quantity;\r\n        items[_orderId].sold = items[_orderId].sold + quantity;\r\n\r\n        if(items[_orderId].available <= 0){\r\n            items[_orderId].forSale = false;\r\n        }\r\n\r\n        playerToItemsOnSale[_seller][_itemId] = playerToItemsOnSale[_seller][_itemId] - quantity;\r\n        playerToRewardPoints[msg.sender] = msg.value;\r\n\r\n        emit ItemSold(items[_orderId].id, _itemId, msg.value, quantity, items[_orderId].sold, _seller, items[_orderId].buyers, items[_orderId].forSale);\r\n    }\r\n\r\n    function cancelSale(uint _orderId) public {\r\n        require(msg.sender == items[_orderId].seller, \"You do not have permission to cancel this sale\");\r\n        items[_orderId].forSale = false;\r\n    }\r\n\r\n    function withdraw(uint _amount) public onlyOwner{\r\n        require(address(this).balance > 0, \"Balance is zero\");\r\n        require(address(this).balance>= _amount, \"Amount being withdrawn exceeded the total balance stored inside the contract\");\r\n        address contractOwner = owner();\r\n        payable(contractOwner).transfer(_amount);\r\n    }\r\n\r\n    function changeCommissionFee(uint fee) public onlyOwner{\r\n        commissionFeePercentage = fee;\r\n    } \r\n\r\n    function getTotalContractSales() public view onlyOwner returns(uint amount) {\r\n        return address(this).balance;\r\n    }\r\n\r\n}",
  "sourcePath": "C:/Users/skillet15/Desktop/Blockchain/Phaser_Game/src/contracts/ElvenHunt.sol",
  "compiler": {
    "name": "solc",
    "version": "0.8.4+commit.c7e474f2.Emscripten.clang"
  },
  "schemaVersion": "3.2.3",
  "updatedAt": "2021-12-04T13:19:56.219Z",
  "devdoc": {
    "kind": "dev",
    "methods": {
      "balanceOf(address,uint256)": {
        "details": "See {IERC1155-balanceOf}. Requirements: - `account` cannot be the zero address."
      },
      "balanceOfBatch(address[],uint256[])": {
        "details": "See {IERC1155-balanceOfBatch}. Requirements: - `accounts` and `ids` must have the same length."
      },
      "isApprovedForAll(address,address)": {
        "details": "See {IERC1155-isApprovedForAll}."
      },
      "owner()": {
        "details": "Returns the address of the current owner."
      },
      "renounceOwnership()": {
        "details": "Leaves the contract without owner. It will not be possible to call `onlyOwner` functions anymore. Can only be called by the current owner. NOTE: Renouncing ownership will leave the contract without an owner, thereby removing any functionality that is only available to the owner."
      },
      "safeBatchTransferFrom(address,address,uint256[],uint256[],bytes)": {
        "details": "See {IERC1155-safeBatchTransferFrom}."
      },
      "safeTransferFrom(address,address,uint256,uint256,bytes)": {
        "details": "See {IERC1155-safeTransferFrom}."
      },
      "setApprovalForAll(address,bool)": {
        "details": "See {IERC1155-setApprovalForAll}."
      },
      "supportsInterface(bytes4)": {
        "details": "See {IERC165-supportsInterface}."
      },
      "transferOwnership(address)": {
        "details": "Transfers ownership of the contract to a new account (`newOwner`). Can only be called by the current owner."
      },
      "uri(uint256)": {
        "details": "See {IERC1155MetadataURI-uri}. This implementation returns the same URI for *all* token types. It relies on the token type ID substitution mechanism https://eips.ethereum.org/EIPS/eip-1155#metadata[defined in the EIP]. Clients calling this function must replace the `\\{id\\}` substring with the actual token type ID."
      }
    },
    "version": 1
  },
  "userdoc": {
    "kind": "user",
    "methods": {},
    "version": 1
  }
}