{
  "contractName": "ElvenHunt",
  "abi": [
    {
      "inputs": [],
      "stateMutability": "nonpayable",
      "type": "constructor"
    },
    {
      "anonymous": false,
      "inputs": [
        {
          "indexed": true,
          "internalType": "address",
          "name": "account",
          "type": "address"
        },
        {
          "indexed": true,
          "internalType": "address",
          "name": "operator",
          "type": "address"
        },
        {
          "indexed": false,
          "internalType": "bool",
          "name": "approved",
          "type": "bool"
        }
      ],
      "name": "ApprovalForAll",
      "type": "event"
    },
    {
      "anonymous": false,
      "inputs": [
        {
          "indexed": false,
          "internalType": "uint256",
          "name": "id",
          "type": "uint256"
        },
        {
          "indexed": false,
          "internalType": "uint256",
          "name": "cardRarity",
          "type": "uint256"
        },
        {
          "indexed": false,
          "internalType": "uint256",
          "name": "amount",
          "type": "uint256"
        },
        {
          "indexed": false,
          "internalType": "uint256",
          "name": "circulatingSupply",
          "type": "uint256"
        },
        {
          "components": [
            {
              "internalType": "uint256",
              "name": "id",
              "type": "uint256"
            },
            {
              "internalType": "uint256",
              "name": "amount",
              "type": "uint256"
            },
            {
              "internalType": "uint256",
              "name": "cardRarity",
              "type": "uint256"
            },
            {
              "internalType": "string",
              "name": "tokenURI",
              "type": "string"
            }
          ],
          "indexed": false,
          "internalType": "struct ElvenHunt.Card",
          "name": "card",
          "type": "tuple"
        }
      ],
      "name": "ItemMinted",
      "type": "event"
    },
    {
      "anonymous": false,
      "inputs": [
        {
          "indexed": true,
          "internalType": "address",
          "name": "previousOwner",
          "type": "address"
        },
        {
          "indexed": true,
          "internalType": "address",
          "name": "newOwner",
          "type": "address"
        }
      ],
      "name": "OwnershipTransferred",
      "type": "event"
    },
    {
      "anonymous": false,
      "inputs": [
        {
          "indexed": true,
          "internalType": "address",
          "name": "operator",
          "type": "address"
        },
        {
          "indexed": true,
          "internalType": "address",
          "name": "from",
          "type": "address"
        },
        {
          "indexed": true,
          "internalType": "address",
          "name": "to",
          "type": "address"
        },
        {
          "indexed": false,
          "internalType": "uint256[]",
          "name": "ids",
          "type": "uint256[]"
        },
        {
          "indexed": false,
          "internalType": "uint256[]",
          "name": "values",
          "type": "uint256[]"
        }
      ],
      "name": "TransferBatch",
      "type": "event"
    },
    {
      "anonymous": false,
      "inputs": [
        {
          "indexed": true,
          "internalType": "address",
          "name": "operator",
          "type": "address"
        },
        {
          "indexed": true,
          "internalType": "address",
          "name": "from",
          "type": "address"
        },
        {
          "indexed": true,
          "internalType": "address",
          "name": "to",
          "type": "address"
        },
        {
          "indexed": false,
          "internalType": "uint256",
          "name": "id",
          "type": "uint256"
        },
        {
          "indexed": false,
          "internalType": "uint256",
          "name": "value",
          "type": "uint256"
        }
      ],
      "name": "TransferSingle",
      "type": "event"
    },
    {
      "anonymous": false,
      "inputs": [
        {
          "indexed": false,
          "internalType": "string",
          "name": "value",
          "type": "string"
        },
        {
          "indexed": true,
          "internalType": "uint256",
          "name": "id",
          "type": "uint256"
        }
      ],
      "name": "URI",
      "type": "event"
    },
    {
      "inputs": [
        {
          "internalType": "address",
          "name": "account",
          "type": "address"
        },
        {
          "internalType": "uint256",
          "name": "id",
          "type": "uint256"
        }
      ],
      "name": "balanceOf",
      "outputs": [
        {
          "internalType": "uint256",
          "name": "",
          "type": "uint256"
        }
      ],
      "stateMutability": "view",
      "type": "function",
      "constant": true
    },
    {
      "inputs": [
        {
          "internalType": "address[]",
          "name": "accounts",
          "type": "address[]"
        },
        {
          "internalType": "uint256[]",
          "name": "ids",
          "type": "uint256[]"
        }
      ],
      "name": "balanceOfBatch",
      "outputs": [
        {
          "internalType": "uint256[]",
          "name": "",
          "type": "uint256[]"
        }
      ],
      "stateMutability": "view",
      "type": "function",
      "constant": true
    },
    {
      "inputs": [
        {
          "internalType": "uint256",
          "name": "",
          "type": "uint256"
        },
        {
          "internalType": "uint256",
          "name": "",
          "type": "uint256"
        }
      ],
      "name": "circulatingSupplyPerItem",
      "outputs": [
        {
          "internalType": "uint256",
          "name": "",
          "type": "uint256"
        }
      ],
      "stateMutability": "view",
      "type": "function",
      "constant": true
    },
    {
      "inputs": [
        {
          "internalType": "address",
          "name": "account",
          "type": "address"
        },
        {
          "internalType": "address",
          "name": "operator",
          "type": "address"
        }
      ],
      "name": "isApprovedForAll",
      "outputs": [
        {
          "internalType": "bool",
          "name": "",
          "type": "bool"
        }
      ],
      "stateMutability": "view",
      "type": "function",
      "constant": true
    },
    {
      "inputs": [],
      "name": "mintRate_Normal",
      "outputs": [
        {
          "internalType": "uint256",
          "name": "",
          "type": "uint256"
        }
      ],
      "stateMutability": "view",
      "type": "function",
      "constant": true
    },
    {
      "inputs": [],
      "name": "mintRate_Premium",
      "outputs": [
        {
          "internalType": "uint256",
          "name": "",
          "type": "uint256"
        }
      ],
      "stateMutability": "view",
      "type": "function",
      "constant": true
    },
    {
      "inputs": [],
      "name": "mintRate_Rare",
      "outputs": [
        {
          "internalType": "uint256",
          "name": "",
          "type": "uint256"
        }
      ],
      "stateMutability": "view",
      "type": "function",
      "constant": true
    },
    {
      "inputs": [],
      "name": "owner",
      "outputs": [
        {
          "internalType": "address",
          "name": "",
          "type": "address"
        }
      ],
      "stateMutability": "view",
      "type": "function",
      "constant": true
    },
    {
      "inputs": [
        {
          "internalType": "address",
          "name": "",
          "type": "address"
        },
        {
          "internalType": "uint256",
          "name": "",
          "type": "uint256"
        }
      ],
      "name": "playerCards",
      "outputs": [
        {
          "internalType": "uint256",
          "name": "id",
          "type": "uint256"
        },
        {
          "internalType": "uint256",
          "name": "amount",
          "type": "uint256"
        },
        {
          "internalType": "uint256",
          "name": "cardRarity",
          "type": "uint256"
        },
        {
          "internalType": "string",
          "name": "tokenURI",
          "type": "string"
        }
      ],
      "stateMutability": "view",
      "type": "function",
      "constant": true
    },
    {
      "inputs": [
        {
          "internalType": "address",
          "name": "",
          "type": "address"
        }
      ],
      "name": "playerCardsCounter",
      "outputs": [
        {
          "internalType": "uint256",
          "name": "",
          "type": "uint256"
        }
      ],
      "stateMutability": "view",
      "type": "function",
      "constant": true
    },
    {
      "inputs": [],
      "name": "renounceOwnership",
      "outputs": [],
      "stateMutability": "nonpayable",
      "type": "function"
    },
    {
      "inputs": [
        {
          "internalType": "address",
          "name": "from",
          "type": "address"
        },
        {
          "internalType": "address",
          "name": "to",
          "type": "address"
        },
        {
          "internalType": "uint256[]",
          "name": "ids",
          "type": "uint256[]"
        },
        {
          "internalType": "uint256[]",
          "name": "amounts",
          "type": "uint256[]"
        },
        {
          "internalType": "bytes",
          "name": "data",
          "type": "bytes"
        }
      ],
      "name": "safeBatchTransferFrom",
      "outputs": [],
      "stateMutability": "nonpayable",
      "type": "function"
    },
    {
      "inputs": [
        {
          "internalType": "address",
          "name": "from",
          "type": "address"
        },
        {
          "internalType": "address",
          "name": "to",
          "type": "address"
        },
        {
          "internalType": "uint256",
          "name": "id",
          "type": "uint256"
        },
        {
          "internalType": "uint256",
          "name": "amount",
          "type": "uint256"
        },
        {
          "internalType": "bytes",
          "name": "data",
          "type": "bytes"
        }
      ],
      "name": "safeTransferFrom",
      "outputs": [],
      "stateMutability": "nonpayable",
      "type": "function"
    },
    {
      "inputs": [
        {
          "internalType": "address",
          "name": "operator",
          "type": "address"
        },
        {
          "internalType": "bool",
          "name": "approved",
          "type": "bool"
        }
      ],
      "name": "setApprovalForAll",
      "outputs": [],
      "stateMutability": "nonpayable",
      "type": "function"
    },
    {
      "inputs": [
        {
          "internalType": "bytes4",
          "name": "interfaceId",
          "type": "bytes4"
        }
      ],
      "name": "supportsInterface",
      "outputs": [
        {
          "internalType": "bool",
          "name": "",
          "type": "bool"
        }
      ],
      "stateMutability": "view",
      "type": "function",
      "constant": true
    },
    {
      "inputs": [
        {
          "internalType": "address",
          "name": "newOwner",
          "type": "address"
        }
      ],
      "name": "transferOwnership",
      "outputs": [],
      "stateMutability": "nonpayable",
      "type": "function"
    },
    {
      "inputs": [
        {
          "internalType": "uint256",
          "name": "",
          "type": "uint256"
        }
      ],
      "name": "uri",
      "outputs": [
        {
          "internalType": "string",
          "name": "",
          "type": "string"
        }
      ],
      "stateMutability": "view",
      "type": "function",
      "constant": true
    },
    {
      "inputs": [
        {
          "internalType": "string",
          "name": "_drawType",
          "type": "string"
        }
      ],
      "name": "mintCard",
      "outputs": [],
      "stateMutability": "payable",
      "type": "function",
      "payable": true
    }
  ],
  "bytecode": "0x608060405266b1a2bc2ec5000060045567016345785d8a00006005556702c68af0bb1400006006556000600a553480156200003957600080fd5b50604051806020016040528060008152506200005b81620001fe60201b60201c565b506200007c620000706200021a60201b60201c565b6200022260201b60201c565b6040518060600160405280600060ff168152602001600060ff168152602001600060ff168152506007600060018152602001908152602001600020906003620000c7929190620002e8565b506040518060600160405280600060ff168152602001600060ff168152602001600060ff16815250600760006002815260200190815260200160002090600362000113929190620002e8565b506040518060600160405280600060ff168152602001600060ff168152602001600060ff1681525060076000600381526020019081526020016000209060036200015f929190620002e8565b506040518060600160405280600060ff168152602001600060ff168152602001600060ff168152506007600060048152602001908152602001600020906003620001ab929190620002e8565b506040518060600160405280600060ff168152602001600060ff168152602001600060ff168152506007600060058152602001908152602001600020906003620001f7929190620002e8565b5062000454565b8060029080519060200190620002169291906200033f565b5050565b600033905090565b6000600360009054906101000a900473ffffffffffffffffffffffffffffffffffffffff16905081600360006101000a81548173ffffffffffffffffffffffffffffffffffffffff021916908373ffffffffffffffffffffffffffffffffffffffff1602179055508173ffffffffffffffffffffffffffffffffffffffff168173ffffffffffffffffffffffffffffffffffffffff167f8be0079c531659141344cd1fd0a4f28419497f9722a3daafe3b4186f6b6457e060405160405180910390a35050565b8280548282559060005260206000209081019282156200032c579160200282015b828111156200032b578251829060ff1690559160200191906001019062000309565b5b5090506200033b9190620003d0565b5090565b8280546200034d90620003ef565b90600052602060002090601f016020900481019282620003715760008555620003bd565b82601f106200038c57805160ff1916838001178555620003bd565b82800160010185558215620003bd579182015b82811115620003bc5782518255916020019190600101906200039f565b5b509050620003cc9190620003d0565b5090565b5b80821115620003eb576000816000905550600101620003d1565b5090565b600060028204905060018216806200040857607f821691505b602082108114156200041f576200041e62000425565b5b50919050565b7f4e487b7100000000000000000000000000000000000000000000000000000000600052602260045260246000fd5b613deb80620004646000396000f3fe6080604052600436106101085760003560e01c8063a22cb46511610095578063c4ff21ca11610064578063c4ff21ca146103a5578063e985e9c5146103d0578063f0ce51201461040d578063f242432a14610429578063f2fde38b1461045257610108565b8063a22cb465146102d4578063aa553909146102fd578063af4126bc1461033a578063b7cecb161461037a57610108565b80632f0b4183116100dc5780632f0b4183146101ed5780634e1273f4146102185780636523be6514610255578063715018a6146102925780638da5cb5b146102a957610108565b8062fdd58e1461010d57806301ffc9a71461014a5780630e89341c146101875780632eb2c2d6146101c4575b600080fd5b34801561011957600080fd5b50610134600480360381019061012f919061292a565b61047b565b604051610141919061324b565b60405180910390f35b34801561015657600080fd5b50610171600480360381019061016c91906129d2565b610544565b60405161017e919061304e565b60405180910390f35b34801561019357600080fd5b506101ae60048036038101906101a99190612a65565b610626565b6040516101bb9190613069565b60405180910390f35b3480156101d057600080fd5b506101eb60048036038101906101e691906127a0565b6106ba565b005b3480156101f957600080fd5b5061020261075b565b60405161020f919061324b565b60405180910390f35b34801561022457600080fd5b5061023f600480360381019061023a9190612966565b610761565b60405161024c9190612ff5565b60405180910390f35b34801561026157600080fd5b5061027c6004803603810190610277919061273b565b610912565b604051610289919061324b565b60405180910390f35b34801561029e57600080fd5b506102a761092a565b005b3480156102b557600080fd5b506102be6109b2565b6040516102cb9190612f18565b60405180910390f35b3480156102e057600080fd5b506102fb60048036038101906102f691906128ee565b6109dc565b005b34801561030957600080fd5b50610324600480360381019061031f9190612a8e565b610b5d565b604051610331919061324b565b60405180910390f35b34801561034657600080fd5b50610361600480360381019061035c919061292a565b610b8e565b604051610371949392919061328f565b60405180910390f35b34801561038657600080fd5b5061038f610c53565b60405161039c919061324b565b60405180910390f35b3480156103b157600080fd5b506103ba610c59565b6040516103c7919061324b565b60405180910390f35b3480156103dc57600080fd5b506103f760048036038101906103f29190612764565b610c5f565b604051610404919061304e565b60405180910390f35b61042760048036038101906104229190612a24565b610cf3565b005b34801561043557600080fd5b50610450600480360381019061044b919061285f565b611374565b005b34801561045e57600080fd5b506104796004803603810190610474919061273b565b611415565b005b60008073ffffffffffffffffffffffffffffffffffffffff168373ffffffffffffffffffffffffffffffffffffffff1614156104ec576040517f08c379a00000000000000000000000000000000000000000000000000000000081526004016104e3906130cb565b60405180910390fd5b60008083815260200190815260200160002060008473ffffffffffffffffffffffffffffffffffffffff1673ffffffffffffffffffffffffffffffffffffffff16815260200190815260200160002054905092915050565b60007fd9b67a26000000000000000000000000000000000000000000000000000000007bffffffffffffffffffffffffffffffffffffffffffffffffffffffff1916827bffffffffffffffffffffffffffffffffffffffffffffffffffffffff1916148061060f57507f0e89341c000000000000000000000000000000000000000000000000000000007bffffffffffffffffffffffffffffffffffffffffffffffffffffffff1916827bffffffffffffffffffffffffffffffffffffffffffffffffffffffff1916145b8061061f575061061e8261150d565b5b9050919050565b6060600280546106359061366c565b80601f01602080910402602001604051908101604052809291908181526020018280546106619061366c565b80156106ae5780601f10610683576101008083540402835291602001916106ae565b820191906000526020600020905b81548152906001019060200180831161069157829003601f168201915b50505050509050919050565b6106c2611577565b73ffffffffffffffffffffffffffffffffffffffff168573ffffffffffffffffffffffffffffffffffffffff161480610708575061070785610702611577565b610c5f565b5b610747576040517f08c379a000000000000000000000000000000000000000000000000000000000815260040161073e9061314b565b60405180910390fd5b610754858585858561157f565b5050505050565b60045481565b606081518351146107a7576040517f08c379a000000000000000000000000000000000000000000000000000000000815260040161079e906131eb565b60405180910390fd5b6000835167ffffffffffffffff8111156107ea577f4e487b7100000000000000000000000000000000000000000000000000000000600052604160045260246000fd5b6040519080825280602002602001820160405280156108185781602001602082028036833780820191505090505b50905060005b8451811015610907576108b1858281518110610863577f4e487b7100000000000000000000000000000000000000000000000000000000600052603260045260246000fd5b60200260200101518583815181106108a4577f4e487b7100000000000000000000000000000000000000000000000000000000600052603260045260246000fd5b602002602001015161047b565b8282815181106108ea577f4e487b7100000000000000000000000000000000000000000000000000000000600052603260045260246000fd5b60200260200101818152505080610900906136cf565b905061081e565b508091505092915050565b60096020528060005260406000206000915090505481565b610932611577565b73ffffffffffffffffffffffffffffffffffffffff166109506109b2565b73ffffffffffffffffffffffffffffffffffffffff16146109a6576040517f08c379a000000000000000000000000000000000000000000000000000000000815260040161099d9061318b565b60405180910390fd5b6109b060006118df565b565b6000600360009054906101000a900473ffffffffffffffffffffffffffffffffffffffff16905090565b8173ffffffffffffffffffffffffffffffffffffffff166109fb611577565b73ffffffffffffffffffffffffffffffffffffffff161415610a52576040517f08c379a0000000000000000000000000000000000000000000000000000000008152600401610a49906131cb565b60405180910390fd5b8060016000610a5f611577565b73ffffffffffffffffffffffffffffffffffffffff1673ffffffffffffffffffffffffffffffffffffffff16815260200190815260200160002060008473ffffffffffffffffffffffffffffffffffffffff1673ffffffffffffffffffffffffffffffffffffffff16815260200190815260200160002060006101000a81548160ff0219169083151502179055508173ffffffffffffffffffffffffffffffffffffffff16610b0c611577565b73ffffffffffffffffffffffffffffffffffffffff167f17307eab39ab6107e8899845ad3d59bd9653f200f220920489ca2b5937696c3183604051610b51919061304e565b60405180910390a35050565b60076020528160005260406000208181548110610b7957600080fd5b90600052602060002001600091509150505481565b600860205281600052604060002060205280600052604060002060009150915050806000015490806001015490806002015490806003018054610bd09061366c565b80601f0160208091040260200160405190810160405280929190818152602001828054610bfc9061366c565b8015610c495780601f10610c1e57610100808354040283529160200191610c49565b820191906000526020600020905b815481529060010190602001808311610c2c57829003601f168201915b5050505050905084565b60065481565b60055481565b6000600160008473ffffffffffffffffffffffffffffffffffffffff1673ffffffffffffffffffffffffffffffffffffffff16815260200190815260200160002060008373ffffffffffffffffffffffffffffffffffffffff1673ffffffffffffffffffffffffffffffffffffffff16815260200190815260200160002060009054906101000a900460ff16905092915050565b6000600190506000806005905060006040518060400160405280600681526020017f6e6f726d616c00000000000000000000000000000000000000000000000000008152508051906020012085805190602001201415610d57576004549250610e09565b6040518060400160405280600481526020017f72617265000000000000000000000000000000000000000000000000000000008152508051906020012085805190602001201415610dac576005549250610e08565b6040518060400160405280600781526020017f7072656d69756d000000000000000000000000000000000000000000000000008152508051906020012085805190602001201415610e01576006549250610e07565b60065492505b5b5b8284610e159190613528565b341015610e57576040517f08c379a0000000000000000000000000000000000000000000000000000000008152600401610e4e906131ab565b60405180910390fd5b600081606484610e679190613528565b610e7191906134a1565b90506000610e7e826119a5565b604051602001610e8e9190612eeb565b6040516020818303038152906040529050610ea881611b52565b610ec333838860405180602001604052806000815250611b6c565b85600760008681526020019081526020016000208481548110610f0f577f4e487b7100000000000000000000000000000000000000000000000000000000600052603260045260246000fd5b906000526020600020016000828254610f2891906134a1565b925050819055506000604051806080016040528084815260200188815260200186815260200183815250905060005b600960003373ffffffffffffffffffffffffffffffffffffffff1673ffffffffffffffffffffffffffffffffffffffff1681526020019081526020016000205481116112d557600860003373ffffffffffffffffffffffffffffffffffffffff1673ffffffffffffffffffffffffffffffffffffffff1681526020019081526020016000206000828152602001908152602001600020600001548414156110f457600860003373ffffffffffffffffffffffffffffffffffffffff1673ffffffffffffffffffffffffffffffffffffffff1681526020019081526020016000206000828152602001908152602001600020600101548861105791906134a1565b82602001818152505081600860003373ffffffffffffffffffffffffffffffffffffffff1673ffffffffffffffffffffffffffffffffffffffff168152602001908152602001600020600083815260200190815260200160002060008201518160000155602082015181600101556040820151816002015560608201518160030190805190602001906110eb929190612433565b509050506112d5565b600860003373ffffffffffffffffffffffffffffffffffffffff1673ffffffffffffffffffffffffffffffffffffffff1681526020019081526020016000206000828152602001908152602001600020600001548414158015611195575080600960003373ffffffffffffffffffffffffffffffffffffffff1673ffffffffffffffffffffffffffffffffffffffff16815260200190815260200160002054145b156112c257600960003373ffffffffffffffffffffffffffffffffffffffff1673ffffffffffffffffffffffffffffffffffffffff16815260200190815260200160002060008154809291906111ea906136cf565b919050555081600860003373ffffffffffffffffffffffffffffffffffffffff1673ffffffffffffffffffffffffffffffffffffffff1681526020019081526020016000206000600960003373ffffffffffffffffffffffffffffffffffffffff1673ffffffffffffffffffffffffffffffffffffffff16815260200190815260200160002054815260200190815260200160002060008201518160000155602082015181600101556040820151816002015560608201518160030190805190602001906112b9929190612433565b509050506112d5565b80806112cd906136cf565b915050610f57565b507f7c591be01d3daf4d6e64dfab1d52ede7c60b5f464181bc924b7761f9f8790a9a838689600760008a81526020019081526020016000208881548110611345577f4e487b7100000000000000000000000000000000000000000000000000000000600052603260045260246000fd5b9060005260206000200154856040516113629594939291906132db565b60405180910390a15050505050505050565b61137c611577565b73ffffffffffffffffffffffffffffffffffffffff168573ffffffffffffffffffffffffffffffffffffffff1614806113c257506113c1856113bc611577565b610c5f565b5b611401576040517f08c379a00000000000000000000000000000000000000000000000000000000081526004016113f89061310b565b60405180910390fd5b61140e8585858585611d02565b5050505050565b61141d611577565b73ffffffffffffffffffffffffffffffffffffffff1661143b6109b2565b73ffffffffffffffffffffffffffffffffffffffff1614611491576040517f08c379a00000000000000000000000000000000000000000000000000000000081526004016114889061318b565b60405180910390fd5b600073ffffffffffffffffffffffffffffffffffffffff168173ffffffffffffffffffffffffffffffffffffffff161415611501576040517f08c379a00000000000000000000000000000000000000000000000000000000081526004016114f8906130eb565b60405180910390fd5b61150a816118df565b50565b60007f01ffc9a7000000000000000000000000000000000000000000000000000000007bffffffffffffffffffffffffffffffffffffffffffffffffffffffff1916827bffffffffffffffffffffffffffffffffffffffffffffffffffffffff1916149050919050565b600033905090565b81518351146115c3576040517f08c379a00000000000000000000000000000000000000000000000000000000081526004016115ba9061320b565b60405180910390fd5b600073ffffffffffffffffffffffffffffffffffffffff168473ffffffffffffffffffffffffffffffffffffffff161415611633576040517f08c379a000000000000000000000000000000000000000000000000000000000815260040161162a9061312b565b60405180910390fd5b600061163d611577565b905061164d818787878787611f84565b60005b845181101561184a576000858281518110611694577f4e487b7100000000000000000000000000000000000000000000000000000000600052603260045260246000fd5b6020026020010151905060008583815181106116d9577f4e487b7100000000000000000000000000000000000000000000000000000000600052603260045260246000fd5b60200260200101519050600080600084815260200190815260200160002060008b73ffffffffffffffffffffffffffffffffffffffff1673ffffffffffffffffffffffffffffffffffffffff1681526020019081526020016000205490508181101561177a576040517f08c379a00000000000000000000000000000000000000000000000000000000081526004016117719061316b565b60405180910390fd5b81810360008085815260200190815260200160002060008c73ffffffffffffffffffffffffffffffffffffffff1673ffffffffffffffffffffffffffffffffffffffff168152602001908152602001600020819055508160008085815260200190815260200160002060008b73ffffffffffffffffffffffffffffffffffffffff1673ffffffffffffffffffffffffffffffffffffffff168152602001908152602001600020600082825461182f91906134a1565b9250508190555050505080611843906136cf565b9050611650565b508473ffffffffffffffffffffffffffffffffffffffff168673ffffffffffffffffffffffffffffffffffffffff168273ffffffffffffffffffffffffffffffffffffffff167f4a39dc06d4c0dbc64b70af90fd698a233a518aa5d07e595d983b8c0526c8f7fb87876040516118c1929190613017565b60405180910390a46118d7818787878787611f8c565b505050505050565b6000600360009054906101000a900473ffffffffffffffffffffffffffffffffffffffff16905081600360006101000a81548173ffffffffffffffffffffffffffffffffffffffff021916908373ffffffffffffffffffffffffffffffffffffffff1602179055508173ffffffffffffffffffffffffffffffffffffffff168173ffffffffffffffffffffffffffffffffffffffff167f8be0079c531659141344cd1fd0a4f28419497f9722a3daafe3b4186f6b6457e060405160405180910390a35050565b606060008214156119ed576040518060400160405280600181526020017f30000000000000000000000000000000000000000000000000000000000000008152509050611b4d565b600082905060005b60008214611a1f578080611a08906136cf565b915050600a82611a1891906134f7565b91506119f5565b60008167ffffffffffffffff811115611a61577f4e487b7100000000000000000000000000000000000000000000000000000000600052604160045260246000fd5b6040519080825280601f01601f191660200182016040528015611a935781602001600182028036833780820191505090505b5090505b60008514611b4657600182611aac9190613582565b9150600a85611abb9190613718565b6030611ac791906134a1565b60f81b818381518110611b03577f4e487b7100000000000000000000000000000000000000000000000000000000600052603260045260246000fd5b60200101907effffffffffffffffffffffffffffffffffffffffffffffffffffffffffffff1916908160001a905350600a85611b3f91906134f7565b9450611a97565b8093505050505b919050565b8060029080519060200190611b68929190612433565b5050565b600073ffffffffffffffffffffffffffffffffffffffff168473ffffffffffffffffffffffffffffffffffffffff161415611bdc576040517f08c379a0000000000000000000000000000000000000000000000000000000008152600401611bd39061322b565b60405180910390fd5b6000611be6611577565b9050611c0781600087611bf888612173565b611c0188612173565b87611f84565b8260008086815260200190815260200160002060008773ffffffffffffffffffffffffffffffffffffffff1673ffffffffffffffffffffffffffffffffffffffff1681526020019081526020016000206000828254611c6691906134a1565b925050819055508473ffffffffffffffffffffffffffffffffffffffff16600073ffffffffffffffffffffffffffffffffffffffff168273ffffffffffffffffffffffffffffffffffffffff167fc3d58168c5ae7397731d063d5bbf3d657854427343f4c083240f7aacaa2d0f628787604051611ce4929190613266565b60405180910390a4611cfb81600087878787612239565b5050505050565b600073ffffffffffffffffffffffffffffffffffffffff168473ffffffffffffffffffffffffffffffffffffffff161415611d72576040517f08c379a0000000000000000000000000000000000000000000000000000000008152600401611d699061312b565b60405180910390fd5b6000611d7c611577565b9050611d9c818787611d8d88612173565b611d9688612173565b87611f84565b600080600086815260200190815260200160002060008873ffffffffffffffffffffffffffffffffffffffff1673ffffffffffffffffffffffffffffffffffffffff16815260200190815260200160002054905083811015611e33576040517f08c379a0000000000000000000000000000000000000000000000000000000008152600401611e2a9061316b565b60405180910390fd5b83810360008087815260200190815260200160002060008973ffffffffffffffffffffffffffffffffffffffff1673ffffffffffffffffffffffffffffffffffffffff168152602001908152602001600020819055508360008087815260200190815260200160002060008873ffffffffffffffffffffffffffffffffffffffff1673ffffffffffffffffffffffffffffffffffffffff1681526020019081526020016000206000828254611ee891906134a1565b925050819055508573ffffffffffffffffffffffffffffffffffffffff168773ffffffffffffffffffffffffffffffffffffffff168373ffffffffffffffffffffffffffffffffffffffff167fc3d58168c5ae7397731d063d5bbf3d657854427343f4c083240f7aacaa2d0f628888604051611f65929190613266565b60405180910390a4611f7b828888888888612239565b50505050505050565b505050505050565b611fab8473ffffffffffffffffffffffffffffffffffffffff16612420565b1561216b578373ffffffffffffffffffffffffffffffffffffffff1663bc197c8187878686866040518663ffffffff1660e01b8152600401611ff1959493929190612f33565b602060405180830381600087803b15801561200b57600080fd5b505af192505050801561203c57506040513d601f19601f8201168201806040525081019061203991906129fb565b60015b6120e257612048613805565b806308c379a014156120a5575061205d613cc3565b8061206857506120a7565b806040517f08c379a000000000000000000000000000000000000000000000000000000000815260040161209c9190613069565b60405180910390fd5b505b6040517f08c379a00000000000000000000000000000000000000000000000000000000081526004016120d99061308b565b60405180910390fd5b63bc197c8160e01b7bffffffffffffffffffffffffffffffffffffffffffffffffffffffff1916817bffffffffffffffffffffffffffffffffffffffffffffffffffffffff191614612169576040517f08c379a0000000000000000000000000000000000000000000000000000000008152600401612160906130ab565b60405180910390fd5b505b505050505050565b60606000600167ffffffffffffffff8111156121b8577f4e487b7100000000000000000000000000000000000000000000000000000000600052604160045260246000fd5b6040519080825280602002602001820160405280156121e65781602001602082028036833780820191505090505b5090508281600081518110612224577f4e487b7100000000000000000000000000000000000000000000000000000000600052603260045260246000fd5b60200260200101818152505080915050919050565b6122588473ffffffffffffffffffffffffffffffffffffffff16612420565b15612418578373ffffffffffffffffffffffffffffffffffffffff1663f23a6e6187878686866040518663ffffffff1660e01b815260040161229e959493929190612f9b565b602060405180830381600087803b1580156122b857600080fd5b505af19250505080156122e957506040513d601f19601f820116820180604052508101906122e691906129fb565b60015b61238f576122f5613805565b806308c379a01415612352575061230a613cc3565b806123155750612354565b806040517f08c379a00000000000000000000000000000000000000000000000000000000081526004016123499190613069565b60405180910390fd5b505b6040517f08c379a00000000000000000000000000000000000000000000000000000000081526004016123869061308b565b60405180910390fd5b63f23a6e6160e01b7bffffffffffffffffffffffffffffffffffffffffffffffffffffffff1916817bffffffffffffffffffffffffffffffffffffffffffffffffffffffff191614612416576040517f08c379a000000000000000000000000000000000000000000000000000000000815260040161240d906130ab565b60405180910390fd5b505b505050505050565b600080823b905060008111915050919050565b82805461243f9061366c565b90600052602060002090601f01602090048101928261246157600085556124a8565b82601f1061247a57805160ff19168380011785556124a8565b828001600101855582156124a8579182015b828111156124a757825182559160200191906001019061248c565b5b5090506124b591906124b9565b5090565b5b808211156124d25760008160009055506001016124ba565b5090565b60006124e96124e48461335a565b613335565b9050808382526020820190508285602086028201111561250857600080fd5b60005b85811015612538578161251e888261262a565b84526020840193506020830192505060018101905061250b565b5050509392505050565b600061255561255084613386565b613335565b9050808382526020820190508285602086028201111561257457600080fd5b60005b858110156125a4578161258a8882612726565b845260208401935060208301925050600181019050612577565b5050509392505050565b60006125c16125bc846133b2565b613335565b9050828152602081018484840111156125d957600080fd5b6125e484828561362a565b509392505050565b60006125ff6125fa846133e3565b613335565b90508281526020810184848401111561261757600080fd5b61262284828561362a565b509392505050565b60008135905061263981613d59565b92915050565b600082601f83011261265057600080fd5b81356126608482602086016124d6565b91505092915050565b600082601f83011261267a57600080fd5b813561268a848260208601612542565b91505092915050565b6000813590506126a281613d70565b92915050565b6000813590506126b781613d87565b92915050565b6000815190506126cc81613d87565b92915050565b600082601f8301126126e357600080fd5b81356126f38482602086016125ae565b91505092915050565b600082601f83011261270d57600080fd5b813561271d8482602086016125ec565b91505092915050565b60008135905061273581613d9e565b92915050565b60006020828403121561274d57600080fd5b600061275b8482850161262a565b91505092915050565b6000806040838503121561277757600080fd5b60006127858582860161262a565b92505060206127968582860161262a565b9150509250929050565b600080600080600060a086880312156127b857600080fd5b60006127c68882890161262a565b95505060206127d78882890161262a565b945050604086013567ffffffffffffffff8111156127f457600080fd5b61280088828901612669565b935050606086013567ffffffffffffffff81111561281d57600080fd5b61282988828901612669565b925050608086013567ffffffffffffffff81111561284657600080fd5b612852888289016126d2565b9150509295509295909350565b600080600080600060a0868803121561287757600080fd5b60006128858882890161262a565b95505060206128968882890161262a565b94505060406128a788828901612726565b93505060606128b888828901612726565b925050608086013567ffffffffffffffff8111156128d557600080fd5b6128e1888289016126d2565b9150509295509295909350565b6000806040838503121561290157600080fd5b600061290f8582860161262a565b925050602061292085828601612693565b9150509250929050565b6000806040838503121561293d57600080fd5b600061294b8582860161262a565b925050602061295c85828601612726565b9150509250929050565b6000806040838503121561297957600080fd5b600083013567ffffffffffffffff81111561299357600080fd5b61299f8582860161263f565b925050602083013567ffffffffffffffff8111156129bc57600080fd5b6129c885828601612669565b9150509250929050565b6000602082840312156129e457600080fd5b60006129f2848285016126a8565b91505092915050565b600060208284031215612a0d57600080fd5b6000612a1b848285016126bd565b91505092915050565b600060208284031215612a3657600080fd5b600082013567ffffffffffffffff811115612a5057600080fd5b612a5c848285016126fc565b91505092915050565b600060208284031215612a7757600080fd5b6000612a8584828501612726565b91505092915050565b60008060408385031215612aa157600080fd5b6000612aaf85828601612726565b9250506020612ac085828601612726565b9150509250929050565b6000612ad68383612ecd565b60208301905092915050565b612aeb816135b6565b82525050565b6000612afc82613424565b612b068185613452565b9350612b1183613414565b8060005b83811015612b42578151612b298882612aca565b9750612b3483613445565b925050600181019050612b15565b5085935050505092915050565b612b58816135c8565b82525050565b6000612b698261342f565b612b738185613463565b9350612b83818560208601613639565b612b8c81613827565b840191505092915050565b6000612ba28261343a565b612bac8185613474565b9350612bbc818560208601613639565b612bc581613827565b840191505092915050565b6000612bdb8261343a565b612be58185613485565b9350612bf5818560208601613639565b612bfe81613827565b840191505092915050565b6000612c148261343a565b612c1e8185613496565b9350612c2e818560208601613639565b80840191505092915050565b6000612c47603483613485565b9150612c5282613845565b604082019050919050565b6000612c6a602883613485565b9150612c7582613894565b604082019050919050565b6000612c8d602b83613485565b9150612c98826138e3565b604082019050919050565b6000612cb0602683613485565b9150612cbb82613932565b604082019050919050565b6000612cd3602983613485565b9150612cde82613981565b604082019050919050565b6000612cf6602583613485565b9150612d01826139d0565b604082019050919050565b6000612d19603283613485565b9150612d2482613a1f565b604082019050919050565b6000612d3c602a83613485565b9150612d4782613a6e565b604082019050919050565b6000612d5f600583613496565b9150612d6a82613abd565b600582019050919050565b6000612d82602083613485565b9150612d8d82613ae6565b602082019050919050565b6000612da5601583613485565b9150612db082613b0f565b602082019050919050565b6000612dc8602c83613496565b9150612dd382613b38565b602c82019050919050565b6000612deb602983613485565b9150612df682613b87565b604082019050919050565b6000612e0e602983613485565b9150612e1982613bd6565b604082019050919050565b6000612e31602883613485565b9150612e3c82613c25565b604082019050919050565b6000612e54602183613485565b9150612e5f82613c74565b604082019050919050565b6000608083016000830151612e826000860182612ecd565b506020830151612e956020860182612ecd565b506040830151612ea86040860182612ecd565b5060608301518482036060860152612ec08282612b97565b9150508091505092915050565b612ed681613620565b82525050565b612ee581613620565b82525050565b6000612ef682612dbb565b9150612f028284612c09565b9150612f0d82612d52565b915081905092915050565b6000602082019050612f2d6000830184612ae2565b92915050565b600060a082019050612f486000830188612ae2565b612f556020830187612ae2565b8181036040830152612f678186612af1565b90508181036060830152612f7b8185612af1565b90508181036080830152612f8f8184612b5e565b90509695505050505050565b600060a082019050612fb06000830188612ae2565b612fbd6020830187612ae2565b612fca6040830186612edc565b612fd76060830185612edc565b8181036080830152612fe98184612b5e565b90509695505050505050565b6000602082019050818103600083015261300f8184612af1565b905092915050565b600060408201905081810360008301526130318185612af1565b905081810360208301526130458184612af1565b90509392505050565b60006020820190506130636000830184612b4f565b92915050565b600060208201905081810360008301526130838184612bd0565b905092915050565b600060208201905081810360008301526130a481612c3a565b9050919050565b600060208201905081810360008301526130c481612c5d565b9050919050565b600060208201905081810360008301526130e481612c80565b9050919050565b6000602082019050818103600083015261310481612ca3565b9050919050565b6000602082019050818103600083015261312481612cc6565b9050919050565b6000602082019050818103600083015261314481612ce9565b9050919050565b6000602082019050818103600083015261316481612d0c565b9050919050565b6000602082019050818103600083015261318481612d2f565b9050919050565b600060208201905081810360008301526131a481612d75565b9050919050565b600060208201905081810360008301526131c481612d98565b9050919050565b600060208201905081810360008301526131e481612dde565b9050919050565b6000602082019050818103600083015261320481612e01565b9050919050565b6000602082019050818103600083015261322481612e24565b9050919050565b6000602082019050818103600083015261324481612e47565b9050919050565b60006020820190506132606000830184612edc565b92915050565b600060408201905061327b6000830185612edc565b6132886020830184612edc565b9392505050565b60006080820190506132a46000830187612edc565b6132b16020830186612edc565b6132be6040830185612edc565b81810360608301526132d08184612bd0565b905095945050505050565b600060a0820190506132f06000830188612edc565b6132fd6020830187612edc565b61330a6040830186612edc565b6133176060830185612edc565b81810360808301526133298184612e6a565b90509695505050505050565b600061333f613350565b905061334b828261369e565b919050565b6000604051905090565b600067ffffffffffffffff821115613375576133746137d6565b5b602082029050602081019050919050565b600067ffffffffffffffff8211156133a1576133a06137d6565b5b602082029050602081019050919050565b600067ffffffffffffffff8211156133cd576133cc6137d6565b5b6133d682613827565b9050602081019050919050565b600067ffffffffffffffff8211156133fe576133fd6137d6565b5b61340782613827565b9050602081019050919050565b6000819050602082019050919050565b600081519050919050565b600081519050919050565b600081519050919050565b6000602082019050919050565b600082825260208201905092915050565b600082825260208201905092915050565b600082825260208201905092915050565b600082825260208201905092915050565b600081905092915050565b60006134ac82613620565b91506134b783613620565b9250827fffffffffffffffffffffffffffffffffffffffffffffffffffffffffffffffff038211156134ec576134eb613749565b5b828201905092915050565b600061350282613620565b915061350d83613620565b92508261351d5761351c613778565b5b828204905092915050565b600061353382613620565b915061353e83613620565b9250817fffffffffffffffffffffffffffffffffffffffffffffffffffffffffffffffff048311821515161561357757613576613749565b5b828202905092915050565b600061358d82613620565b915061359883613620565b9250828210156135ab576135aa613749565b5b828203905092915050565b60006135c182613600565b9050919050565b60008115159050919050565b60007fffffffff0000000000000000000000000000000000000000000000000000000082169050919050565b600073ffffffffffffffffffffffffffffffffffffffff82169050919050565b6000819050919050565b82818337600083830152505050565b60005b8381101561365757808201518184015260208101905061363c565b83811115613666576000848401525b50505050565b6000600282049050600182168061368457607f821691505b60208210811415613698576136976137a7565b5b50919050565b6136a782613827565b810181811067ffffffffffffffff821117156136c6576136c56137d6565b5b80604052505050565b60006136da82613620565b91507fffffffffffffffffffffffffffffffffffffffffffffffffffffffffffffffff82141561370d5761370c613749565b5b600182019050919050565b600061372382613620565b915061372e83613620565b92508261373e5761373d613778565b5b828206905092915050565b7f4e487b7100000000000000000000000000000000000000000000000000000000600052601160045260246000fd5b7f4e487b7100000000000000000000000000000000000000000000000000000000600052601260045260246000fd5b7f4e487b7100000000000000000000000000000000000000000000000000000000600052602260045260246000fd5b7f4e487b7100000000000000000000000000000000000000000000000000000000600052604160045260246000fd5b600060033d11156138245760046000803e613821600051613838565b90505b90565b6000601f19601f8301169050919050565b60008160e01c9050919050565b7f455243313135353a207472616e7366657220746f206e6f6e204552433131353560008201527f526563656976657220696d706c656d656e746572000000000000000000000000602082015250565b7f455243313135353a204552433131353552656365697665722072656a6563746560008201527f6420746f6b656e73000000000000000000000000000000000000000000000000602082015250565b7f455243313135353a2062616c616e636520717565727920666f7220746865207a60008201527f65726f2061646472657373000000000000000000000000000000000000000000602082015250565b7f4f776e61626c653a206e6577206f776e657220697320746865207a65726f206160008201527f6464726573730000000000000000000000000000000000000000000000000000602082015250565b7f455243313135353a2063616c6c6572206973206e6f74206f776e6572206e6f7260008201527f20617070726f7665640000000000000000000000000000000000000000000000602082015250565b7f455243313135353a207472616e7366657220746f20746865207a65726f20616460008201527f6472657373000000000000000000000000000000000000000000000000000000602082015250565b7f455243313135353a207472616e736665722063616c6c6572206973206e6f742060008201527f6f776e6572206e6f7220617070726f7665640000000000000000000000000000602082015250565b7f455243313135353a20696e73756666696369656e742062616c616e636520666f60008201527f72207472616e7366657200000000000000000000000000000000000000000000602082015250565b7f2e6a736f6e000000000000000000000000000000000000000000000000000000600082015250565b7f4f776e61626c653a2063616c6c6572206973206e6f7420746865206f776e6572600082015250565b7f4e6f7420656e6f7567682065746865722073656e740000000000000000000000600082015250565b7f68747470733a2f2f6a7472616a616e6f33332e6769746875622e696f2f746f6b60008201527f656e5f7572692f646174612f0000000000000000000000000000000000000000602082015250565b7f455243313135353a2073657474696e6720617070726f76616c2073746174757360008201527f20666f722073656c660000000000000000000000000000000000000000000000602082015250565b7f455243313135353a206163636f756e747320616e6420696473206c656e67746860008201527f206d69736d617463680000000000000000000000000000000000000000000000602082015250565b7f455243313135353a2069647320616e6420616d6f756e7473206c656e6774682060008201527f6d69736d61746368000000000000000000000000000000000000000000000000602082015250565b7f455243313135353a206d696e7420746f20746865207a65726f2061646472657360008201527f7300000000000000000000000000000000000000000000000000000000000000602082015250565b600060443d1015613cd357613d56565b613cdb613350565b60043d036004823e80513d602482011167ffffffffffffffff82111715613d03575050613d56565b808201805167ffffffffffffffff811115613d215750505050613d56565b80602083010160043d038501811115613d3e575050505050613d56565b613d4d8260200185018661369e565b82955050505050505b90565b613d62816135b6565b8114613d6d57600080fd5b50565b613d79816135c8565b8114613d8457600080fd5b50565b613d90816135d4565b8114613d9b57600080fd5b50565b613da781613620565b8114613db257600080fd5b5056fea2646970667358221220d628fb7682a4bfc424c715595dc28f85f74909eea2b323de8e920d30172d742164736f6c63430008040033",
  "immutableReferences": {},
  "source": "pragma solidity >=0.4.22 <0.9.0;\r\n\r\nimport \"@openzeppelin/contracts/token/ERC1155/ERC1155.sol\";\r\nimport \"@openzeppelin/contracts/access/Ownable.sol\";\r\nimport \"@openzeppelin/contracts/utils/Strings.sol\";\r\n\r\ncontract ElvenHunt is ERC1155, Ownable {\r\n    \r\n    constructor() ERC1155(\"\") {\r\n        //Supply per card rarity(number corresponds to how many stars a card has);\r\n        circulatingSupplyPerItem[1] = [0, 0, 0];\r\n        circulatingSupplyPerItem[2] = [0, 0, 0];   \r\n        circulatingSupplyPerItem[3] = [0, 0, 0];   \r\n        circulatingSupplyPerItem[4] = [0, 0, 0];   \r\n        circulatingSupplyPerItem[5] = [0, 0, 0];      \r\n    }\r\n    \r\n    //Mint Rate per rarity\r\n    uint256 public mintRate_Normal = 0.05 ether;\r\n    uint256 public mintRate_Rare = 0.1 ether;\r\n    uint256 public mintRate_Premium = 0.2 ether;\r\n    \r\n    //CirculatingSupply per item\r\n    mapping(uint256 => uint256[]) public circulatingSupplyPerItem;\r\n    \r\n     struct Card{\r\n      uint256 id;\r\n      uint256 amount;\r\n      uint256 cardRarity;\r\n      string tokenURI;\r\n    }\r\n    \r\n    event ItemMinted(\r\n      uint256 id,\r\n      uint256 cardRarity,\r\n      uint256 amount,\r\n      uint256 circulatingSupply,\r\n      Card card\r\n    );\r\n\r\n    mapping(address => mapping(uint256 => Card)) public playerCards;\r\n    mapping(address => uint256) public playerCardsCounter;\r\n\r\n    uint256 randNonce = 0;\r\n\r\n    function mintCard(string memory _drawType) public payable {\r\n        \r\n        uint256 amount = 1;\r\n        uint256 mintRate;\r\n        uint256 cardRarity = 5;\r\n        uint256 id = 0;\r\n        \r\n        if(keccak256(bytes(_drawType)) == keccak256(bytes(\"normal\"))){\r\n            mintRate = mintRate_Normal;\r\n            //cardRarity = randomNumberGenerator(1,3);\r\n        }\r\n        else if(keccak256(bytes(_drawType)) == keccak256(bytes(\"rare\"))){\r\n            mintRate = mintRate_Rare;\r\n            //cardRarity = randomNumberGenerator(2,4);\r\n        }\r\n        else if(keccak256(bytes(_drawType)) == keccak256(bytes(\"premium\"))){\r\n            mintRate = mintRate_Premium;\r\n            //cardRarity = randomNumberGenerator(3,5);\r\n        }\r\n        else{\r\n            mintRate = mintRate_Premium;\r\n            //cardRarity = randomNumberGenerator(3,5);\r\n        }\r\n        \r\n        //id = randomNumberGenerator(1, circulatingSupplyPerItem[cardRarity].length) - 1;\r\n         \r\n        require(msg.value >= (amount * mintRate), \"Not enough ether sent\"); \r\n        \r\n        uint256 cardId = (cardRarity*100) + id;\r\n        \r\n        string memory uriToken = string(abi.encodePacked(\"https://jtrajano33.github.io/token_uri/data/\",Strings.toString(cardId), \".json\"));\r\n        \r\n        _setURI(uriToken);\r\n        \r\n        _mint(msg.sender, cardId, amount, \"\");\r\n        circulatingSupplyPerItem[cardRarity][id] += amount;\r\n      \r\n        Card memory _card = Card(cardId, amount, cardRarity, uriToken);\r\n\r\n        for(uint256 i = 0; i <= playerCardsCounter[msg.sender]; i++){\r\n            if(cardId == playerCards[msg.sender][i].id){\r\n                _card.amount = amount + playerCards[msg.sender][i].amount;\r\n                playerCards[msg.sender][i] = _card;\r\n                break;\r\n            }\r\n            else if(cardId != playerCards[msg.sender][i].id && playerCardsCounter[msg.sender] == i){\r\n                playerCardsCounter[msg.sender]++;\r\n                playerCards[msg.sender][playerCardsCounter[msg.sender]] = _card;\r\n                break;\r\n            }\r\n        }\r\n        \r\n        emit ItemMinted(cardId, cardRarity, amount, circulatingSupplyPerItem[cardRarity][id], _card);\r\n    }\r\n    \r\n    function randomNumberGenerator(uint256 _minRarity, uint256 _maxRarity) internal returns (uint) {\r\n        //Returns random number from 0 - (_maxRarity - 1)\r\n\t    randNonce++;\r\n        uint randomnumber = uint(keccak256(abi.encodePacked(block.timestamp, msg.sender, randNonce))) % ((_maxRarity + 1) - _minRarity);\r\n        \r\n        // Add the minimum rarity you want\r\n        randomnumber = randomnumber + _minRarity;\r\n \r\n        return randomnumber;\r\n    }\r\n}",
  "sourcePath": "C:/Users/skillet15/Desktop/Blockchain/Phaser_Game/src/contracts/ElvenHunt.sol",
  "compiler": {
    "name": "solc",
    "version": "0.8.4+commit.c7e474f2.Emscripten.clang"
  },
  "schemaVersion": "3.2.3",
  "updatedAt": "2021-11-24T14:21:54.202Z",
  "networkType": "ethereum",
  "devdoc": {
    "kind": "dev",
    "methods": {
      "balanceOf(address,uint256)": {
        "details": "See {IERC1155-balanceOf}. Requirements: - `account` cannot be the zero address."
      },
      "balanceOfBatch(address[],uint256[])": {
        "details": "See {IERC1155-balanceOfBatch}. Requirements: - `accounts` and `ids` must have the same length."
      },
      "isApprovedForAll(address,address)": {
        "details": "See {IERC1155-isApprovedForAll}."
      },
      "owner()": {
        "details": "Returns the address of the current owner."
      },
      "renounceOwnership()": {
        "details": "Leaves the contract without owner. It will not be possible to call `onlyOwner` functions anymore. Can only be called by the current owner. NOTE: Renouncing ownership will leave the contract without an owner, thereby removing any functionality that is only available to the owner."
      },
      "safeBatchTransferFrom(address,address,uint256[],uint256[],bytes)": {
        "details": "See {IERC1155-safeBatchTransferFrom}."
      },
      "safeTransferFrom(address,address,uint256,uint256,bytes)": {
        "details": "See {IERC1155-safeTransferFrom}."
      },
      "setApprovalForAll(address,bool)": {
        "details": "See {IERC1155-setApprovalForAll}."
      },
      "supportsInterface(bytes4)": {
        "details": "See {IERC165-supportsInterface}."
      },
      "transferOwnership(address)": {
        "details": "Transfers ownership of the contract to a new account (`newOwner`). Can only be called by the current owner."
      },
      "uri(uint256)": {
        "details": "See {IERC1155MetadataURI-uri}. This implementation returns the same URI for *all* token types. It relies on the token type ID substitution mechanism https://eips.ethereum.org/EIPS/eip-1155#metadata[defined in the EIP]. Clients calling this function must replace the `\\{id\\}` substring with the actual token type ID."
      }
    },
    "version": 1
  },
  "userdoc": {
    "kind": "user",
    "methods": {},
    "version": 1
  }
}