{
  "contractName": "GameData",
  "abi": [
    {
      "inputs": [
        {
          "internalType": "address payable",
          "name": "_admin",
          "type": "address"
        }
      ],
      "stateMutability": "nonpayable",
      "type": "constructor"
    },
    {
      "anonymous": false,
      "inputs": [
        {
          "indexed": false,
          "internalType": "uint256",
          "name": "id",
          "type": "uint256"
        },
        {
          "indexed": false,
          "internalType": "uint256",
          "name": "rank",
          "type": "uint256"
        },
        {
          "indexed": false,
          "internalType": "uint256",
          "name": "hp",
          "type": "uint256"
        },
        {
          "indexed": false,
          "internalType": "uint256",
          "name": "attack",
          "type": "uint256"
        },
        {
          "indexed": false,
          "internalType": "uint256",
          "name": "speed",
          "type": "uint256"
        }
      ],
      "name": "CardCreated",
      "type": "event"
    },
    {
      "inputs": [],
      "name": "cardCount",
      "outputs": [
        {
          "internalType": "uint256",
          "name": "",
          "type": "uint256"
        }
      ],
      "stateMutability": "view",
      "type": "function",
      "constant": true
    },
    {
      "inputs": [
        {
          "internalType": "uint256",
          "name": "",
          "type": "uint256"
        }
      ],
      "name": "cards",
      "outputs": [
        {
          "internalType": "uint256",
          "name": "id",
          "type": "uint256"
        },
        {
          "internalType": "uint256",
          "name": "rank",
          "type": "uint256"
        },
        {
          "internalType": "uint256",
          "name": "hp",
          "type": "uint256"
        },
        {
          "internalType": "uint256",
          "name": "attack",
          "type": "uint256"
        },
        {
          "internalType": "uint256",
          "name": "speed",
          "type": "uint256"
        }
      ],
      "stateMutability": "view",
      "type": "function",
      "constant": true
    },
    {
      "inputs": [],
      "name": "name",
      "outputs": [
        {
          "internalType": "string",
          "name": "",
          "type": "string"
        }
      ],
      "stateMutability": "view",
      "type": "function",
      "constant": true
    },
    {
      "inputs": [
        {
          "internalType": "address",
          "name": "",
          "type": "address"
        },
        {
          "internalType": "uint256",
          "name": "",
          "type": "uint256"
        }
      ],
      "name": "playerCards",
      "outputs": [
        {
          "internalType": "uint256",
          "name": "id",
          "type": "uint256"
        },
        {
          "internalType": "uint256",
          "name": "rank",
          "type": "uint256"
        },
        {
          "internalType": "uint256",
          "name": "hp",
          "type": "uint256"
        },
        {
          "internalType": "uint256",
          "name": "attack",
          "type": "uint256"
        },
        {
          "internalType": "uint256",
          "name": "speed",
          "type": "uint256"
        }
      ],
      "stateMutability": "view",
      "type": "function",
      "constant": true
    },
    {
      "inputs": [],
      "name": "playerCount",
      "outputs": [
        {
          "internalType": "uint256",
          "name": "",
          "type": "uint256"
        }
      ],
      "stateMutability": "view",
      "type": "function",
      "constant": true
    },
    {
      "inputs": [
        {
          "internalType": "address",
          "name": "",
          "type": "address"
        }
      ],
      "name": "players",
      "outputs": [
        {
          "internalType": "uint256",
          "name": "id",
          "type": "uint256"
        },
        {
          "internalType": "string",
          "name": "playerName",
          "type": "string"
        },
        {
          "internalType": "address",
          "name": "playerAddress",
          "type": "address"
        },
        {
          "internalType": "uint256",
          "name": "drawCount",
          "type": "uint256"
        }
      ],
      "stateMutability": "view",
      "type": "function",
      "constant": true
    },
    {
      "inputs": [
        {
          "internalType": "string",
          "name": "_drawType",
          "type": "string"
        },
        {
          "internalType": "string",
          "name": "_playerName",
          "type": "string"
        }
      ],
      "name": "drawCard",
      "outputs": [],
      "stateMutability": "payable",
      "type": "function",
      "payable": true
    }
  ],
  "bytecode": "0x60806040526040518060400160405280600981526020017f47616d65204461746100000000000000000000000000000000000000000000008152506000908051906020019062000051929190620000d7565b50600060045560006005553480156200006957600080fd5b50604051620016cb380380620016cb83398181016040528101906200008f91906200019e565b80600660006101000a81548173ffffffffffffffffffffffffffffffffffffffff021916908373ffffffffffffffffffffffffffffffffffffffff160217905550506200027d565b828054620000e590620001fe565b90600052602060002090601f01602090048101928262000109576000855562000155565b82601f106200012457805160ff191683800117855562000155565b8280016001018555821562000155579182015b828111156200015457825182559160200191906001019062000137565b5b50905062000164919062000168565b5090565b5b808211156200018357600081600090555060010162000169565b5090565b600081519050620001988162000263565b92915050565b600060208284031215620001b157600080fd5b6000620001c18482850162000187565b91505092915050565b6000620001d782620001de565b9050919050565b600073ffffffffffffffffffffffffffffffffffffffff82169050919050565b600060028204905060018216806200021757607f821691505b602082108114156200022e576200022d62000234565b5b50919050565b7f4e487b7100000000000000000000000000000000000000000000000000000000600052602260045260246000fd5b6200026e81620001ca565b81146200027a57600080fd5b50565b61143e806200028d6000396000f3fe6080604052600436106100705760003560e01c8063302bcc571161004e578063302bcc57146100e75780638dc1076814610112578063af4126bc14610153578063e2eb41ff1461019457610070565b806306fdde03146100755780631337f2da146100a05780631b6cde10146100bc575b600080fd5b34801561008157600080fd5b5061008a6101d4565b6040516100979190610f1b565b60405180910390f35b6100ba60048036038101906100b59190610d7e565b610262565b005b3480156100c857600080fd5b506100d161068c565b6040516100de9190610f7d565b60405180910390f35b3480156100f357600080fd5b506100fc610692565b6040516101099190610f7d565b60405180910390f35b34801561011e57600080fd5b5061013960048036038101906101349190610dea565b610698565b60405161014a959493929190610fe4565b60405180910390f35b34801561015f57600080fd5b5061017a60048036038101906101759190610d42565b6106ce565b60405161018b959493929190610fe4565b60405180910390f35b3480156101a057600080fd5b506101bb60048036038101906101b69190610d19565b610711565b6040516101cb9493929190610f98565b60405180910390f35b600080546101e19061117d565b80601f016020809104026020016040519081016040528092919081815260200182805461020d9061117d565b801561025a5780601f1061022f5761010080835404028352916020019161025a565b820191906000526020600020905b81548152906001019060200180831161023d57829003601f168201915b505050505081565b6040518060400160405280600481526020017f66726565000000000000000000000000000000000000000000000000000000008152508051906020012082805190602001201415610450576000600160003373ffffffffffffffffffffffffffffffffffffffff1673ffffffffffffffffffffffffffffffffffffffff168152602001908152602001600020600301541115610333576040517f08c379a000000000000000000000000000000000000000000000000000000000815260040161032a90610f3d565b60405180910390fd5b60046000815480929190610346906111e0565b9190505550604051806080016040528060045481526020018281526020013373ffffffffffffffffffffffffffffffffffffffff1681526020016001815250600160003373ffffffffffffffffffffffffffffffffffffffff1673ffffffffffffffffffffffffffffffffffffffff1681526020019081526020016000206000820151816000015560208201518160010190805190602001906103ea929190610be4565b5060408201518160020160006101000a81548173ffffffffffffffffffffffffffffffffffffffff021916908373ffffffffffffffffffffffffffffffffffffffff1602179055506060820151816003015590505061044b600160026107e9565b610687565b6040518060400160405280600481526020017f726172650000000000000000000000000000000000000000000000000000000081525080519060200120828051906020012014156105685767016345785d8a000034146104e5576040517f08c379a00000000000000000000000000000000000000000000000000000000081526004016104dc90610f5d565b60405180910390fd5b600660009054906101000a900473ffffffffffffffffffffffffffffffffffffffff1673ffffffffffffffffffffffffffffffffffffffff166108fc349081150290604051600060405180830381858888f1935050505015801561054d573d6000803e3d6000fd5b506105578161084e565b610563600260046107e9565b610686565b6040518060400160405280600781526020017f7072656d69756d000000000000000000000000000000000000000000000000008152508051906020012082805190602001201415610680576702c68af0bb14000034146105fd576040517f08c379a00000000000000000000000000000000000000000000000000000000081526004016105f490610f5d565b60405180910390fd5b600660009054906101000a900473ffffffffffffffffffffffffffffffffffffffff1673ffffffffffffffffffffffffffffffffffffffff166108fc349081150290604051600060405180830381858888f19350505050158015610665573d6000803e3d6000fd5b5061066f8161084e565b61067b600360056107e9565b610685565b610688565b5b5b5b5050565b60055481565b60045481565b60026020528060005260406000206000915090508060000154908060010154908060020154908060030154908060040154905085565b6003602052816000526040600020602052806000526040600020600091509150508060000154908060010154908060020154908060030154908060040154905085565b600160205280600052604060002060009150905080600001549080600101805461073a9061117d565b80601f01602080910402602001604051908101604052809291908181526020018280546107669061117d565b80156107b35780601f10610788576101008083540402835291602001916107b3565b820191906000526020600020905b81548152906001019060200180831161079657829003601f168201915b5050505050908060020160009054906101000a900473ffffffffffffffffffffffffffffffffffffffff16908060030154905084565b60008142443360405160200161080193929190610ede565b6040516020818303038152906040528051906020012060001c6108249190611257565b9050828161083291906110a9565b905081811115610840578190505b610849816109dd565b505050565b600060018060003373ffffffffffffffffffffffffffffffffffffffff1673ffffffffffffffffffffffffffffffffffffffff1681526020019081526020016000206003015461089e91906110a9565b90506000600160003373ffffffffffffffffffffffffffffffffffffffff1673ffffffffffffffffffffffffffffffffffffffff16815260200190815260200160002060000154905060405180608001604052808281526020018481526020013373ffffffffffffffffffffffffffffffffffffffff16815260200183815250600160003373ffffffffffffffffffffffffffffffffffffffff1673ffffffffffffffffffffffffffffffffffffffff168152602001908152602001600020600082015181600001556020820151816001019080519060200190610983929190610be4565b5060408201518160020160006101000a81548173ffffffffffffffffffffffffffffffffffffffff021916908373ffffffffffffffffffffffffffffffffffffffff16021790555060608201518160030155905050505050565b6000600590506000824244336040516020016109fb93929190610ede565b6040516020818303038152906040528051906020012060001c610a1e9190611257565b8383610a2a91906110a9565b610a3491906110a9565b905060056000815480929190610a49906111e0565b9190505550600083424433604051602001610a6693929190610ede565b6040516020818303038152906040528051906020012060001c610a899190611257565b84610a9491906110a9565b9050600084905060006040518060a00160405280600554815260200187815260200185815260200184815260200183815250905080600360003373ffffffffffffffffffffffffffffffffffffffff1673ffffffffffffffffffffffffffffffffffffffff1681526020019081526020016000206000600554815260200190815260200160002060008201518160000155602082015181600101556040820151816002015560608201518160030155608082015181600401559050508060026000600554815260200190815260200160002060008201518160000155602082015181600101556040820151816002015560608201518160030155608082015181600401559050507f16dfbbfecff834206ea9c94170f0359bf3eba4ff45b7d410f267828d87ba436a60055487868686604051610bd4959493929190610fe4565b60405180910390a1505050505050565b828054610bf09061117d565b90600052602060002090601f016020900481019282610c125760008555610c59565b82601f10610c2b57805160ff1916838001178555610c59565b82800160010185558215610c59579182015b82811115610c58578251825591602001919060010190610c3d565b5b509050610c669190610c6a565b5090565b5b80821115610c83576000816000905550600101610c6b565b5090565b6000610c9a610c958461105c565b611037565b905082815260208101848484011115610cb257600080fd5b610cbd84828561113b565b509392505050565b600081359050610cd4816113da565b92915050565b600082601f830112610ceb57600080fd5b8135610cfb848260208601610c87565b91505092915050565b600081359050610d13816113f1565b92915050565b600060208284031215610d2b57600080fd5b6000610d3984828501610cc5565b91505092915050565b60008060408385031215610d5557600080fd5b6000610d6385828601610cc5565b9250506020610d7485828601610d04565b9150509250929050565b60008060408385031215610d9157600080fd5b600083013567ffffffffffffffff811115610dab57600080fd5b610db785828601610cda565b925050602083013567ffffffffffffffff811115610dd457600080fd5b610de085828601610cda565b9150509250929050565b600060208284031215610dfc57600080fd5b6000610e0a84828501610d04565b91505092915050565b610e1c816110ff565b82525050565b610e33610e2e826110ff565b611229565b82525050565b6000610e448261108d565b610e4e8185611098565b9350610e5e81856020860161114a565b610e6781611344565b840191505092915050565b6000610e7f602e83611098565b9150610e8a82611362565b604082019050919050565b6000610ea2601f83611098565b9150610ead826113b1565b602082019050919050565b610ec181611131565b82525050565b610ed8610ed382611131565b61124d565b82525050565b6000610eea8286610ec7565b602082019150610efa8285610ec7565b602082019150610f0a8284610e22565b601482019150819050949350505050565b60006020820190508181036000830152610f358184610e39565b905092915050565b60006020820190508181036000830152610f5681610e72565b9050919050565b60006020820190508181036000830152610f7681610e95565b9050919050565b6000602082019050610f926000830184610eb8565b92915050565b6000608082019050610fad6000830187610eb8565b8181036020830152610fbf8186610e39565b9050610fce6040830185610e13565b610fdb6060830184610eb8565b95945050505050565b600060a082019050610ff96000830188610eb8565b6110066020830187610eb8565b6110136040830186610eb8565b6110206060830185610eb8565b61102d6080830184610eb8565b9695505050505050565b6000611041611052565b905061104d82826111af565b919050565b6000604051905090565b600067ffffffffffffffff82111561107757611076611315565b5b61108082611344565b9050602081019050919050565b600081519050919050565b600082825260208201905092915050565b60006110b482611131565b91506110bf83611131565b9250827fffffffffffffffffffffffffffffffffffffffffffffffffffffffffffffffff038211156110f4576110f3611288565b5b828201905092915050565b600061110a82611111565b9050919050565b600073ffffffffffffffffffffffffffffffffffffffff82169050919050565b6000819050919050565b82818337600083830152505050565b60005b8381101561116857808201518184015260208101905061114d565b83811115611177576000848401525b50505050565b6000600282049050600182168061119557607f821691505b602082108114156111a9576111a86112e6565b5b50919050565b6111b882611344565b810181811067ffffffffffffffff821117156111d7576111d6611315565b5b80604052505050565b60006111eb82611131565b91507fffffffffffffffffffffffffffffffffffffffffffffffffffffffffffffffff82141561121e5761121d611288565b5b600182019050919050565b60006112348261123b565b9050919050565b600061124682611355565b9050919050565b6000819050919050565b600061126282611131565b915061126d83611131565b92508261127d5761127c6112b7565b5b828206905092915050565b7f4e487b7100000000000000000000000000000000000000000000000000000000600052601160045260246000fd5b7f4e487b7100000000000000000000000000000000000000000000000000000000600052601260045260246000fd5b7f4e487b7100000000000000000000000000000000000000000000000000000000600052602260045260246000fd5b7f4e487b7100000000000000000000000000000000000000000000000000000000600052604160045260246000fd5b6000601f19601f8301169050919050565b60008160601b9050919050565b7f5365656d73206c696b652074686973206973206e6f7420796f7572206669727360008201527f742074696d6520706c6179696e67000000000000000000000000000000000000602082015250565b7f4e6f7420656e6f75676820457468657220696e20796f75722077616c6c657400600082015250565b6113e3816110ff565b81146113ee57600080fd5b50565b6113fa81611131565b811461140557600080fd5b5056fea26469706673582212201565880237800b2dadff53ee81824ffd9f8f773d467805a3cf061261d23aadd264736f6c63430008040033",
  "immutableReferences": {},
  "source": "pragma solidity >=0.4.22 <0.9.0;\r\n\r\ncontract GameData{\r\n    string public name = \"Game Data\";\r\n    mapping(address => PlayerData) public players;\r\n    mapping(uint => Card) public cards;\r\n    mapping(address => mapping(uint => Card)) public playerCards;\r\n    uint public playerCount = 0;\r\n    uint public cardCount = 0;\r\n    address payable admin;\r\n\r\n    struct PlayerData{\r\n        uint id;\r\n        string playerName;\r\n        address playerAddress;\r\n        uint drawCount;\r\n    }\r\n\r\n    struct Card{\r\n        uint id;\r\n        uint rank;\r\n        uint hp;\r\n        uint attack;\r\n        uint speed;     \r\n    }\r\n\r\n    event CardCreated(\r\n        uint id,\r\n        uint rank,\r\n        uint hp,\r\n        uint attack,\r\n        uint speed       \r\n    );\r\n\r\n    constructor(address payable _admin) public{\r\n        admin = _admin;\r\n    }\r\n\r\n    //Draw Card Logic\r\n    function drawCard(string memory _drawType, string memory _playerName) public payable{\r\n\r\n        //Draw according to type\r\n        if(keccak256(bytes(_drawType)) == keccak256(bytes(\"free\"))){\r\n            require(players[msg.sender].drawCount <= 0 , 'Seems like this is not your first time playing');\r\n            playerCount++;\r\n\r\n            //Set player's Data for the first time in free draw\r\n            players[msg.sender] = PlayerData(playerCount, _playerName, msg.sender, 1);\r\n            generateCharacterRank(1,2);\r\n        }\r\n        else if(keccak256(bytes(_drawType)) == keccak256(bytes(\"rare\"))){\r\n            require(msg.value == 0.1 ether, \"Not enough Ether in your wallet\");\r\n            admin.transfer(msg.value);\r\n            setPlayerData(_playerName);\r\n            generateCharacterRank(2,4);\r\n        }\r\n        else if(keccak256(bytes(_drawType)) == keccak256(bytes(\"premium\"))){\r\n            require(msg.value == 0.2 ether, \"Not enough Ether in your wallet\");\r\n            admin.transfer(msg.value);\r\n            setPlayerData(_playerName);\r\n            generateCharacterRank(3,5);\r\n        }\r\n        else{\r\n            return;\r\n        }\r\n    }\r\n\r\n    function setPlayerData(string memory _name) internal {\r\n            uint tempCount = players[msg.sender].drawCount + 1;\r\n            uint playerId = players[msg.sender].id;\r\n            players[msg.sender] = PlayerData(playerId, _name, msg.sender, tempCount);\r\n    }\r\n\r\n    function generateCharacterRank(uint _minRank, uint _maxRank) internal {\r\n        uint rank = uint(keccak256(abi.encodePacked(block.timestamp, block.difficulty, msg.sender))) % _maxRank;\r\n        rank = rank + _minRank;\r\n\r\n        if(rank > _maxRank){\r\n            rank = _maxRank;\r\n        }\r\n        \r\n        generateCard(rank);\r\n    }\r\n\r\n    function generateCard(uint _rank) internal {\r\n        //For Card Hp\r\n        uint baseHp = 5;\r\n        uint hp = (baseHp + _rank) + uint(keccak256(abi.encodePacked(block.timestamp, block.difficulty, msg.sender))) % _rank;\r\n\r\n        //For card id\r\n        cardCount++;\r\n\r\n        //For Card attack\r\n        uint attack = _rank + uint(keccak256(abi.encodePacked(block.timestamp, block.difficulty, msg.sender))) % _rank;\r\n\r\n        //For speed\r\n        uint speed = _rank;\r\n\r\n        Card memory newCardData = Card(cardCount, _rank, hp, attack, speed);\r\n\r\n        playerCards[msg.sender][cardCount] = newCardData;\r\n        cards[cardCount] = newCardData;\r\n\r\n        emit CardCreated(cardCount, _rank, hp, attack, speed);\r\n    }\r\n}",
  "sourcePath": "C:/Users/skillet15/Desktop/Blockchain/Phaser_Game/src/contracts/GameData.sol",
  "compiler": {
    "name": "solc",
    "version": "0.8.4+commit.c7e474f2.Emscripten.clang"
  },
  "schemaVersion": "3.2.3",
  "updatedAt": "2021-11-24T14:21:54.147Z",
  "networkType": "ethereum",
  "devdoc": {
    "kind": "dev",
    "methods": {},
    "version": 1
  },
  "userdoc": {
    "kind": "user",
    "methods": {},
    "version": 1
  }
}