{
  "contractName": "GameData",
  "abi": [
    {
      "inputs": [
        {
          "internalType": "address payable",
          "name": "_admin",
          "type": "address"
        }
      ],
      "payable": false,
      "stateMutability": "nonpayable",
      "type": "constructor"
    },
    {
      "anonymous": false,
      "inputs": [
        {
          "indexed": false,
          "internalType": "uint256",
          "name": "id",
          "type": "uint256"
        },
        {
          "indexed": false,
          "internalType": "uint256",
          "name": "rank",
          "type": "uint256"
        },
        {
          "indexed": false,
          "internalType": "uint256",
          "name": "hp",
          "type": "uint256"
        },
        {
          "indexed": false,
          "internalType": "uint256",
          "name": "attack",
          "type": "uint256"
        },
        {
          "indexed": false,
          "internalType": "uint256",
          "name": "speed",
          "type": "uint256"
        }
      ],
      "name": "CardCreated",
      "type": "event"
    },
    {
      "constant": true,
      "inputs": [],
      "name": "cardCount",
      "outputs": [
        {
          "internalType": "uint256",
          "name": "",
          "type": "uint256"
        }
      ],
      "payable": false,
      "stateMutability": "view",
      "type": "function"
    },
    {
      "constant": true,
      "inputs": [
        {
          "internalType": "uint256",
          "name": "",
          "type": "uint256"
        }
      ],
      "name": "cards",
      "outputs": [
        {
          "internalType": "uint256",
          "name": "id",
          "type": "uint256"
        },
        {
          "internalType": "uint256",
          "name": "rank",
          "type": "uint256"
        },
        {
          "internalType": "uint256",
          "name": "hp",
          "type": "uint256"
        },
        {
          "internalType": "uint256",
          "name": "attack",
          "type": "uint256"
        },
        {
          "internalType": "uint256",
          "name": "speed",
          "type": "uint256"
        }
      ],
      "payable": false,
      "stateMutability": "view",
      "type": "function"
    },
    {
      "constant": true,
      "inputs": [],
      "name": "name",
      "outputs": [
        {
          "internalType": "string",
          "name": "",
          "type": "string"
        }
      ],
      "payable": false,
      "stateMutability": "view",
      "type": "function"
    },
    {
      "constant": true,
      "inputs": [
        {
          "internalType": "address",
          "name": "",
          "type": "address"
        },
        {
          "internalType": "uint256",
          "name": "",
          "type": "uint256"
        }
      ],
      "name": "playerCards",
      "outputs": [
        {
          "internalType": "uint256",
          "name": "id",
          "type": "uint256"
        },
        {
          "internalType": "uint256",
          "name": "rank",
          "type": "uint256"
        },
        {
          "internalType": "uint256",
          "name": "hp",
          "type": "uint256"
        },
        {
          "internalType": "uint256",
          "name": "attack",
          "type": "uint256"
        },
        {
          "internalType": "uint256",
          "name": "speed",
          "type": "uint256"
        }
      ],
      "payable": false,
      "stateMutability": "view",
      "type": "function"
    },
    {
      "constant": true,
      "inputs": [],
      "name": "playerCount",
      "outputs": [
        {
          "internalType": "uint256",
          "name": "",
          "type": "uint256"
        }
      ],
      "payable": false,
      "stateMutability": "view",
      "type": "function"
    },
    {
      "constant": true,
      "inputs": [
        {
          "internalType": "address",
          "name": "",
          "type": "address"
        }
      ],
      "name": "players",
      "outputs": [
        {
          "internalType": "uint256",
          "name": "id",
          "type": "uint256"
        },
        {
          "internalType": "string",
          "name": "playerName",
          "type": "string"
        },
        {
          "internalType": "address",
          "name": "playerAddress",
          "type": "address"
        },
        {
          "internalType": "uint256",
          "name": "drawCount",
          "type": "uint256"
        }
      ],
      "payable": false,
      "stateMutability": "view",
      "type": "function"
    },
    {
      "constant": false,
      "inputs": [
        {
          "internalType": "string",
          "name": "_drawType",
          "type": "string"
        },
        {
          "internalType": "string",
          "name": "_playerName",
          "type": "string"
        }
      ],
      "name": "drawCard",
      "outputs": [],
      "payable": true,
      "stateMutability": "payable",
      "type": "function"
    }
  ],
  "bytecode": "0x60806040526040518060400160405280600981526020017f47616d65204461746100000000000000000000000000000000000000000000008152506000908051906020019062000051929190620000e8565b50600060045560006005553480156200006957600080fd5b50604051620012c8380380620012c8833981810160405260208110156200008f57600080fd5b810190808051906020019092919050505080600660006101000a81548173ffffffffffffffffffffffffffffffffffffffff021916908373ffffffffffffffffffffffffffffffffffffffff1602179055505062000197565b828054600181600116156101000203166002900490600052602060002090601f016020900481019282601f106200012b57805160ff19168380011785556200015c565b828001600101855582156200015c579182015b828111156200015b5782518255916020019190600101906200013e565b5b5090506200016b91906200016f565b5090565b6200019491905b808211156200019057600081600090555060010162000176565b5090565b90565b61112180620001a76000396000f3fe6080604052600436106100705760003560e01c8063302bcc571161004e578063302bcc57146102825780638dc10768146102ad578063af4126bc14610318578063e2eb41ff146103a357610070565b806306fdde03146100755780631337f2da146101055780631b6cde1014610257575b600080fd5b34801561008157600080fd5b5061008a6104ae565b6040518080602001828103825283818151815260200191508051906020019080838360005b838110156100ca5780820151818401526020810190506100af565b50505050905090810190601f1680156100f75780820380516001836020036101000a031916815260200191505b509250505060405180910390f35b6102556004803603604081101561011b57600080fd5b810190808035906020019064010000000081111561013857600080fd5b82018360208201111561014a57600080fd5b8035906020019184600183028401116401000000008311171561016c57600080fd5b91908080601f016020809104026020016040519081016040528093929190818152602001838380828437600081840152601f19601f820116905080830192505050505050509192919290803590602001906401000000008111156101cf57600080fd5b8201836020820111156101e157600080fd5b8035906020019184600183028401116401000000008311171561020357600080fd5b91908080601f016020809104026020016040519081016040528093929190818152602001838380828437600081840152601f19601f82011690508083019250505050505050919291929050505061054c565b005b34801561026357600080fd5b5061026c6109ec565b6040518082815260200191505060405180910390f35b34801561028e57600080fd5b506102976109f2565b6040518082815260200191505060405180910390f35b3480156102b957600080fd5b506102e6600480360360208110156102d057600080fd5b81019080803590602001909291905050506109f8565b604051808681526020018581526020018481526020018381526020018281526020019550505050505060405180910390f35b34801561032457600080fd5b506103716004803603604081101561033b57600080fd5b81019080803573ffffffffffffffffffffffffffffffffffffffff16906020019092919080359060200190929190505050610a2e565b604051808681526020018581526020018481526020018381526020018281526020019550505050505060405180910390f35b3480156103af57600080fd5b506103f2600480360360208110156103c657600080fd5b81019080803573ffffffffffffffffffffffffffffffffffffffff169060200190929190505050610a71565b60405180858152602001806020018473ffffffffffffffffffffffffffffffffffffffff1673ffffffffffffffffffffffffffffffffffffffff168152602001838152602001828103825285818151815260200191508051906020019080838360005b83811015610470578082015181840152602081019050610455565b50505050905090810190601f16801561049d5780820380516001836020036101000a031916815260200191505b509550505050505060405180910390f35b60008054600181600116156101000203166002900480601f0160208091040260200160405190810160405280929190818152602001828054600181600116156101000203166002900480156105445780601f1061051957610100808354040283529160200191610544565b820191906000526020600020905b81548152906001019060200180831161052757829003601f168201915b505050505081565b6040518060400160405280600481526020017f6672656500000000000000000000000000000000000000000000000000000000815250805190602001208280519060200120141561074a576000600160003373ffffffffffffffffffffffffffffffffffffffff1673ffffffffffffffffffffffffffffffffffffffff168152602001908152602001600020600301541115610633576040517f08c379a000000000000000000000000000000000000000000000000000000000815260040180806020018281038252602e8152602001806110bf602e913960400191505060405180910390fd5b600460008154809291906001019190505550604051806080016040528060045481526020018281526020013373ffffffffffffffffffffffffffffffffffffffff1681526020016001815250600160003373ffffffffffffffffffffffffffffffffffffffff1673ffffffffffffffffffffffffffffffffffffffff1681526020019081526020016000206000820151816000015560208201518160010190805190602001906106e4929190610fea565b5060408201518160020160006101000a81548173ffffffffffffffffffffffffffffffffffffffff021916908373ffffffffffffffffffffffffffffffffffffffff1602179055506060820151816003015590505061074560016002610b59565b6109e7565b6040518060400160405280600481526020017f726172650000000000000000000000000000000000000000000000000000000081525080519060200120828051906020012014156108955767016345785d8a00003414610812576040517f08c379a000000000000000000000000000000000000000000000000000000000815260040180806020018281038252601f8152602001807f4e6f7420656e6f75676820457468657220696e20796f75722077616c6c65740081525060200191505060405180910390fd5b600660009054906101000a900473ffffffffffffffffffffffffffffffffffffffff1673ffffffffffffffffffffffffffffffffffffffff166108fc349081150290604051600060405180830381858888f1935050505015801561087a573d6000803e3d6000fd5b5061088481610bee565b61089060026004610b59565b6109e6565b6040518060400160405280600781526020017f7072656d69756d0000000000000000000000000000000000000000000000000081525080519060200120828051906020012014156109e0576702c68af0bb140000341461095d576040517f08c379a000000000000000000000000000000000000000000000000000000000815260040180806020018281038252601f8152602001807f4e6f7420656e6f75676820457468657220696e20796f75722077616c6c65740081525060200191505060405180910390fd5b600660009054906101000a900473ffffffffffffffffffffffffffffffffffffffff1673ffffffffffffffffffffffffffffffffffffffff166108fc349081150290604051600060405180830381858888f193505050501580156109c5573d6000803e3d6000fd5b506109cf81610bee565b6109db60036005610b59565b6109e5565b6109e8565b5b5b5b5050565b60055481565b60045481565b60026020528060005260406000206000915090508060000154908060010154908060020154908060030154908060040154905085565b6003602052816000526040600020602052806000526040600020600091509150508060000154908060010154908060020154908060030154908060040154905085565b6001602052806000526040600020600091509050806000015490806001018054600181600116156101000203166002900480601f016020809104026020016040519081016040528092919081815260200182805460018160011615610100020316600290048015610b235780601f10610af857610100808354040283529160200191610b23565b820191906000526020600020905b815481529060010190602001808311610b0657829003601f168201915b5050505050908060020160009054906101000a900473ffffffffffffffffffffffffffffffffffffffff16908060030154905084565b600081424433604051602001808481526020018381526020018273ffffffffffffffffffffffffffffffffffffffff1673ffffffffffffffffffffffffffffffffffffffff1660601b815260140193505050506040516020818303038152906040528051906020012060001c81610bcc57fe5b069050828101905081811115610be0578190505b610be981610d74565b505050565b600060018060003373ffffffffffffffffffffffffffffffffffffffff1673ffffffffffffffffffffffffffffffffffffffff168152602001908152602001600020600301540190506000600160003373ffffffffffffffffffffffffffffffffffffffff1673ffffffffffffffffffffffffffffffffffffffff16815260200190815260200160002060000154905060405180608001604052808281526020018481526020013373ffffffffffffffffffffffffffffffffffffffff16815260200183815250600160003373ffffffffffffffffffffffffffffffffffffffff1673ffffffffffffffffffffffffffffffffffffffff168152602001908152602001600020600082015181600001556020820151816001019080519060200190610d1a929190610fea565b5060408201518160020160006101000a81548173ffffffffffffffffffffffffffffffffffffffff021916908373ffffffffffffffffffffffffffffffffffffffff16021790555060608201518160030155905050505050565b600060059050600082424433604051602001808481526020018381526020018273ffffffffffffffffffffffffffffffffffffffff1673ffffffffffffffffffffffffffffffffffffffff1660601b815260140193505050506040516020818303038152906040528051906020012060001c81610ded57fe5b06838301019050600560008154809291906001019190505550600083424433604051602001808481526020018381526020018273ffffffffffffffffffffffffffffffffffffffff1673ffffffffffffffffffffffffffffffffffffffff1660601b815260140193505050506040516020818303038152906040528051906020012060001c81610e7957fe5b06840190506000849050610e8b61106a565b6040518060a00160405280600554815260200187815260200185815260200184815260200183815250905080600360003373ffffffffffffffffffffffffffffffffffffffff1673ffffffffffffffffffffffffffffffffffffffff1681526020019081526020016000206000600554815260200190815260200160002060008201518160000155602082015181600101556040820151816002015560608201518160030155608082015181600401559050508060026000600554815260200190815260200160002060008201518160000155602082015181600101556040820151816002015560608201518160030155608082015181600401559050507f16dfbbfecff834206ea9c94170f0359bf3eba4ff45b7d410f267828d87ba436a60055487868686604051808681526020018581526020018481526020018381526020018281526020019550505050505060405180910390a1505050505050565b828054600181600116156101000203166002900490600052602060002090601f016020900481019282601f1061102b57805160ff1916838001178555611059565b82800160010185558215611059579182015b8281111561105857825182559160200191906001019061103d565b5b5090506110669190611099565b5090565b6040518060a0016040528060008152602001600081526020016000815260200160008152602001600081525090565b6110bb91905b808211156110b757600081600090555060010161109f565b5090565b9056fe5365656d73206c696b652074686973206973206e6f7420796f75722066697273742074696d6520706c6179696e67a265627a7a723158209e2afa6f909cc75b2951d357d7a043655f836e5305fb20a457ed02e192fbcf3364736f6c63430005100032",
  "source": "pragma solidity >=0.4.22 <0.9.0;\r\n\r\ncontract GameData{\r\n    string public name = \"Game Data\";\r\n    mapping(address => PlayerData) public players;\r\n    mapping(uint => Card) public cards;\r\n    mapping(address => mapping(uint => Card)) public playerCards;\r\n    uint public playerCount = 0;\r\n    uint public cardCount = 0;\r\n    address payable admin;\r\n\r\n    struct PlayerData{\r\n        uint id;\r\n        string playerName;\r\n        address playerAddress;\r\n        uint drawCount;\r\n    }\r\n\r\n    struct Card{\r\n        uint id;\r\n        uint rank;\r\n        uint hp;\r\n        uint attack;\r\n        uint speed;     \r\n    }\r\n\r\n    event CardCreated(\r\n        uint id,\r\n        uint rank,\r\n        uint hp,\r\n        uint attack,\r\n        uint speed       \r\n    );\r\n\r\n    constructor(address payable _admin) public{\r\n        admin = _admin;\r\n    }\r\n\r\n    //Draw Card Logic\r\n    function drawCard(string memory _drawType, string memory _playerName) public payable{\r\n\r\n        //Draw according to type\r\n        if(keccak256(bytes(_drawType)) == keccak256(bytes(\"free\"))){\r\n            require(players[msg.sender].drawCount <= 0 , 'Seems like this is not your first time playing');\r\n            playerCount++;\r\n\r\n            //Set player's Data for the first time in free draw\r\n            players[msg.sender] = PlayerData(playerCount, _playerName, msg.sender, 1);\r\n            generateCharacterRank(1,2);\r\n        }\r\n        else if(keccak256(bytes(_drawType)) == keccak256(bytes(\"rare\"))){\r\n            require(msg.value == 0.1 ether, \"Not enough Ether in your wallet\");\r\n            admin.transfer(msg.value);\r\n            setPlayerData(_playerName);\r\n            generateCharacterRank(2,4);\r\n        }\r\n        else if(keccak256(bytes(_drawType)) == keccak256(bytes(\"premium\"))){\r\n            require(msg.value == 0.2 ether, \"Not enough Ether in your wallet\");\r\n            admin.transfer(msg.value);\r\n            setPlayerData(_playerName);\r\n            generateCharacterRank(3,5);\r\n        }\r\n        else{\r\n            return;\r\n        }\r\n    }\r\n\r\n    function setPlayerData(string memory _name) internal {\r\n            uint tempCount = players[msg.sender].drawCount + 1;\r\n            uint playerId = players[msg.sender].id;\r\n            players[msg.sender] = PlayerData(playerId, _name, msg.sender, tempCount);\r\n    }\r\n\r\n    function generateCharacterRank(uint _minRank, uint _maxRank) internal {\r\n        uint rank = uint(keccak256(abi.encodePacked(block.timestamp, block.difficulty, msg.sender))) % _maxRank;\r\n        rank = rank + _minRank;\r\n\r\n        if(rank > _maxRank){\r\n            rank = _maxRank;\r\n        }\r\n        \r\n        generateCard(rank);\r\n    }\r\n\r\n    function generateCard(uint _rank) internal {\r\n        //For Card Hp\r\n        uint baseHp = 5;\r\n        uint hp = (baseHp + _rank) + uint(keccak256(abi.encodePacked(block.timestamp, block.difficulty, msg.sender))) % _rank;\r\n\r\n        //For card id\r\n        cardCount++;\r\n\r\n        //For Card attack\r\n        uint attack = _rank + uint(keccak256(abi.encodePacked(block.timestamp, block.difficulty, msg.sender))) % _rank;\r\n\r\n        //For speed\r\n        uint speed = _rank;\r\n\r\n        Card memory newCardData = Card(cardCount, _rank, hp, attack, speed);\r\n\r\n        playerCards[msg.sender][cardCount] = newCardData;\r\n        cards[cardCount] = newCardData;\r\n\r\n        emit CardCreated(cardCount, _rank, hp, attack, speed);\r\n    }\r\n}",
  "sourcePath": "C:\\Users\\skillet15\\Desktop\\Blockchain\\Phaser_Game\\src\\contracts\\GameData.sol",
  "compiler": {
    "name": "solc",
    "version": "0.5.16+commit.9c3226ce.Emscripten.clang"
  },
  "schemaVersion": "3.4.2",
  "updatedAt": "2021-09-26T18:34:20.803Z",
  "networkType": "ethereum",
  "devdoc": {
    "methods": {}
  },
  "userdoc": {
    "methods": {}
  }
}